:020000040000FA
:10000000A8640002450200004D0200004F020000FB
:1000100000000000000000000000000000000000E0
:10002000000000000000000000000000A10100002E
:100030000000000000000000E5010000ED0C0000E1
:100040005902000059020000590200005902000044
:100050005902000059020000590200005902000034
:100060005902000059020000590200005902000024
:100070005902000059020000590200005902000014
:100080003D0C000059020000590200005902000016
:1000900059020000590200005902000059020000F4
:1000A00059020000590200005902000059020000E4
:1000B00059020000590200005902000059020000D4
:1000C00059020000590200005902000059020000C4
:1000D00059020000590200005902000059020000B4
:1000E00059020000590200005902000059020000A4
:1000F00059020000590200005902000000F002F805
:1001000000F03EF80AA090E8000C82448344AAF173
:100110000107DA4501D100F033F8AFF2090EBAE871
:100120000F0013F0010F18BFFB1A43F0010318472B
:1001300084130000A4130000103A24BF78C878C1CB
:10014000FAD8520724BF30C830C144BF04680C60DD
:10015000704700000023002400250026103A28BF25
:1001600078C1FBD8520728BF30C148BF0B60704729
:100170001FB59DE8030000F079F91FBD10B510BD53
:1001800000F01EFA1146FFF7F3FF00F0E9FD00F062
:100190003CFA03B4FFF7F2FF03BC00F0CFFD000010
:1001A000204B19680868B0E8F00F80F30988BFF3A6
:1001B0006F8F4FF0000080F311884EF00D0E7047E6
:1001C0000000000006480068006880F3088862B6F6
:1001D00061B6BFF34F8FBFF36F8F00DF00BF00BF6B
:1001E00008ED00E0EFF30980BFF36F8F0D4B1A6845
:1001F00020E9F00F106008B54FF0A00080F31188DF
:1002000000F060FF4FF0000080F31188BDE8084067
:1002100019680868B0E8F00F80F30988BFF36F8FA2
:10022000704700BF04000002EFF311804FF0A001FF
:1002300081F31188704780F311887047EFF30580D0
:10024000704700000848804708480047FEE7FEE77F
:10025000FEE7FEE7FEE7FEE7FEE70000044805498B
:10026000054A064B70470000210D0000FD0000000C
:10027000A8610002A8640002A8620002A86200024D
:1002800070B5064600F036F8056806F10B0020F060
:100290000704B4429CBF002070BD2B466A68BAB107
:1002A0001068A04210D304F1080188423CBF506896
:1002B000586007D35168101941601168091B01602B
:1002C00058601460101D70BD13465268002AE7D1B3
:1002D0002146284600F0B6F80028DED170BD02F0B5
:1002E000FF0343EA032242EA024200F0F7B87047F4
:1002F000704770470048704750610002FFFFFFFFE2
:1003000070B50446051FFFF7F5FF0068002C14BF09
:10031000446870BD002C18BFAC423CBF20466468E6
:10032000F8D301680A18AA4218BF456003D12A68A9
:1003300005461144016028684119A1421CBF6C6048
:1003400070BD6168696021680844286070BD53EA27
:10035000020C00F069802DE9F04B4FF00006002BF5
:100360001FBFB3FA83F503FA05F424FA05F65E40DD
:1003700012BF1643B2FA82F502FA05F4C5F1200560
:100380001EBF22FA05FC44EA0C04203556EA044C50
:100390004FEA144418BF641C4FF000084FF00009E6
:1003A000904271EB030C39D3002919BFB1FA81F7E0
:1003B00001FA07F6B0FA80F700FA07F6C7F120074E
:1003C0001EBF20FA07FC46EA0C062037B6FBF4FCF9
:1003D000A7EB0507103F07F01F0BCBF120060CFA27
:1003E0000BFB2CFA06F644BFB3460026202FA4BF11
:1003F0005E464FF0000B5BEA060C08BF4FF0010BA6
:1004000019EB0B09ABFB027C48EB0608C01B06FB93
:1004100002CC0BFB03CC71EB0C01C1E70B4602468F
:1004200041464846BDE8F08B13B54FF000004FF051
:100430000001AFF30080BDE81C4070477047704773
:100440007047704738B504460A460020694600F0F8
:10045000B2F8002808BF38BD02460099204600F0D7
:1004600061F8012038BD012000F076B8F8B5AFF38F
:100470000080054600200C46102000BF0646A81943
:10048000A0420DD932466946002000F094F80700DA
:1004900008BF00F061F80098A04218BF0546C419D3
:1004A000FFF728FF05600746F01D20F007004619FA
:1004B000284600F00AF8B44208BFF8BDA21B314636
:1004C0003868BDE8F84000F02DB800210160C0E9AF
:1004D00001107047102070474FF000020429C0F04F
:1004E000128010F0030C00F04080CCF1040CBCF141
:1004F000020F18BF00F8012BA8BF20F8022BA1EBB8
:100500000C0100F032B85FEAC17C24BF00F8012B77
:1005100000F8012B48BF00F8012B704700487047D6
:1005200048610002034640688C46002818BF884294
:100530003CBF03464068F8D318681844884207D087
:100540000CF1030020F00700001D411A521A014669
:10055000081D0A60FFF7D4BE10B500F061F8BDE8D1
:10056000104000F058B84FF0000200B51346944612
:100570009646203922BFA0E80C50A0E80C50B1F1FB
:100580002001BFF4F7AF090728BFA0E80C5048BF0F
:100590000CC05DF804EB890028BF40F8042B08BFAD
:1005A000704748BF20F8022B11F0804F18BF00F8A9
:1005B000012B7047704710B500F0B4FB10BD7047B9
:1005C0007546FFF7ABFFAE4605006946534620F07F
:1005D0000700854618B020B5FFF740FEBDE8204073
:1005E0004FF000064FF000074FF000084FF0000BEF
:1005F00021F00701AC46ACE8C009ACE8C009ACE8A2
:10060000C009ACE8C0098D4670470446AFF30080CE
:100610002046FFF7BEFD002801D000F08FBB7047D9
:1006200010B5012805D0002103A000F021F8012019
:1006300010BD09A1F8E7000053494752544D454DFC
:100640003A204F7574206F662068656170206D6573
:100650006D6F7279000000003A2048656170206D6E
:10066000656D6F727920636F727275707465640066
:1006700070B505460C460A2000E06D1C00F011F82C
:1006800035B128780028F8D102E0641C00F009F8A0
:1006900014B120780028F8D1BDE870400A20AFF3EB
:1006A000008008B569468DF800000320ABBE08BD88
:1006B000154810B58021416381640D22002101207D
:1006C00000F0F7F900211222084600F0F2F900F0DC
:1006D000B5F8002100F05AF90C4C204600F068FAF9
:1006E000206820F07C0040F0040020604FF4E131ED
:1006F000204600F097FA206840F001002060606812
:1007000020F04000606010BD00800F4000000440F9
:100710002DE9F041FFF7CCFF4FF0E054204600F008
:100720006BF90C4B0021DD1E0122585C6E5C04EB62
:10073000800000F50050076802FA06F637430760AC
:10074000585C6E5C04EB40108255491C0329ECDBBD
:10075000BDE8F0812314000010B503280BD2064A2F
:10076000054C4FF0E053E41E125C205C03EB421298
:1007700081F00101115410BD2314000010B500F0E8
:10078000E7F90B4C0120C4F8A4000320012161F318
:100790009F10C4F8A001C80500F0CCF9D4F8A4015A
:1007A00010F0010FFAD00120C4F8CC0010BD0000F9
:1007B0000040074070B50D2000F030F80C2000F02C
:1007C0002DF80D24204600F079F9204600F088F934
:1007D0001D220A490A4800F033F9084D0024083D5B
:1007E00035F81410C8B2C1F34122C90A01EB421115
:1007F00000F048F9641C032CF2D370BD40140000D3
:1008000000800F4010B5FFF7D5FFFFF7B7FF024993
:100810000120C1F8CC0010BD00400740064901226C
:10082000202803D351F8C83F203801E051F8C43FD5
:10083000824013430B607047004007400448D0F8E3
:10084000840010F0FF0F01D000F01EB800F002B8D5
:100850000040074008490020D1F8801011F0FF0146
:1008600005D0012905D0022900D104487047044869
:10087000704704480068704700400740D8AC070044
:10088000001BB700181400000A490020D1F884109A
:1008900011F0FF0108D0012908D0022908D003294E
:1008A00001D1054800687047FFF7D4BF00F028B8B1
:1008B00000F02EB8004007401C14000000F03F027A
:1008C000521C01FB02F0704710F0030003D0012816
:1008D00003D0002070470248704702480068704704
:1008E000001BB7001814000010B5FFF7A7FF03495D
:1008F000D1F8C010B0FBF1F010BD0000004007407F
:100900000248D0F8A000FFF7DFBF0000004007401A
:1009100010B5FFF7F5FF01460348D0F89801BDE890
:100920001040FFF7CBBF00000040074070B50E4DF0
:10093000D5F8D040B4B1FFF781FFB0FBF4F0D5F8A3
:100940002821002192B2D34313F0FF0F09D10902ED
:10095000120A41EA10610002002302F58072FFF7DB
:10096000F6FC70BD002070BD004007400649042819
:1009700004D3001FC0B2C1F88400704741F8800F53
:1009800000204860704700000040074070B50E46E8
:100990000446FFF753FF0146B0FBF4F000B9012015
:1009A0000D4DC2B2C5F8D02000227EB104FB101359
:1009B00004FB00F2190E18020023FFF7C8FC000622
:1009C000000C40F0FF00C5F8280101E0C5F828211F
:1009D000BDE87040FFF7AABF004007400549D1F8C5
:1009E000242100F0030022F4405242EA0030C1F812
:1009F000240170470040074010B50E20FFF70EFF9E
:100A00000F20FFF70BFF1020FFF708FF0B20FFF769
:100A100005FF0B24204600F051F82046BDE81040A9
:100A200000F05EB800EB8100012100F5005091401C
:100A300002680BB10A4300E08A430260704700007D
:100A400070B500230BE000BF51F82340E6B2C4F3B9
:100A5000072500EBC616240C46F825405B1C934284
:100A6000F2D370BD10B5C0F383301C300446FFF7DD
:100A7000D5FE204600F022F82046BDE8104000F0E8
:100A80002FB800000207520E00098300054810B578
:100A900003441868FF249440A04391400143196027
:100AA00010BD00000080034002EB4111C9B2FFF706
:100AB000E9BF02EB4111C9B2FFF7E4BF074A0121C8
:100AC000202805D3936C203881400B4393647047F2
:100AD000536C81400B435364704700000040074053
:100AE000074A0121202805D3936C203881408B438D
:100AF00093647047536C81408B435364704700008C
:100B00000040074010B50446FFF7D8FF2046BDE877
:100B10001040FFF7E5BF0000044AD2F80812044B6A
:100B2000194018400843C2F80802704700400740C7
:100B300078FFFF01044AD2F80812044B194018400C
:100B40008143C2F8081270470040074078FFFF0158
:100B500038B54FF40010FFF7EDFF00204FF400719F
:100B60000090401C00908842FBDB104C0120C4F830
:100B7000A00085052846FFF7CFFF0521022060F37E
:100B80009F11C4F898112846FFF7D4FFD4F89C01B0
:100B900010F0010FFAD00120C4F8C0000220FFF7C6
:100BA0001DFFBDE838400620FFF7E0BE00400740CB
:100BB00010B5044600F0C4F8FFF730FE0748844241
:100BC00001D1312005E00648844201D1322000E005
:100BD0003320BDE81040FFF795BF0000000004403F
:100BE0000040044010B50346002003E011F8014B1B
:100BF000DC61401C904202DA9C686407F6D410BDA8
:100C0000F0B51546074600260C4607E02A46214661
:100C10003846FFF7E7FF2D1A06440444002DF5DCA3
:100C20003046F0BD70B50D460446FFF77FFE290142
:100C3000B0FBF1F1491E216270BD00000B4810B5F8
:100C40000178491CC9B2017032290AD9002101700A
:100C50001D2207490748FFF7D3FF07490220C1F8C3
:100C6000000306490120C1F8F40010BD0000000295
:100C7000F8130000000004400420001C0080011C48
:100C800010B5174C2046FFF7EDFE164920680843C3
:100C90002060154864220168B1FBF2F0401EC4F8E0
:100CA0000001B1FBF2F0401EC4F800024FF0FF302B
:100CB000C4F800034FF48050C4F80403D4F8F000E3
:100CC00040F00100C4F8F0004FF0E0214FF4803014
:100CD000C1F80001606820F00400606010BD0000F1
:100CE0000080011C010002004000000210B5FFF767
:100CF0009BFA00F0D7FA18B104494FF08050086011
:100D0000BDE810400020FFF796BA000004ED00E0B7
:100D100010B5FFF7E9FD0149086010BD4000000271
:100D2000FFF770BD4FF4C040824201D900207047E8
:100D3000014A0A60704700004801000230BFFDE729
:100D40000549884201D1312070470449884201D1C8
:100D500032207047332070470000044000400440B8
:100D60001FB5FFF7D5FFFFF7D3FC01210020FFF7E8
:100D7000F3FC00F01BF800F0BBF800200121CDE9E6
:100D80000010029003460390802204A1064800F060
:100D9000D3F900F06BF904B0012010BD54696D6502
:100DA0007254657374000000D50E0000144810B52D
:100DB0008021416381648165C1658161C1610D22CA
:100DC00000211220FFF770FE122200211120FFF7F0
:100DD0006BFE162200210120FFF766FE002117227C
:100DE0000846FFF761FE062200212320FFF75CFE84
:100DF00007220021BDE810402220FFF755BE000069
:100E000000800F4070B5124E124C1AE000F052F9FB
:100E10003068D0B100F0A0FA00F0E6F8F068C568DC
:100E2000281D00F0B3F8A068401EA0606068401E56
:100E3000606000F0E7F8286B00F0EEF8284600F05C
:100E4000EBF860680028E1D170BD00F085FAF8E7A2
:100E50002001000204000002054C00BFFFF7D2FF92
:100E60002068012801D900F0F5F800F0A1F8F5E7B5
:100E7000440000020648016B096829B1016BC9688A
:100E8000C9684968816270474FF0FF31FAE7000096
:100E900004000002FFF7C8F9FEE710B5044600F0B1
:100EA00009F92046FFF7ECF9044600F055FA204610
:100EB00010BD000010B5031F4FF080741C601B1F95
:100EC0001960191F024B0B60143940380A6010BDBD
:100ED000950E00003F20FFF7A1FC01231A4619469A
:100EE0004FF0E050FFF79EFDFFF7CAFE30BFFDE771
:100EF0002DE9F041224C2046FFF75AFE214D2846AD
:100F0000FFF756FE204E3046FFF752FE286820F0CD
:100F10007C0040F0040028604FF4165739462846FC
:100F2000FFF780FE286840F001002860686820F024
:100F300040006860206820F07C0040F004002060E1
:100F400039462046FFF76EFE206840F00100206021
:100F5000606820F040006060306820F07C0040F065
:100F60000400306039463046FFF75CFE306840F0E0
:100F700001003060706820F040007060BDE8F081D2
:100F8000000004400040044000000C40D0E9013261
:100F900001699A60D0E901235A604A68824201D10E
:100FA00082684A60002202610868401E086070473B
:100FB00030BF704700F108014FF0FF32C0E9011265
:100FC000C16001610021016070470021016170472B
:100FD00042684A6093688B609368596091600861C9
:100FE0000168491C0160704710B5FFF71DF90448FE
:100FF0000168491CBFF34F8FBFF36F8F016010BDB5
:101000003C00000203490868401E086001D1FFF758
:1010100012B970473C00000210B5040008D000F07F
:1010200049F82046FFF76CF9BDE8104000F094B98C
:1010300010BD000006484FF47A710068B0FBF1F172
:101040004FF0E020491E4161072101617047000017
:101050004000000204494FF080500860BFF34F8FFA
:10106000BFF36F8F7047000004ED00E01FB5002450
:10107000009401940294234680220AA10B48039411
:1010800000F05AF801280BD1FFF7CEF80848611E8E
:10109000816201214161C460BDE81F4000F034B8A5
:1010A0001FBD000049444C4500000000590E0000DF
:1010B000040000020248C16A491CC1627047000076
:1010C000040000020E48C16A11B10121C1617047DC
:1010D0000021C16101690B4AB1FA81F1C1F11F011F
:1010E00001EB810102EB810101F108034A685268BA
:1010F0004A609A4201D152684A60D16801607047E3
:101100000400000244000002094810B5016841F0E3
:1011100078710160016841F060410160FFF78AFF6A
:10112000044900200860FFF74DF8002010BD0000C2
:1011300020ED00E03C0000022DE9FF5F8A46DDE97A
:101140000F9091000E9F9B461546884610B90846A1
:10115000FFF7A3FE060018D06020FFF79EFE0400F4
:10116000304610D0A52241462063FFF7B8F86FF053
:10117000030101EB8501206B3D46084420F0070880
:101180005146002004E0FFF747FF4FF0FF3481E0B5
:1011900022180B5C82F834300A5C12B1401C14280F
:1011A000F6D3002684F84760082D00D30725E562B2
:1011B000C4E91456201DFFF708FF04F11800FFF7DB
:1011C00004FF2461C5F108016462A161A66584F889
:1011D0005C605A4640460099FFF76CFE2060B9F10A
:1011E000000F01D0C9F80040FFF7FEFE2B4DA868A4
:1011F000401CA8602868DFF8A88010B1686940B377
:101200002CE02C60A868012828D1002606EB860176
:1012100008EB8100FFF7CEFE761C082EF6D320489F
:10122000A030FFF7C7FE1E48B430FFF7C3FE1C48CE
:10123000C830FFF7BFFE1A48DC30FFF7BBFE184886
:10124000F030FFF7B7FE1648A0302863143068630B
:1012500004E02868C06AB84200D82C60686A01219E
:10126000401C6862A064E06A2A69814011432961D8
:1012700000EB800108EB8100211DFFF7A9FE01248E
:10128000FFF7C0FE686928B12868C06AB84201D279
:10129000FFF7E0FE04B02046BDE8F09F0400000226
:1012A000440000022DE9F041294C0026E06A40B1DB
:1012B000A069401CA061E06900B101263046BDE88C
:1012C000F081E068401CE060E76847B9206B616B23
:1012D00021636063206A401C2062FFF7CBFDA06A97
:1012E000DFF87080874209D3206B006880B1206BE3
:1012F000C068C568686887420DD2A0622068C06A6D
:1013000000EB800158F821000128D4D90126D2E74A
:101310004FF0FF30F1E7281DFFF738FEA86A18B13B
:1013200005F11800FFF732FEE86A012122698140C9
:101330001143216100EB800108EB8100291DFFF7BB
:1013400047FEE86A2168C96A8842CDD30126CBE707
:1013500004000002440000022DE9F0470027FFF7D7
:1013600043FE234CE06A401EE062E06A98BBA1683D
:10137000204E012079B3A6F1C80980463068E8B153
:10138000F068C56805F11800FFF700FE281DFFF79B
:10139000FDFDE96A226908FA01F01043206101EBC2
:1013A000810109EB8100291DFFF712FEE86A21681F
:1013B000C96A8842E2D3C4F81C80DFE7A06958B14B
:1013C0004546A06940B1FFF76DFF00B1E561A06936
:1013D000401EA061F5E705E0E069012802D1012780
:1013E000FFF738FEFFF70EFE3846BDE8F087000035
:1013F000040000020C010002696E7465727275705F
:10140000742062617365642074696D65722074690B
:10141000636B200D0A000000001BB7000080000075
:10142000190301000001010101010104060807057B
:101430000102040810000000705A016800900000CA
:10144000001980000003800001018000000280007C
:10145000001E800000118000001980000101800042
:101460000017800000168000000B8000001F800025
:101470000103000000040000000500000007000058
:101480000008000000090000000A000001048000BC
:10149000010580000106800001078000010880002E
:1014A000000D800000128000000B8000001F8000F3
:1014B000010B8800D414000000000002440000006A
:1014C00038010000181500004400000264640000A8
:1014D00054010000000000000000000000000000B7
:1014E00000000000000000000000000000000000FC
:1014F00000000000000000000000000000000000EC
:1015000000000000000000000000000000000000DB
:08151000AAAAAAAA000000002B
:04000005000000FDFA
:00000001FF
