:020000040000FA
:10000000A8640002450200004D0200004F020000FB
:1000100000000000000000000000000000000000E0
:10002000000000000000000000000000A10100002E
:100030000000000000000000E5010000750D000058
:100040005902000059020000590200005902000044
:100050005902000059020000590200005902000034
:100060005902000059020000590200005902000024
:100070005902000059020000590200005902000014
:100080005902000059020000590200005902000004
:1000900059020000590200005902000059020000F4
:1000A00059020000590200005902000059020000E4
:1000B00059020000590200005902000059020000D4
:1000C00059020000590200005902000059020000C4
:1000D00059020000590200005902000059020000B4
:1000E00059020000590200005902000059020000A4
:1000F00059020000590200005902000000F002F805
:1001000000F03EF80AA090E8000C82448344AAF173
:100110000107DA4501D100F033F8AFF2090EBAE871
:100120000F0013F0010F18BFFB1A43F0010318472B
:10013000EC1300000C140000103A24BF78C878C1FA
:10014000FAD8520724BF30C830C144BF04680C60DD
:10015000704700000023002400250026103A28BF25
:1001600078C1FBD8520728BF30C148BF0B60704729
:100170001FB59DE8030000F079F91FBD10B510BD53
:1001800000F01EFA1146FFF7F3FF00F02DFE00F01D
:100190003CFA03B4FFF7F2FF03BC00F013FE0000CB
:1001A000204B19680868B0E8F00F80F30988BFF3A6
:1001B0006F8F4FF0000080F311884EF00D0E7047E6
:1001C0000000000006480068006880F3088862B6F6
:1001D00061B6BFF34F8FBFF36F8F00DF00BF00BF6B
:1001E00008ED00E0EFF30980BFF36F8F0D4B1A6845
:1001F00020E9F00F106008B54FF0A00080F31188DF
:1002000000F0A4FF4FF0000080F31188BDE8084023
:1002100019680868B0E8F00F80F30988BFF36F8FA2
:10022000704700BF00000002EFF311804FF0A00103
:1002300081F31188704780F311887047EFF30580D0
:10024000704700000848804708480047FEE7FEE77F
:10025000FEE7FEE7FEE7FEE7FEE70000044805498B
:10026000054A064B70470000A90D0000FD00000084
:10027000A8610002A8640002A8620002A86200024D
:1002800070B5064600F036F8056806F10B0020F060
:100290000704B4429CBF002070BD2B466A68BAB107
:1002A0001068A04210D304F1080188423CBF506896
:1002B000586007D35168101941601168091B01602B
:1002C00058601460101D70BD13465268002AE7D1B3
:1002D0002146284600F0B6F80028DED170BD02F0B5
:1002E000FF0343EA032242EA024200F0F7B87047F4
:1002F00070477047004870474C610002FFFFFFFFE6
:1003000070B50446051FFFF7F5FF0068002C14BF09
:10031000446870BD002C18BFAC423CBF20466468E6
:10032000F8D301680A18AA4218BF456003D12A68A9
:1003300005461144016028684119A1421CBF6C6048
:1003400070BD6168696021680844286070BD53EA27
:10035000020C00F069802DE9F04B4FF00006002BF5
:100360001FBFB3FA83F503FA05F424FA05F65E40DD
:1003700012BF1643B2FA82F502FA05F4C5F1200560
:100380001EBF22FA05FC44EA0C04203556EA044C50
:100390004FEA144418BF641C4FF000084FF00009E6
:1003A000904271EB030C39D3002919BFB1FA81F7E0
:1003B00001FA07F6B0FA80F700FA07F6C7F120074E
:1003C0001EBF20FA07FC46EA0C062037B6FBF4FCF9
:1003D000A7EB0507103F07F01F0BCBF120060CFA27
:1003E0000BFB2CFA06F644BFB3460026202FA4BF11
:1003F0005E464FF0000B5BEA060C08BF4FF0010BA6
:1004000019EB0B09ABFB027C48EB0608C01B06FB93
:1004100002CC0BFB03CC71EB0C01C1E70B4602468F
:1004200041464846BDE8F08B13B54FF000004FF051
:100430000001AFF30080BDE81C4070477047704773
:100440007047704738B504460A460020694600F0F8
:10045000B2F8002808BF38BD02460099204600F0D7
:1004600061F8012038BD012000F076B8F8B5AFF38F
:100470000080054600200C46102000BF0646A81943
:10048000A0420DD932466946002000F094F80700DA
:1004900008BF00F061F80098A04218BF0546C419D3
:1004A000FFF728FF05600746F01D20F007004619FA
:1004B000284600F00AF8B44208BFF8BDA21B314636
:1004C0003868BDE8F84000F02DB800210160C0E9AF
:1004D00001107047102070474FF000020429C0F04F
:1004E000128010F0030C00F04080CCF1040CBCF141
:1004F000020F18BF00F8012BA8BF20F8022BA1EBB8
:100500000C0100F032B85FEAC17C24BF00F8012B77
:1005100000F8012B48BF00F8012B704700487047D6
:1005200044610002034640688C46002818BF884298
:100530003CBF03464068F8D318681844884207D087
:100540000CF1030020F00700001D411A521A014669
:10055000081D0A60FFF7D4BE10B500F065F8BDE8CD
:10056000104000F05BB84FF0000200B5134694460F
:100570009646203922BFA0E80C50A0E80C50B1F1FB
:100580002001BFF4F7AF090728BFA0E80C5048BF0F
:100590000CC05DF804EB890028BF40F8042B08BFAD
:1005A000704748BF20F8022B11F0804F18BF00F8A9
:1005B000012B7047704710B500F0F8FB10BD704775
:1005C0007546FFF7ABFFAE4605006946534620F07F
:1005D0000700854618B020B5FFF740FEBDE8204073
:1005E0004FF000064FF000074FF000084FF0000BEF
:1005F00021F00701AC46ACE8C009ACE8C009ACE8A2
:10060000C009ACE8C0098D46704710B50446AFF389
:1006100000802046BDE81040FFF7BBBD002801D098
:1006200000F0D0BB7047000010B5012805D00021B4
:1006300003A000F021F8012010BD09A1F8E7000097
:1006400053494752544D454D3A204F7574206F66BB
:100650002068656170206D656D6F72790000000023
:100660003A2048656170206D656D6F727920636F07
:10067000727275707465640070B505460C460A2088
:1006800000E06D1C00F011F835B128780028F8D191
:1006900002E0641C00F009F814B120780028F8D1B9
:1006A000BDE870400A20AFF3008008B569468DF8B8
:1006B00000000320ABBE08BD154810B58021416382
:1006C00081640D220021012000F039FA002112225C
:1006D000084600F034FA00F0B5F8002100F05AF9AD
:1006E0000C4C204600F0AAFA206820F07C0040F074
:1006F000040020604FF4E131204600F0B9FA206890
:1007000040F001002060606820F04000606010BD93
:1007100000800F40000004402DE9F041FFF7CCFFBE
:100720004FF0E054204600F06BF90C4B0021DD1E29
:100730000122585C6E5C04EB800000F500500768F5
:1007400002FA06F637430760585C6E5C04EB401013
:100750008255491C0329ECDBBDE8F0818B140000B5
:1007600010B503280BD2064A054C4FF0E053E41EA7
:10077000125C205C03EB421281F00101115410BDA8
:100780008B14000010B500F029FA0B4C0120C4F8BE
:10079000A4000320012161F39F10C4F8A001C80543
:1007A00000F00EFAD4F8A40110F0010FFAD00120E5
:1007B000C4F8CC0010BD00000040074070B50D200B
:1007C00000F030F80C2000F02DF80D24204600F049
:1007D000BBF9204600F0CAF91D220A490A4800F078
:1007E00025F9084D0024083D35F81410C8B2C1F3AE
:1007F0004122C90A01EB421100F08AF9641C032C62
:10080000F2D370BDA814000000800F4010B5FFF7B0
:10081000D5FFFFF7B7FF02490120C1F8CC0010BD9A
:100820000040074006490122202803D351F8C83F61
:10083000203801E051F8C43F824013430B607047F9
:10084000004007400448D0F8840010F0FF0F01D0AA
:1008500000F01EB800F002B8004007400849002030
:10086000D1F8801011F0FF0105D0012905D002292F
:1008700000D1044870470448704704480068704736
:1008800000400740D8AC0700001BB70080140000F0
:100890000A490020D1F8841011F0FF0108D0012985
:1008A00008D0022908D0032901D105480068704703
:1008B000FFF7D4BF00F028B800F02EB80040074082
:1008C0008414000000F03F02521C01FB02F070474C
:1008D00010F0030003D0012803D000207047024825
:1008E0007047024800687047001BB7008014000082
:1008F00010B5FFF7A7FF0349D1F8C010B0FBF1F026
:1009000010BD0000004007400248D0F8A000FFF7EB
:10091000DFBF00000040074010B5FFF7F5FF0146BC
:100920000348D0F89801BDE81040FFF7CBBF0000A6
:100930000040074070B50E4DD5F8D040B4B1FFF778
:1009400081FFB0FBF4F0D5F82821002192B2D34307
:1009500013F0FF0F09D10902120A41EA10610002E7
:10096000002302F58072FFF7F2FC70BD002070BD1D
:10097000004007400649042804D3001FC0B2C1F854
:100980008400704741F8800F0020486070470000E5
:100990000040074070B50E460446FFF753FF01467E
:1009A000B0FBF4F000B901200D4DC2B2C5F8D02063
:1009B00000227EB104FB101304FB00F2190E180292
:1009C0000023FFF7C4FC0006000C40F0FF00C5F850
:1009D000280101E0C5F82821BDE87040FFF7AABF53
:1009E000004007400549D1F8242100F0030022F41B
:1009F000405242EA0030C1F82401704700400740ED
:100A000010B50E20FFF70EFF0F20FFF70BFF102091
:100A1000FFF708FF0B20FFF705FF0B24204600F02F
:100A200093F82046BDE8104000F0A0B870B5002350
:100A30000BE000BF51F82340E6B2C4F3072500EBFA
:100A4000C616240C46F825405B1C9342F2D370BDB9
:100A500010B500EBC10441F48053C4F80433012302
:100A6000C4F8003300EBC204C4F8003503FA01F106
:100A7000C4F80415846D5200032191408C439340C7
:100A80001C438465426D8A43426510BD70B50D46B6
:100A90000446FFF72DFFB0FBF5F0616841F004114B
:100AA0006160616841F0081161600021E164C4F88F
:100AB0000011C4F800024FF48050C4F80403012070
:100AC000C4F800030148206070BD0000010002006E
:100AD00010B5C0F383301C300446FFF7A3FE204658
:100AE00000F032F82046BDE8104000F03FB80000AA
:100AF00000F01F01C009820004481044D0F8C02152
:100B000001238B409A43C0F8C02170470080034006
:100B10000207520E00098300054810B50344186807
:100B2000FF249440A04391400143196010BD000090
:100B30000080034002EB4111C9B2FFF7E9BF02EBAD
:100B40004111C9B2FFF7E4BF074A0121202805D3AC
:100B5000936C203881400B4393647047536C814001
:100B60000B4353647047000000400740074A0121CF
:100B7000202805D3936C203881408B4393647047C1
:100B8000536C81408B435364704700000040074022
:100B900010B50446FFF7D8FF2046BDE81040FFF728
:100BA000E5BF0000044AD2F80812044B194018406F
:100BB0000843C2F8080270470040074078FFFF0171
:100BC000044AD2F80812044B194018408143C2F875
:100BD000081270470040074078FFFF0138B54FF416
:100BE0000010FFF7EDFF00204FF400710090401C53
:100BF00000908842FBDB104C0120C4F8A000850562
:100C00002846FFF7CFFF0521022060F39F11C4F8AB
:100C100098112846FFF7D4FFD4F89C0110F0010F7B
:100C2000FAD00120C4F8C0000220FFF7DBFEBDE8C7
:100C300038400620FFF79EBE0040074010B504462E
:100C400000F0C2F8FFF7EEFD0748844201D13120E1
:100C500005E00648844201D1322000E03320BDE89F
:100C60001040FFF795BF0000000004400040044022
:100C700070B50D460446FFF75DFE2901B0FBF1F1AA
:100C8000491E216270BD00000027DFF8DCA03E464F
:100C90003C464FF001093D46D0465046FFF718FF4D
:100CA00042F210714046FFF7F1FE01221146404624
:100CB000FFF7CEFE002202214046FFF7C9FED8F81A
:100CC00000020AF104014008C1F8000200200A1DD8
:100CD000C2F80002D8F8040020F00413C8F8043069
:100CE00022484FF47A7C4FF0FF3B0068B0FBFCF0E9
:100CF000401EB0F1807F0BD24FF0E0235861DFF847
:100D00007080E02088F8140D002098610720186199
:100D10006423761C7F1C67450CD30A35642D00DDE7
:100D20000025DAF80002EFB27843B0FBF3F0C1F827
:100D300000020027142E14D314EB090403D5002459
:100D40004FF0010903E0C82C01DDC824D946DAF8C8
:100D50000002E6B27043B0FBF3F04008C2F80002B4
:100D6000002630BFD5E700000080011C3C000002D7
:100D70000FE000E010B5FFF757FA00F0D7FA18B10E
:100D800004494FF080500860BDE810400020FFF794
:100D900052BA000004ED00E010B5FFF7A9FD0149CB
:100DA000086010BD3C000002FFF730BD4FF4C040AA
:100DB000824201D900207047014A0A607047000052
:100DC0004401000230BFFDE70549884201D13120CE
:100DD00070470449884201D1322070473320704760
:100DE00000000440004004401FB5FFF7D5FFFFF7A7
:100DF00093FC00210846FFF7B3FC00F019F800F05F
:100E0000BBF800200121CDE90010029003460390B9
:100E1000802204A1054800F0D3F900F06BF904B07A
:100E2000012010BD4441435465737400890C0000D7
:100E300010B50C20FFF7F6FC1A488021416381644D
:100E40008165C1658161C161002101631820FFF7DF
:100E50004FFE0D2200211220FFF76CFE122200210E
:100E60001120FFF767FE162200210120FFF762FE26
:100E7000002117220846FFF75DFE062200212320ED
:100E8000FFF758FE072200212220FFF753FE1D2105
:100E90007220FFF73DFE1921BDE810407120FFF7D9
:100EA00037BE000000800F4070B5124E124C1AE0A1
:100EB00000F044F93068D0B100F092FA00F0D8F8B0
:100EC000F068C568281D00F0A5F8A068401EA06065
:100ED0006068401E606000F0D9F8286B00F0E0F810
:100EE000284600F0DDF860680028E1D170BD00F010
:100EF00077FAF8E71C01000200000002054C00BF71
:100F0000FFF7D2FF2068012801D900F0E7F800F0D0
:100F100093F8F5E7400000020648016B096829B123
:100F2000016BC968C9684968816270474FF0FF3139
:100F3000FAE7000000000002FFF776F9FEE710B5BF
:100F4000044600F0FBF82046FFF79AF9044600F04B
:100F500047FA204610BD000010B5031F4FF0807403
:100F60001C601B1F1960191F024B0B60143940389D
:100F70000A6010BD390F00002DE9F041224C2046D7
:100F8000FFF75CFE214D2846FFF758FE204E304605
:100F9000FFF754FE286820F07C0040F00400286031
:100FA0004FF4165739462846FFF762FE286840F08E
:100FB00001002860686820F040006860206820F028
:100FC0007C0040F00400206039462046FFF750FEC8
:100FD000206840F001002060606820F04000606000
:100FE000306820F07C0040F0040030603946304624
:100FF000FFF73EFE306840F001003060706820F07E
:1010000040007060BDE8F0810000044000400440F2
:1010100000000C40D0E9013201699A60D0E9012357
:101020005A604A68824201D182684A6000220261A5
:101030000868401E0860704730BF704700F1080123
:101040004FF0FF32C0E90112C1600161002101606F
:10105000704700210161704742684A6093688B6065
:1010600093685960916008610168491C016070478C
:1010700010B5FFF7D9F804480168491C0160BFF3B7
:101080004F8FBFF36F8F10BD38000002034908680F
:10109000401E086001D1FFF7CEB87047380000024B
:1010A00010B5040008D000F049F82046FFF728F9F1
:1010B000BDE8104000F094B910BD000006484FF4A0
:1010C0007A710068B0FBF1F14FF0E020491E4161F8
:1010D00007210161704700003C00000204494FF005
:1010E00080500860BFF34F8FBFF36F8F70470000D1
:1010F00004ED00E01FB500240094019402942346FF
:1011000080220AA10B48039400F05AF801280BD161
:10111000FFF78AF80848611E816201214161C460BD
:10112000BDE81F4000F034B81FBD000049444C45E5
:1011300000000000FD0E0000000000020248C16A2D
:10114000491CC16270470000000000020E48C16ADD
:1011500011B10121C16170470021C16101690B4AD0
:10116000B1FA81F1C1F11F0101EB810102EB8101B3
:1011700001F108034A6852684A609A4201D15268F4
:101180004A60D16801607047000000024000000220
:10119000094810B5016841F078710160016841F0BB
:1011A00060410160FFF78AFF044900200860FFF7F3
:1011B00009F8002010BD000020ED00E0380000021A
:1011C0002DE9FF5F8A46DDE90F9091000E9F9B4657
:1011D0001546884610B90846FFF7B1FE060018D03C
:1011E0006020FFF7ACFE0400304610D0A522414637
:1011F0002063FFF774F86FF0030101EB8501206BAA
:101200003D46084420F007085146002004E0FFF75F
:1012100047FF4FF0FF3481E022180B5C82F8343036
:101220000A5C12B1401C1428F6D3002684F84760EB
:10123000082D00D30725E562C4E91456201DFFF7E9
:1012400008FF04F11800FFF704FF2461C5F108014D
:101250006462A161A66584F85C605A4640460099C4
:10126000FFF77AFE2060B9F1000F01D0C9F8004005
:10127000FFF7FEFE2B4DA868401CA8602868DFF829
:10128000A88010B1686940B32CE02C60A8680128E0
:1012900028D1002606EB860108EB8100FFF7CEFE81
:1012A000761C082EF6D32048A030FFF7C7FE1E4854
:1012B000B430FFF7C3FE1C48C830FFF7BFFE1A4822
:1012C000DC30FFF7BBFE1848F030FFF7B7FE1648DA
:1012D000A03028631430686304E02868C06AB8420C
:1012E00000D82C60686A0121401C6862A064E06A32
:1012F0002A6981401143296100EB800108EB8100DC
:10130000211DFFF7A9FE0124FFF7C0FE686928B17F
:101310002868C06AB84201D2FFF7E0FE04B0204658
:10132000BDE8F09F00000002400000022DE9F041FE
:10133000294C0026E06A40B1A069401CA061E06928
:1013400000B101263046BDE8F081E068401CE06055
:10135000E76847B9206B616B21636063206A401CBA
:101360002062FFF7D9FDA06ADFF87080874209D3B9
:10137000206B006880B1206BC068C56868688742D0
:101380000DD2A0622068C06A00EB800158F82100ED
:101390000128D4D90126D2E74FF0FF30F1E7281D0C
:1013A000FFF738FEA86A18B105F11800FFF732FE02
:1013B000E86A0121226981401143216100EB80012B
:1013C00008EB8100291DFFF747FEE86A2168C96A1A
:1013D0008842CDD30126CBE7000000024000000286
:1013E0002DE9F0470027FFF743FE234CE06A401E3B
:1013F000E062E06A98BBA168204E012079B3A6F1B3
:10140000C80980463068E8B1F068C56805F1180081
:10141000FFF700FE281DFFF7FDFDE96A226908FAC3
:1014200001F01043206101EB810109EB8100291DCE
:10143000FFF712FEE86A2168C96A8842E2D3C4F85D
:101440001C80DFE7A06958B14546A06940B1FFF7AD
:101450006DFF00B1E561A069401EA061F5E705E000
:10146000E069012802D10127FFF738FEFFF70EFEE1
:101470003846BDE8F08700000000000208010002C5
:10148000001BB700008000001903010000010101EA
:10149000010101040608070501020408100000000C
:1014A000705A01680090000000198000000380005D
:1014B0000101800000028000001E800000118000F9
:1014C00000198000010180000017800000168000D4
:1014D000000B8000001F80000103000000040000DA
:1014E00000050000000700000008000000090000DF
:1014F000000A000001048000010580000106800050
:101500000107800001088000000D800000128000AB
:10151000000B8000001F8000010B88003C150000BC
:101520000000000240000000380100007C150000AF
:101530004000000268640000540100000000000048
:10154000000000000000000000000000000000009B
:10155000000000000000000000000000000000008B
:10156000000000000000000000000000000000007B
:0C15700000000000AAAAAAAA00000000C7
:04000005000000FDFA
:00000001FF
