:020000040000FA
:1000000008650002550200005D0200005F0200006A
:1000100000000000000000000000000000000000E0
:10002000000000000000000000000000B10100001E
:100030000000000000000000F50100004512000073
:100040006902000069020000690200006902000004
:1000500069020000690200006902000069020000F4
:1000600069020000690200006902000069020000E4
:1000700069020000690200006902000069020000D4
:1000800069020000690200006902000069020000C4
:1000900069020000690200006902000069020000B4
:1000A00069020000051100006902000069020000F9
:1000B0006902000069020000690200006902000094
:1000C0006902000069020000690200006902000084
:1000D0006902000069020000690200006902000074
:1000E0006902000069020000690200006902000064
:1000F00069020000690200006902000000F002F8D5
:1001000000F046F80AA090E8000C82448344AAF16B
:100110000107DA4501D100F03BF8AFF2090EBAE869
:100120000F0013F0010F18BFFB1A43F0010318472B
:100130009C1A0000BC1A0000103A24BF78C878C18D
:10014000FAD8520724BF30C830C144BF04680C60DD
:10015000704700000023002400250026103A28BF25
:1001600078C1FBD8520728BF30C148BF0B60704729
:10017000642900F0A381782900F0DC810020704719
:100180001FB59DE8030000F021FA1FBD10B510BD9A
:1001900000F04AFB1146FFF7F3FF01F09FF800F073
:1001A00068FB03B4FFF7F2FF03BC01F075F8000031
:1001B000204B19680868B0E8F00F80F30988BFF396
:1001C0006F8F4FF0000080F311884EF00D0E7047D6
:1001D0000000000006480068006880F3088862B6E6
:1001E00061B6BFF34F8FBFF36F8F00DF00BF00BF5B
:1001F00008ED00E0EFF30980BFF36F8F0D4B1A6835
:1002000020E9F00F106008B54FF0A00080F31188CE
:1002100001F0B2FA4FF0000080F31188BDE8084009
:1002200019680868B0E8F00F80F30988BFF36F8F92
:10023000704700BF04000002EFF311804FF0A001EF
:1002400081F31188704780F311887047EFF30580C0
:10025000704700000848804708480047FEE7FEE76F
:10026000FEE7FEE7FEE7FEE7FEE70000044805497B
:10027000054A064B7047000075120000FD000000A3
:1002800008620002086500020863000208630002B9
:1002900070B5064600F02EF8056806F10B0020F058
:1002A0000704B4429CBF002070BD2B466A68BAB1F7
:1002B0001068A04210D304F1080188423CBF506886
:1002C000586007D35168101941601168091B01601B
:1002D00058601460101D70BD13465268002AE7D1A3
:1002E0002146284600F05EF90028DED170BD704737
:1002F0007047704700487047B0610002FFFFFFFF82
:1003000070B50446051FFFF7F5FF0068002C14BF09
:10031000446870BD002C18BFAC423CBF20466468E6
:10032000F8D301680A18AA4218BF456003D12A68A9
:1003300005461144016028684119A1421CBF6C6048
:1003400070BD6168696021680844286070BD53EA27
:10035000020C00F069802DE9F04B4FF00006002BF5
:100360001FBFB3FA83F503FA05F424FA05F65E40DD
:1003700012BF1643B2FA82F502FA05F4C5F1200560
:100380001EBF22FA05FC44EA0C04203556EA044C50
:100390004FEA144418BF641C4FF000084FF00009E6
:1003A000904271EB030C39D3002919BFB1FA81F7E0
:1003B00001FA07F6B0FA80F700FA07F6C7F120074E
:1003C0001EBF20FA07FC46EA0C062037B6FBF4FCF9
:1003D000A7EB0507103F07F01F0BCBF120060CFA27
:1003E0000BFB2CFA06F644BFB3460026202FA4BF11
:1003F0005E464FF0000B5BEA060C08BF4FF0010BA6
:1004000019EB0B09ABFB027C48EB0608C01B06FB93
:1004100002CC0BFB03CC71EB0C01C1E70B4602468F
:1004200041464846BDE8F08B13B54FF000004FF051
:100430000001AFF30080BDE81C4070470FB40449D1
:1004400010B503AA029800F051F910BC5DF814FB36
:10045000400000022DE9F0410E46044600202062D3
:100460002046E168884730B3252805D0D4E901212A
:100470009047206A401CF2E7E16820460027884741
:10048000050018D0A5F14100192802D820354FF4F5
:1004900000673246294620462760FFF769FE40B1D3
:1004A000012804D0F61D26F007060836D8E7361DC9
:1004B000D6E72846DAE7206ABDE8F0812DE9F04169
:1004C0000646002410687529314616A510D0AFF3F2
:1004D0000080002802DA404213A507E031688A074D
:1004E00001D512A502E0490704D511A5012401E0B8
:1004F000AFF3008000210A2206F1240709E0B0FBD7
:10050000F2FCB0FBF2F302FB1C00303078541846CA
:10051000491C0028F3D123462A463046BDE8F04165
:1005200000F08AB8000000002D0000002B00000041
:100530002000000070B504460D4621461068AFF358
:1005400000802188090502D50F4A7A4402E00E4A4C
:100550007A440E32002104F1240305E000F00F0676
:100560000009965D5E54491C0028F7D120780023CD
:10057000000704D5702D02D009B1022311322046A4
:10058000BDE8704000F058B85616000002F0FF03B6
:1005900043EA032242EA024200F0BCB870477047C7
:1005A0007047704738B504460A460020694600F097
:1005B00036F9002808BF38BD02460099204600F0F1
:1005C000CDF8012038BD012000F0FAB8F8B5AFF33E
:1005D0000080054600200C46102000BF0646A819E2
:1005E000A0420DD932466946002000F018F90700F4
:1005F00008BF00F0E5F80098A04218BF0546C419EE
:10060000FFF778FE05600746F01D20F00700461949
:10061000284600F00AF8B44208BFF8BDA21B3146D4
:100620003868BDE8F84000F099B800210160C0E9E1
:1006300001107047102070472DE9F0470D4699468C
:100640009246044600F124080168880604D5E06952
:1006500021F01001216000E00120A84201DD471BCC
:1006600000E00027A1697A1902EB0900081AA061CD
:100670002078C00602D42046AFF30080002608E0B0
:10068000D4E901211AF806009047206A401C761C24
:1006900020624E45F4DB2078C0060AD52046AFF331
:1006A000008006E0D4E9012130209047206A401CF8
:1006B0002062381EA7F10107F4DC07E0D4E901212C
:1006C00018F805009047206A401C2062281EA5F1FA
:1006D0000105F3DC2046AFF300802078000602D548
:1006E0000220BDE8F0870120FBE70000074B70B552
:1006F0000D467B4400F051F80446284600F0D4FD36
:1007000010B14FF0FF3070BD204670BDB90B000036
:100710004FF000020429C0F0128010F0030C00F02A
:100720005880CCF1040CBCF1020F18BF00F8012B6B
:10073000A8BF20F8022BA1EB0C0100F04AB85FEA39
:10074000C17C24BF00F8012B00F8012B48BF00F842
:10075000012B704700487047A861000203464068BB
:100760008C46002818BF88423CBF03464068F8D337
:1007700018681844884207D00CF1030020F00700E5
:10078000001D411A521A0146081D0A60FFF7B8BD44
:1007900001694A1C02610878704700B58FB0CDE945
:1007A00001310021059105497944CDE90310114635
:1007B0006846FFF74FFE0FB000BD0000E5FFFFFFEA
:1007C00010B500F065F8BDE8104000F05BB84FF0E0
:1007D000000200B5134694469646203922BFA0E891
:1007E0000C50A0E80C50B1F12001BFF4F7AF09079D
:1007F00028BFA0E80C5048BF0CC05DF804EB89008E
:1008000028BF40F8042B08BF704748BF20F8022BD0
:1008100011F0804F18BF00F8012B7047704710B5DA
:1008200000F02CFD10BD70477546FFF793FFAE46F4
:1008300005006946534620F00700854618B020B5EC
:10084000FFF714FDBDE820404FF000064FF0000711
:100850004FF000084FF0000B21F00701AC46ACE868
:10086000C009ACE8C009ACE8C009ACE8C0098D46D5
:10087000704710B50446AFF300802046BDE8104035
:10088000FFF78FBC002801D000F006BD70470000C4
:1008900010B5012805D0002103A000F021F80120A7
:1008A00010BD09A1F8E7000053494752544D454D8A
:1008B0003A204F7574206F662068656170206D6501
:1008C0006D6F7279000000003A2048656170206DFC
:1008D000656D6F727920636F7272757074656400F4
:1008E00070B505460C460A2000E06D1C00F011F8BA
:1008F00035B128780028F8D102E0641C00F009F82E
:1009000014B120780028F8D1BDE870400A20AFF378
:10091000008008B569468DF800000320ABBE08BD15
:10092000154810B58021416381640D22002101200A
:1009300000F0C7FA00211222084600F0C2FA00F0C7
:10094000E1F8002100F086F90C4C204600F040FB55
:10095000206820F07C0040F0040020604FF4E1317A
:10096000204600F06FFB206840F0010020606068C6
:1009700020F04000606010BD00800F400000044087
:100980002DE9F041FFF7CCFF4FF0E054204600F096
:1009900097F90C4B0021DD1E0122585C6E5C04EBC4
:1009A000800000F50050076802FA06F6374307603A
:1009B000585C6E5C04EB40108255491C0329ECDB4B
:1009C000BDE8F081131B000010B503280BD2064AC6
:1009D000054C4FF0E053E41E125C205C03EB421226
:1009E00081F00101115410BD131B00000749074B92
:1009F0004FF0E052DB1E095C185C0123834002EBE0
:100A0000810000F50050C0F800337047131B000050
:100A100010B500F0ADFA0B4C0120C4F8A40003207F
:100A2000012161F39F10C4F8A001C80500F092FAFB
:100A3000D4F8A40110F0010FFAD00120C4F8CC00C2
:100A400010BD00000040074070B50D2000F04AF8CE
:100A50000C2000F047F80D24204600F037FA20461D
:100A600000F046FA1D220A490A4800F045F9084DEF
:100A70000024083D35F81410C8B2C1F34122C90A58
:100A800001EB421100F000FA641C032CF2D370BD9C
:100A9000301B000000800F4010B5FFF7D5FFFFF7B7
:100AA000B7FF02490120C1F8CC0010BD004007404B
:100AB00001B501226946024800F0B2FA08BD000003
:100AC0000000044006490122202803D351F8C83F02
:100AD000203801E051F8C43F824093430B607047D7
:100AE0000040074006490122202803D351F8C83F9F
:100AF000203801E051F8C43F824013430B60704737
:100B0000004007400448D0F8840010F0FF0F01D0E7
:100B100000F01EB800F002B800400740084900206D
:100B2000D1F8801011F0FF0105D0012905D002296C
:100B300000D1044870470448704704480068704773
:100B400000400740D8AC0700001BB700081B00009E
:100B50000A490020D1F8841011F0FF0108D00129C2
:100B600008D0022908D0032901D105480068704740
:100B7000FFF7D4BF00F028B800F02EB800400740BF
:100B80000C1B000000F03F02521C01FB02F07047FA
:100B900010F0030003D0012803D000207047024862
:100BA0007047024800687047001BB700081B000030
:100BB00010B5FFF7A7FF0349D1F8C010B0FBF1F063
:100BC00010BD0000004007400248D0F8A000FFF729
:100BD000DFBF00000040074010B5FFF7F5FF0146FA
:100BE0000348D0F89801BDE81040FFF7CBBF0000E4
:100BF0000040074070B50E4DD5F8D040B4B1FFF7B6
:100C000081FFB0FBF4F0D5F82821002192B2D34344
:100C100013F0FF0F09D10902120A41EA1061000224
:100C2000002302F58072FFF792FB70BD002070BDBB
:100C3000004007400649042804D3001FC0B2C1F891
:100C40008400704741F8800F002048607047000022
:100C50000040074070B50E460446FFF753FF0146BB
:100C6000B0FBF4F000B901200D4DC2B2C5F8D020A0
:100C700000227EB104FB101304FB00F2190E1802CF
:100C80000023FFF764FB0006000C40F0FF00C5F8EE
:100C9000280101E0C5F82821BDE87040FFF7AABF90
:100CA000004007400549D1F8242100F0030022F458
:100CB000405242EA0030C1F824017047004007402A
:100CC00010B50E20FFF70EFF0F20FFF70BFF1020CF
:100CD000FFF708FF0B20FFF705FF0B24204600F06D
:100CE000F5F82046BDE8104000F002B910B500EB61
:100CF000C11444F8223010BD70B500230BE000BFD2
:100D000051F82340E6B2C4F3072500EBC616240CC5
:100D100046F825405B1C9342F2D370BD0A7802F07E
:100D20000F02426042684B7803F00F0342EA03125D
:100D3000426042688B7803F00F0342EA032242606C
:100D4000C978002906D04268491E01F00F0142EA25
:100D50000131416070470000084910B5884204D154
:100D60002A20FFF7BFFE2A2003E02920FFF7BAFE62
:100D70002920BDE8104000F0D6B8000000C00440B3
:100D800001F03F01012A01D001617047C2680A43A6
:100D9000C260704770B585680C46064615F00C0FAA
:100DA00003D00C20B060002070BD606848B9A06816
:100DB0000028606920D040F40012217E304600F007
:100DC00057F8A06800284FEA857018D0002807DA85
:100DD00021696068884203D22146304600F0BDF99F
:100DE000E80707D0D4E90301884203D22146304600
:100DF00000F0AAF9012070BD40F4C002DDE7002830
:100E0000F8DA216960688842F4D22146304600F061
:100E1000B8F9EFE7521E03F4702302F00F0243EA21
:100E200002620A4342F440118161704710B50268C2
:100E300002F00102002A05D0026840F6BC7302EA03
:100E4000030202604A788B784C6842EA03020B780E
:100E500043EA040342EA03020260098941624FF057
:100E6000BC01816003D0016841F00101016010BD47
:100E7000044B1A40491E01F00F0142EA0161016270
:100E80007047000000007F0F0207520E0009830028
:100E9000054810B503441868FF249440A0439140CE
:100EA0000143196010BD00000080034070B5064684
:100EB0000C46154605EB4410C1B23046FFF7E4FF7F
:100EC00070BD02EB4111C9B2FFF7DEBF074A012135
:100ED000202805D3936C203881400B4393647047DE
:100EE000536C81400B43536470470000004007403F
:100EF000074A0121202805D3936C203881408B4379
:100F000093647047536C81408B4353647047000077
:100F10000040074010B50446FFF7D8FF2046BDE863
:100F20001040FFF7E5BF10B50446FFF7CFFF20469E
:100F3000BDE81040FFF7DCBF044AD2F80812044BAA
:100F4000194018400843C2F80802704700400740A3
:100F500078FFFF01044AD2F80812044B19401840E8
:100F60008143C2F8081270470040074078FFFF0134
:100F700038B54FF40010FFF7EDFF00204FF400717B
:100F80000090401C00908842FBDB104C0120C4F80C
:100F9000A00085052846FFF7CFFF0521022060F35A
:100FA0009F11C4F898112846FFF7D4FFD4F89C018C
:100FB00010F0010FFAD00120C4F8C0000220FFF7A2
:100FC00071FEBDE838400620FFF734BE0040074000
:100FD00010B5044600F072F9FFF784FD074884421B
:100FE00001D1312005E00648844201D1322000E0E1
:100FF0003320BDE81040FFF78DBF00000000044023
:101000000040044010B50346002003E011F8014BF6
:10101000DC61401C904202DA9C686407F6D410BD83
:10102000F0B51546074600260C4607E02A4621463D
:101030003846FFF7E7FF2D1A06440444002DF5DC7F
:101040003046F0BD70B50D460446FFF7D3FD2901CB
:10105000B0FBF1F1491E216270BD000010B50C20FB
:10106000FFF740FD80230E2200211448FFF73EFECB
:1010700080230C2200211148FFF738FE80231C2218
:1010800000210E48FFF732FE80231B2200210B486F
:10109000FFF72CFE0E213120FFF7F6FE0C21322047
:1010A000FFF7F2FE1C213320FFF7EEFE1B2140204C
:1010B000FFF7EAFE0C20FFF705FD10BD00800F4092
:1010C00070B504460D4600200C490860084684604F
:1010D0000D83042008614FF46020486100204860BF
:1010E000C8600748FFF756FE08B900F0D7F801229C
:1010F0000F210348FFF744FE70BD000048000002C6
:101100000080044010B500BF0C48806A04460C48BB
:10111000C0680B490969884206D209490748FFF7A8
:1011200039FE30B900F0BAF800220F210348FFF76A
:1011300027FE00200349086010BD00000080044025
:1011400048000002000000024069D1E9022322F8B1
:101150001300C868401CC860704710B50C460B6986
:10116000D4E900125B1E31F812109A4204D1227E9B
:101170006369FFF74FFE00E0C1616068401C60607A
:1011800010BD10B5D1E900230C6932F81320641E9C
:10119000A3420DD10B7E4C695B1E04F4702403F056
:1011A0000F0344EA0363134343F4E002826100E067
:1011B000C2614868401C486010BD000000F052F851
:1011C000FFF7DEFB00F0ACF800F004FA002108465F
:1011D000FFF7FAFBFFF742FF00F0D2F919200028D1
:1011E00009DB00F01F02012191404209920002F147
:1011F000E022C2F8001100BF13E020210948FFF7E8
:101200005FFF002408E0074830F81420214606A0BC
:10121000FFF714F9601CC4B2042CF4DB0020FFF7C4
:10122000E5FBEAE76400000253504920526561641F
:1012300020446174612025642069732025780D0A9B
:101240000000000010B5FEF7F7FF00F05FFB18B1DB
:101250004FF08050024908600020FEF7F4FF10BDF7
:1012600004ED00E010B5FFF7A3FC0149086010BDD4
:101270004400000210B5FFF70FFC10BD0346B2F5A5
:10128000C04F01D900207047024808604FF4C040A9
:10129000F9E70000A801000230BFFDE701210020AE
:1012A000FFF792FB00BFFEE74FF0FF30704710B52D
:1012B000C0B2FFF7FDFB002010BD000005498842C9
:1012C00001D1312070470449884201D13220704752
:1012D0003320704700000440004004401FB500F078
:1012E00025F900F01DF800F075F900200123CDE983
:1012F000003002900346802204A10390074800F0CA
:1013000085FA00F007FA012004B010BD765461732D
:101310006B535049536C617665000000BD110000AD
:1013200010B58023062200210948FFF7DFFC802347
:10133000072200210648FFF7D9FC062200210120E0
:10134000FFF7B4FD072200210846FFF7AFFD10BDEF
:1013500000800F402DE9F04105460F461FB9A80057
:1013600000F0F2F800E03846064656B1602000F082
:10137000EBF804460CB1266304E0304600F0A2F915
:1013800000E0002424B1A900A522206BFFF7FEF89D
:101390002046BDE8F081000070B523E000F0E4F9DC
:1013A0001348006808B9012000E00020054600F05D
:1013B0003DFBBDB900F066F90D48C068C468201D4A
:1013C00000F02EF90B480068401E0A4908600A48E0
:1013D0000068401E0849086000F064F9204600F0EB
:1013E0000DF800BF044800680028D7D170BD000088
:1013F00080010002140000021000000210B5044633
:10140000206B00F05FF9204600F05CF910BD000091
:1014100000BFFFF7C1FF04480068012801D900F0B0
:101420006DF900F011F9F4E7A40000022DE9F0478E
:1014300004460F4615469946DDF82080002607E051
:10144000B95D04F134008155B85D00B902E0761C45
:10145000142EF5D300BF002147200155082D00D3DD
:101460000725E562256500206065201D00F0FBF87A
:1014700004F1180000F0F7F82461C5F10800A0613C
:1014800064620020A06584F85C00BDE8F08700007D
:1014900010B5002407E004EB84010F4A02EB810041
:1014A00000F0D4F8641C082CF5D30C4800F0CEF8FA
:1014B0000B4800F0CBF80B4800F0C8F80A4800F0E1
:1014C000C5F80A4800F0C2F8044809490860044811
:1014D0000849086010BD0000A40000024401000299
:1014E000580100026C010002800100029401000218
:1014F000080000020C0000020A490968096809B9DD
:10150000012100E0002121B14FF0FF31064A1160B6
:1015100006E004490968C968C868034A416811605F
:1015200070470000080000023400000210B5FFF709
:1015300099FEFFF725FA00210846FFF745FA10BD8E
:10154000FEF77AFE00BFFEE770B5044600F00CF926
:101550002046FEF79DFE054600F068FA284670BD5D
:10156000001F4FF080730360001F0160001F034BDA
:1015700003601438026020387047000041150000F5
:101580001FB51348FFF7E8FB0020ADF80C008DF8FD
:1015900004008DF805008DF80600029001A90C48A2
:1015A000FFF744FC00208DF800008DF801008DF855
:1015B00002008DF8030069460548FFF7AFFB00BF46
:1015C0000348006840F001000149086000BF1FBDEA
:1015D0000080044010B51148FFF7FAFC04200F4AC0
:1015E000126822F07C0141EA00020C4B1A6000BF35
:1015F0004FF416511846FFF725FD00BF0748006855
:1016000040F001000549086000BF00BF084640687F
:1016100020F04000486000BF10BD00000000044002
:1016200001460A69D1E901309860D1E901035860A7
:101630005068884201D188685060002008611068B5
:10164000401E10601068704730BF704700F10801FD
:1016500041604FF0FF31816000F10801C16001611C
:1016600000210160704700210161704742684A60B3
:1016700093688B60936859609160086103685B1C94
:101680000360704710B5FEF7D7FD05480068401CA1
:1016900003490860BFF34F8FBFF36F8F10BD000089
:1016A0003C00000210B506480068401E044908606E
:1016B0000846006810B90020FEF7C5FD10BD000007
:1016C0003C00000210B5044634B100F04DF820464D
:1016D000FEF716FE00F0AAF910BD000006480068EB
:1016E0004FF47A71B0FBF1F0401E4FF0E0214861F9
:1016F0000720086170470000440000024FF080504E
:1017000003490860BFF34F8FBFF36F8F704700002E
:1017100004ED00E01FB50020009001900290034608
:1017200080220BA103900C4800F070F80446012CB5
:101730000CD1FEF781FDA01E084908600120084970
:10174000086000200749086000F046F81FBD00004F
:1017500049444C4500000000111400003400000210
:10176000200000021800000202480068401C0149E5
:1017700008607047380000021248006818B1012064
:10178000114908601DE000200F4908600F480068FB
:10179000B0FA80F0C0F11F0101EB81020C4B03EBAA
:1017A000820042685268426000F108024368934236
:1017B00002D14268526842604268D268054B1A60A2
:1017C00000BF704738000002280000021C00000221
:1017D000A40000020400000210B50A48006840F0AE
:1017E0007870084908600846006840F0604008606A
:1017F000FFF774FF002004490860FEF7EBFC0020AF
:1018000010BD000020ED00E03C0000022DE9FF4F7C
:1018100081B0804615469946DDE90E7A2846109932
:10182000FFF798FD0446002C52D0681E216B01EB97
:10183000800B2BF0070B00953A462046119B02992E
:10184000FFF7F4FD4A4641465846FFF789FE2060FF
:10185000BAF1000F01D0CAF80040FFF713FF254886
:101860000068401C234908602348006840B92248AA
:1018700004600846006801280CD1FFF709FE09E062
:101880001E48006830B91C480068C06AB84201D8D8
:10189000194804601A480068401C19490860084645
:1018A0000068A06494F82C1001208840154909684C
:1018B000084314490860E16A01EB8101124A02EB16
:1018C0008100211DFFF7D2FE0126FFF7EBFE01E0AC
:1018D0004FF0FF36012E09D10848006830B10648A4
:1018E0000068C06AB84201D2FFF708FF304605B071
:1018F000BDE8F08F14000002040000022000000286
:10190000300000021C000002A40000022DE9F0419A
:1019100000273B480068002865D13A480068401C11
:1019200038490860084606688EB93748D0F8008004
:1019300036480068344908603448C0F800803448AC
:101940000068401C32490860FFF7D6FD00BF3148EF
:10195000006886423BD300BF2B480068006808B986
:10196000012000E0002020B14FF0FF30294908603D
:101970002CE025480068C068C4686568AE4202D2A1
:101980002448056022E0201DFFF74AFEA06A18B136
:1019900004F11800FFF744FE94F82C100120884051
:1019A0001D49096808431C490860E16A01EB81018F
:1019B0001A4A02EB8100211DFFF758FE1849E06A20
:1019C0000968C96A8842C7D30127C5E700BF144820
:1019D0000068C06A00EB8000104951F8200001281F
:1019E00006D9012704E00F480068401C0D49086033
:1019F0000D48006800B101273846BDE8F0810000BD
:101A00003800000218000002080000020C0000026A
:101A10002C000002340000021C000002A40000029E
:101A200004000002240000022800000270B5002516
:101A3000FFF728FE2C480068401E2B490860084626
:101A4000006800284BD129480068002847D024E0CE
:101A50002748C068C46804F11800FFF7E1FD201DA5
:101A6000FFF7DEFD94F82C10012088402149096819
:101A7000084320490860E16A01EB81011E4A02EB3C
:101A80008100211DFFF7F2FD1C49E06A0968C96A5F
:101A9000884202D301201A4908601548006808B935
:101AA000012000E000200028D2D01648006878B15C
:101AB0000AE0FFF72BFF10B101201149086011481F
:101AC0000068401E0F4908600E4800680028F0D1E9
:101AD0000B480068012802D10125FFF70FFEFFF730
:101AE000E1FD284670BD000038000002140000022D
:101AF0006C0100021C000002A400000204000002AD
:101B00002800000224000002001BB7000080000033
:101B10001903010000010101010101040608070584
:101B20000102040810000000705A016800900000D3
:101B30000019800000038000010180000002800085
:101B4000001E80000011800000198000010180004B
:101B50000017800000168000000B8000001F80002E
:101B60000103000000040000000500000007000061
:101B70000008000000090000000A000001048000C5
:101B80000105800001068000010780000108800037
:101B9000000D800000128000000B8000001F8000FC
:101BA000010B880030313233343536373839414211
:101BB00043444546403058003031323334353637AF
:101BC000383961626364656640307800EC1B000060
:101BD000000000024800000038010000341C000032
:101BE00048000002C0640000540100000000000032
:101BF00000000000000000000000000000000000E5
:101C000000000000000000000000000000000000D4
:101C100000000000000000000000000000000000C4
:101C20000000000000000000AAAAAAAA000000000C
:041C300000000000B0
:04000005000000FDFA
:00000001FF
