:020000040000FA
:10000000F00B000299010000A1010000A301000013
:1000100000000000000000000000000000000000E0
:10002000000000000000000000000000A50100002A
:100030000000000000000000A7010000D50900003A
:10004000AD010000AD010000AD010000AD010000F8
:10005000AD010000AD010000AD010000AD010000E8
:10006000AD010000AD010000AD010000AD010000D8
:10007000AD010000AD010000AD010000AD010000C8
:10008000AD010000AD010000AD010000AD010000B8
:10009000AD010000AD010000AD010000AD010000A8
:1000A000AD010000AD010000AD0100002905000018
:1000B000AD010000AD010000AD010000AD01000088
:1000C000AD010000AD010000AD010000AD01000078
:1000D000AD010000AD010000AD010000AD01000068
:1000E000AD010000AD010000AD010000AD01000058
:1000F000AD010000AD010000AD01000000F002F80C
:1001000000F03AF80AA090E8000C82448344AAF177
:100110000107DA4501D100F02FF8AFF2090EBAE875
:100120000F0013F0010F18BFFB1A43F0010318472B
:10013000180D0000380D0000103A24BF78C878C1AF
:10014000FAD8520724BF30C830C144BF04680C60DD
:10015000704700000023002400250026103A28BF25
:1001600078C1FBD8520728BF30C148BF0B60704729
:100170001FB51FBD10B510BD00F0F4F81146FFF714
:10018000F7FF00F05BFD00F09FF803B4FFF7F2FF0C
:1001900003BC00F039FC00000848804708480047CD
:1001A000FEE7FEE7FEE7FEE7FEE7FEE7FEE700000C
:1001B00004480549054A064B70470000010A000043
:1001C000FD000000F0080002F00B0002F009000240
:1001D000F009000253EA020C00F069802DE9F04BAF
:1001E0004FF00006002B1FBFB3FA83F503FA05F4A6
:1001F00024FA05F65E4012BF1643B2FA82F502FAFF
:1002000005F4C5F120051EBF22FA05FC44EA0C04E2
:10021000203556EA044C4FEA144418BF641C4FF0D2
:1002200000084FF00009904271EB030C39D300290C
:1002300019BFB1FA81F701FA07F6B0FA80F700FAB0
:1002400007F6C7F120071EBF20FA07FC46EA0C0696
:100250002037B6FBF4FCA7EB0507103F07F01F0B98
:10026000CBF120060CFA0BFB2CFA06F644BFB34682
:100270000026202FA4BF5E464FF0000B5BEA060C61
:1002800008BF4FF0010B19EB0B09ABFB027C48EBED
:100290000608C01B06FB02CC0BFB03CC71EB0C0168
:1002A000C1E70B46024641464846BDE8F08B13B510
:1002B0004FF000004FF00001AFF30080BDE81C409C
:1002C000704770477047704710B50446AFF3008021
:1002D0002046BDE81040FFF758BF000000487047B7
:1002E0008C08000210B500F0F7F800F0D9F80249C8
:1002F0000120C1F8CC0010BD00400740FFFFFFFF08
:1003000010B5203AC0F00B80B1E81850203AA0E8B0
:100310001850B1E81850A0E81850BFF4F5AF5FEAE4
:10032000027C24BFB1E81850A0E8185044BF18C997
:1003300018C0BDE810405FEA827C24BF51F8043B3E
:1003400040F8043B08BF7047D20728BF31F8023B92
:1003500048BF11F8012B28BF20F8023B48BF00F826
:10036000012B70477546FFF7B9FFAE460500694699
:10037000534620F00700854618B020B5FFF718FF58
:10038000BDE820404FF000064FF000074FF0000896
:100390004FF0000B21F00701AC46ACE8C009ACE817
:1003A000C009ACE8C009ACE8C0098D467047000040
:1003B000154810B58021416381640D220021012080
:1003C00000F062FA00211222084600F05DFA00F007
:1003D0003DF9002100F0E2F90C4C204600F0D4FA7F
:1003E000206820F07C0040F0040020604FF4E131F0
:1003F000204600F0E3FA206840F0010020606068C9
:1004000020F04000606010BD00800F4000000440FC
:100410002DE9F041FFF7CCFF4FF0E054204600F00B
:10042000F3F90C4B0021DD1E0122585C6E5C04EBDD
:10043000800000F50050076802FA06F637430760AF
:10044000585C6E5C04EB40108255491C0329ECDBC0
:10045000BDE8F081B70D000010B503280BD2064AA5
:10046000054C4FF0E053E41E125C205C03EB42129B
:1004700081F00101115410BDB70D00000749074B71
:100480004FF0E052DB1E095C185C0123834002EB55
:10049000810000F50050C0F800337047B70D000030
:1004A00010B500F041FA0B4C0120C4F8A400032061
:1004B000012161F39F10C4F8A001C80500F026FADD
:1004C000D4F8A40110F0010FFAD00120C4F8CC0038
:1004D00010BD00000040074070B50D2000F0A6F8E8
:1004E0000C2000F0A3F80D24204600F0D3F920469C
:1004F00000F0E2F91D220A490A4800F0A1F9084D6E
:100500000024083D35F81410C8B2C1F34122C90ACD
:1005100001EB421100F0A6F9641C032CF2D370BD6C
:10052000D40D000000800F4010B54FF04070D0F89F
:1005300000028068816802480068884710BD00009A
:100540000800000200F0010121B123490968491C9B
:10055000214A116000F0020121B11F494968491C7C
:100560001D4A516000F0040121B11B498968491CF2
:10057000194A916000F0080121B11749C968491C66
:10058000154AD16000F0100121B113490969491CD5
:10059000114A116100F0200121B10F494969491C3C
:1005A0000D4A516100F0400121B10B498969491C94
:1005B000094A916100F0800121B10749C969491CCC
:1005C000054AD16100F4807121B10349096A491CCF
:1005D000014A1162704700006808000210B5044625
:1005E0000120FFF74BFF084844744FF04070D0F8EB
:1005F00000028068044902690448006890470120AD
:100600000349087010BD00005408000208000002F1
:100610000C00000210B504460220FFF72FFF002057
:100620000149087010BD00000D00000206490122BA
:10063000202803D351F8C83F203801E051F8C43FC7
:10064000824013430B607047004007400448D0F8D5
:10065000840010F0FF0F01D000F01EB800F002B8C7
:100660000040074008490020D1F8801011F0FF0138
:1006700005D0012905D0022900D10448704704485B
:10068000704704480068704700400740D8AC070036
:10069000001BB700AC0D00000A490020D1F88410FF
:1006A00011F0FF0108D0012908D0022908D0032940
:1006B00001D1054800687047FFF7D4BF00F028B8A3
:1006C00000F02EB800400740B00D000000F03F02DF
:1006D000521C01FB02F0704710F0030003D0012808
:1006E00003D00020704702487047024800687047F6
:1006F000001BB700AC0D000010B5FFF7A7FF0349C2
:10070000D1F8C010B0FBF1F010BD00000040074070
:100710000248D0F8A000FFF7DFBF0000004007400C
:1007200010B5FFF7F5FF01460348D0F89801BDE882
:100730001040FFF7CBBF00000040074070B50E4DE2
:10074000D5F8D040B4B1FFF781FFB0FBF4F0D5F895
:100750002821002192B2D34313F0FF0F09D10902DF
:10076000120A41EA10610002002302F58072FFF7CD
:1007700031FD70BD002070BD0040074006490428CF
:1007800004D3001FC0B2C1F88400704741F8800F45
:1007900000204860704700000040074070B50E46DA
:1007A0000446FFF753FF0146B0FBF4F000B9012007
:1007B0000D4DC2B2C5F8D02000227EB104FB10134B
:1007C00004FB00F2190E18020023FFF703FD0006D8
:1007D000000C40F0FF00C5F8280101E0C5F8282111
:1007E000BDE87040FFF7AABF004007400549D1F8B7
:1007F000242100F0030022F4405242EA0030C1F804
:10080000240170470040074010B50E20FFF70EFF8F
:100810000F20FFF70BFF1020FFF708FF0B20FFF75B
:1008200005FF0B24204600F035F82046BDE81040B7
:1008300000F042B810B500EBC11444F8223010BDEE
:1008400070B500230BE000BF51F82340E6B2C4F3BB
:10085000072500EBC616240C46F825405B1C934286
:10086000F2D370BD0207520E00098300054810B58F
:1008700003441868FF249440A04391400143196049
:1008800010BD00000080034002EB4111C9B2FFF728
:10089000E9BF0000074A0121202805D3936C2038C6
:1008A00081400B4393647047536C81400B43536406
:1008B0007047000000400740074A0121202805D367
:1008C000936C203881408B4393647047536C814014
:1008D0008B435364704700000040074010B5044646
:1008E000FFF7D8FF2046BDE81040FFF7E5BF000046
:1008F000044AD2F80812044B194018400843C2F8C1
:10090000080270470040074078FFFF01044AD2F810
:100910000812044B194018408143C2F8081270476E
:100920000040074078FFFF0138B54FF40010FFF793
:10093000EDFF00204FF400710090401C00908842B1
:10094000FBDB104C0120C4F8A00085052846FFF70A
:10095000CFFF0521022060F39F11C4F898112846AB
:10096000FFF7D4FFD4F89C0110F0010FFAD001205A
:10097000C4F8C0000220FFF739FFBDE83840062068
:10098000FFF7FCBE0040074010B5044600F046F9F2
:10099000FFF74CFE0748844201D1312005E00648AC
:1009A000844201D1322000E03320BDE81040FFF73F
:1009B00095BF0000000004400040044070B50D46A3
:1009C0000446FFF7BBFE2901B0FBF1F1491E21628D
:1009D00070BD000004480068401C03490860012005
:1009E0000249087070470000000000020400000285
:1009F00010B5FFF781FE0149086010BD1C00000220
:100A000010B5FFF76FFC10BD30BFFDE7F0B587B044
:100A100006461822444901A8FFF772FC2720FFF779
:100A200005FE27252846FFF735FF2846FFF744FF38
:100A300000BF80230B2200213C48FFF7FBFE8023F0
:100A40001F2200213948FFF7F5FE0B216220FFF736
:100A500009FF1F216120FFF705FF354801900020A5
:100A600034490860304600F06DF801203149886053
:100A70004FF04070D0F800028068016801A88847F4
:100A80000746802F01D900BFFEE74FF04070D0F835
:100A90000002806801A9426827489047044614B1C3
:100AA00000E030BFFDE72548006820F04000234902
:100AB00008600846006840F02000086008460068AA
:100AC00040F0800008600846406940F0100048612E
:100AD0000846006820F00100086016488068012878
:100AE0000ED11B20002809DB00F01F0201219140DC
:100AF0004209920002F1E022C2F8001100BF00BFDB
:100B000001200F494874800208604FF4E06048609B
:100B10004FF04070D0F800028068C2680648006854
:100B2000904707B0F0BD0000940D000000800F401A
:100B300020000002200800020800000200000F4010
:100B40002C0800020146FA2910D004DC642909D0DF
:100B50007D2911D108E0B1F5FA7F09D0B1F57A7F8E
:100B60000AD107E0002009E0012007E0022005E0AB
:100B7000032003E0042001E0002000BF00BF064A7C
:100B800052F83020054B1A60034A02EBC00252684B
:100B90005A60034A118070476C0D00002008000263
:100BA0000E00000270B50446184D607C012802DB7F
:100BB000607C142801DD012070BD00BF1448D0F80E
:100BC0000001627C0121914008400028F6D102E03A
:100BD0006D1E05B903E00F4800780028F8D100BF6A
:100BE00025B900200B4908700220E5E701200949DA
:100BF00008704FF04070D0F80002806821464269CA
:100C00000548006890470020D6E70000A086010054
:100C100000000F400D000002080000020549884254
:100C200001D1312070470449884201D132207047F8
:100C3000332070470000044000400440FFF7D8FE16
:100C4000FFF7E6FB01210020FFF706FC6420FFF719
:100C5000DDFE3D4800680A22B0FBF2F1481EB0F10B
:100C6000807F00D31BE0481E4FF0E02250615017F8
:100C70000722002804DB53071C0E344B1C5406E0EB
:100C800053071D0E324B00F00F04241F1D5500BFEB
:100C900000204FF0E02290610720106100BF062085
:100CA0002C49487440F222700860002048600820F7
:100CB00008745420087245212648417253218172DC
:100CC0005421C172AA21017341738173C173082039
:100CD0002149487440F223700860002048600420D5
:100CE00008741120087222211B484172332181723D
:100CF0004421C17226E01948007840B1002017490C
:100D000008701548C07A401CC1B21348C17214481B
:100D1000007868B10020124908700E48FFF742FFC2
:100D200004460D48FFF73EFF04460020FFF7A6FBF0
:100D30000C48406800F0800018B10B480088FFF7AD
:100D400065FE00BFD7E700001C00000200E400E0E1
:100D500018ED00E02C080002400800020C00000220
:100D60000400000200000F400E000002010000001D
:100D7000D71B000001000000D11C00000000000093
:100D8000D11C000000000000C81C00000000000092
:100D9000C50900000000000000000F40200800020C
:100DA000100000020000000000000000001BB7005F
:100DB000008000001903010000010101010101048C
:100DC000060807050102040810000000705A0168B7
:100DD00000900000001980000003800001018000E5
:100DE00000028000001E80000011800000198000B9
:100DF000010180000017800000168000000B8000B9
:100E0000001F800001030000000400000005000036
:100E1000000700000008000000090000000A0000B0
:100E200001048000010580000106800001078000A8
:100E300001088000000D800000128000000B80007F
:100E4000001F8000010B8800680E000000000002F7
:100E50002000000038010000880E00002000000281
:100E6000D00B000054010000000000000000000052
:100E70000000000000000000DD0500001506000075
:080E8000450500000000000020
:04000005000000FDFA
:00000001FF
