:020000040000FA
:10000000086500024D020000550200005702000082
:1000100000000000000000000000000000000000E0
:10002000000000000000000000000000A901000026
:100030000000000000000000ED010000611200005F
:100040006102000061020000610200006102000024
:100050006102000061020000610200006102000014
:100060006102000061020000610200006102000004
:1000700061020000610200006102000061020000F4
:1000800061020000610200006102000061020000E4
:1000900061020000610200006102000061020000D4
:1000A00061020000610200006102000061020000C4
:1000B00061020000610200006102000061020000B4
:1000C00061020000610200006102000061020000A4
:1000D0006102000061020000610200006102000094
:1000E0006102000061020000610200006102000084
:1000F00061020000610200006102000000F002F8ED
:1001000000F043F80AA090E8000C82448344AAF16E
:100110000107DA4501D100F038F8AFF2090EBAE86C
:100120000F0013F0010F18BFFB1A43F0010318472B
:10013000441F0000641F0000103A24BF78C878C133
:10014000FAD8520724BF30C830C144BF04680C60DD
:10015000704700000023002400250026103A28BF25
:1001600078C1FBD8520728BF30C148BF0B60704729
:10017000642900F0A381002070471FB59DE80300AB
:1001800000F0F4F91FBD10B510BD00F01DFB1146C5
:10019000FFF7F3FF01F0FCF800F03BFB03B4FFF7BF
:1001A000F2FF03BC01F086F8204B19680868B0E83C
:1001B000F00F80F30988BFF36F8F4FF0000080F3DA
:1001C00011884EF00D0E70470000000006480068D0
:1001D000006880F3088862B661B6BFF34F8FBFF343
:1001E0006F8F00DF00BF00BF08ED00E0EFF3098074
:1001F000BFF36F8F0D4B1A6820E9F00F106008B540
:100200004FF0A00080F3118801F0CAFB4FF000000E
:1002100080F31188BDE8084019680868B0E8F00F5D
:1002200080F30988BFF36F8F704700BF4C00000256
:10023000EFF311804FF0A00181F31188704780F334
:1002400011887047EFF30580704700000848804729
:1002500008480047FEE7FEE7FEE7FEE7FEE7FEE7A9
:10026000FEE7000004480549054A064B70470000B8
:1002700091120000FD000000086200020865000203
:10028000086300020863000270B5064600F052F9E8
:10029000056806F10B0020F00704B4429CBF002063
:1002A00070BD2B466A68BAB11068A04210D304F141
:1002B000080188423CBF5068586007D35168101944
:1002C00041601168091B016058601460101D70BD09
:1002D00013465268002AE7D12146284600F032F939
:1002E0000028DED170BD02F0FF0343EA032242EA98
:1002F000024200F0DFB9704770477047FFFFFFFF11
:1003000070B50446051F00F015F90068002C14BFF5
:10031000446870BD002C18BFAC423CBF20466468E6
:10032000F8D301680A18AA4218BF456003D12A68A9
:1003300005461144016028684119A1421CBF6C6048
:1003400070BD6168696021680844286070BD53EA27
:10035000020C00F069802DE9F04B4FF00006002BF5
:100360001FBFB3FA83F503FA05F424FA05F65E40DD
:1003700012BF1643B2FA82F502FA05F4C5F1200560
:100380001EBF22FA05FC44EA0C04203556EA044C50
:100390004FEA144418BF641C4FF000084FF00009E6
:1003A000904271EB030C39D3002919BFB1FA81F7E0
:1003B00001FA07F6B0FA80F700FA07F6C7F120074E
:1003C0001EBF20FA07FC46EA0C062037B6FBF4FCF9
:1003D000A7EB0507103F07F01F0BCBF120060CFA27
:1003E0000BFB2CFA06F644BFB3460026202FA4BF11
:1003F0005E464FF0000B5BEA060C08BF4FF0010BA6
:1004000019EB0B09ABFB027C48EB0608C01B06FB93
:1004100002CC0BFB03CC71EB0C01C1E70B4602468F
:1004200041464846BDE8F08B13B54FF000004FF051
:100430000001AFF30080BDE81C4070470FB40449D1
:1004400010B503AA029800F021F910BC5DF814FB66
:10045000880000022DE9F0410E460446002020628B
:100460002046E168884730B3252805D0D4E901212A
:100470009047206A401CF2E7E16820460027884741
:10048000050018D0A5F14100192802D820354FF4F5
:1004900000673246294620462760FFF769FE40B1D3
:1004A000012804D0F61D26F007060836D8E7361DC9
:1004B000D6E72846DAE7206ABDE8F0812DE9F04169
:1004C0000646002410687529314616A510D0AFF3F2
:1004D0000080002802DA404213A507E031688A074D
:1004E00001D512A502E0490704D511A5012401E0B8
:1004F000AFF3008000210A2206F1240709E0B0FBD7
:10050000F2FCB0FBF2F302FB1C00303078541846CA
:10051000491C0028F3D123462A463046BDE8F04165
:1005200000F05AB8000000002D0000002B00000071
:100530002000000000487047AC610002704770471F
:100540007047704738B504460A460020694600F0F7
:1005500036F9002808BF38BD02460099204600F051
:10056000CDF8012038BD012000F0FAB8F8B5AFF39E
:100570000080054600200C46102000BF0646A81942
:10058000A0420DD932466946002000F018F9070054
:1005900008BF00F0E5F80098A04218BF0546C4194E
:1005A000FFF7C8FF05600746F01D20F00700461959
:1005B000284600F00AF8B44208BFF8BDA21B314635
:1005C0003868BDE8F84000F099B800210160C0E942
:1005D00001107047102070472DE9F0470D469946ED
:1005E0009246044600F124080168880604D5E069B3
:1005F00021F01001216000E00120A84201DD471B2D
:1006000000E00027A1697A1902EB0900081AA0612D
:100610002078C00602D42046AFF30080002608E010
:10062000D4E901211AF806009047206A401C761C84
:1006300020624E45F4DB2078C0060AD52046AFF391
:10064000008006E0D4E9012130209047206A401C58
:100650002062381EA7F10107F4DC07E0D4E901218C
:1006600018F805009047206A401C2062281EA5F15A
:100670000105F3DC2046AFF300802078000602D5A8
:100680000220BDE8F0870120FBE70000074B70B5B2
:100690000D467B4400F051F80446284600F00CFE5D
:1006A00010B14FF0FF3070BD204670BD290C000026
:1006B0004FF000020429C0F0128010F0030C00F08B
:1006C0005880CCF1040CBCF1020F18BF00F8012BCC
:1006D000A8BF20F8022BA1EB0C0100F04AB85FEA9A
:1006E000C17C24BF00F8012B00F8012B48BF00F8A3
:1006F000012B704700487047A46100020346406820
:100700008C46002818BF88423CBF03464068F8D397
:1007100018681844884207D00CF1030020F0070045
:10072000001D411A521A0146081D0A60FFF7E8BD74
:1007300001694A1C02610878704700B58FB0CDE9A5
:1007400001310021059105497944CDE90310114695
:100750006846FFF77FFE0FB000BD0000E5FFFFFF1A
:1007600010B500F065F8BDE8104000F05BB84FF040
:10077000000200B5134694469646203922BFA0E8F1
:100780000C50A0E80C50B1F12001BFF4F7AF0907FD
:1007900028BFA0E80C5048BF0CC05DF804EB8900EE
:1007A00028BF40F8042B08BF704748BF20F8022B31
:1007B00011F0804F18BF00F8012B7047704710B53B
:1007C00000F06AFD10BD70477546FFF793FFAE4617
:1007D00005006946534620F00700854618B020B54D
:1007E000FFF740FDBDE820404FF000064FF0000746
:1007F0004FF000084FF0000B21F00701AC46ACE8C9
:10080000C009ACE8C009ACE8C009ACE8C0098D4635
:10081000704710B50446AFF300802046BDE8104095
:10082000FFF7BCBC002801D000F044BD70470000B9
:1008300010B5012805D0002103A000F021F8012007
:1008400010BD09A1F8E7000053494752544D454DEA
:100850003A204F7574206F662068656170206D6561
:100860006D6F7279000000003A2048656170206D5C
:10087000656D6F727920636F727275707465640054
:1008800070B505460C460A2000E06D1C00F011F81A
:1008900035B128780028F8D102E0641C00F009F88E
:1008A00014B120780028F8D1BDE870400A20AFF3D9
:1008B000008008B569468DF800000320ABBE08BD76
:1008C00010B588B0AA2001900024162002AB0122A6
:1008D00001A90090772000F0A7FC02A9601C085C29
:1008E000095D40EA012000B23D490880A41C02A92C
:1008F000601C085C095D40EA012000B239490880AB
:10090000A41C02A9601C085C095D40EA012000B239
:1009100035490880A41C02A9601C085C095D40EAF6
:10092000012032490880A41C02A9601C085C095DF2
:1009300040EA01202E490880A41C02A9601C085C22
:10094000095D40EA01202B490880A41C02A9601C13
:10095000085C095D40EA012000B227490880A01C1C
:10096000C4B202A9601C085C095D40EA012000B223
:1009700022490880A01CC4B202A9601C085C095D61
:1009800040EA012000B21E490880A01CC4B202A99E
:10099000601C085C095D40EA012000B2194908802A
:1009A000A01CC4B202A9601C085C095D40EA0120D9
:1009B00000B2154908801548808970B90846B0F919
:1009C00000000090064801780748B0F9003005485B
:1009D000B0F900200EA0FFF731FD08B010BD0000F7
:1009E00004000002060000020800000214000002D9
:1009F00016000002180000020A0000020C000002AB
:100A00000E0000021000000212000002900000021E
:100A100043616C6962726174696F6E20434F3A2062
:100A200025642C2025642C25642C256420200D0AA7
:100A300000000000154810B58021416381640D223B
:100A40000021012000F099FA00211222084600F04E
:100A500094FA00F0BFF8002100F064F90C4C204635
:100A600000F00AFB206820F07C0040F004002060C9
:100A70004FF4E131204600F039FB206840F00100DE
:100A80002060606820F04000606010BD00800F4072
:100A9000000004402DE9F041FFF7CCFF4FF0E05497
:100AA000204600F075F90C4B0021DD1E0122585C38
:100AB0006E5C04EB800000F50050076802FA06F651
:100AC00037430760585C6E5C04EB40108255491C4C
:100AD0000329ECDBBDE8F081E31F000010B503281B
:100AE0000BD2064A054C4FF0E053E41E125C205C2A
:100AF00003EB421281F00101115410BDE31F00000D
:100B000010B500F089FA0B4C0120C4F8A4000320B2
:100B1000012161F39F10C4F8A001C80500F06EFA2E
:100B2000D4F8A40110F0010FFAD00120C4F8CC00D1
:100B300010BD00000040074070B50D2000F03AF8ED
:100B40000C2000F037F80D24204600F01BFA204658
:100B500000F02AFA1D220A490A4800F0CFF9084D90
:100B60000024083D35F81410C8B2C1F34122C90A67
:100B700001EB421100F0E4F9641C032CF2D370BDC8
:100B80000020000000800F4010B5FFF7D5FFFFF7F1
:100B9000B7FF02490120C1F8CC0010BD004007405A
:100BA00001B501226946024800F08EFA08BD000036
:100BB0000000044006490122202803D351F8C83F11
:100BC000203801E051F8C43F824013430B60704766
:100BD000004007400448D0F8840010F0FF0F01D017
:100BE00000F01EB800F002B800400740084900209D
:100BF000D1F8801011F0FF0105D0012905D002299C
:100C000000D10448704704487047044800687047A2
:100C100000400740D8AC0700001BB700D81F0000F9
:100C20000A490020D1F8841011F0FF0108D00129F1
:100C300008D0022908D0032901D10548006870476F
:100C4000FFF7D4BF00F028B800F02EB800400740EE
:100C5000DC1F000000F03F02521C01FB02F0704755
:100C600010F0030003D0012803D000207047024891
:100C70007047024800687047001BB700D81F00008B
:100C800010B5FFF7A7FF0349D1F8C010B0FBF1F092
:100C900010BD0000004007400248D0F8A000FFF758
:100CA000DFBF00000040074010B5FFF7F5FF014629
:100CB0000348D0F89801BDE81040FFF7CBBF000013
:100CC0000040074070B50E4DD5F8D040B4B1FFF7E5
:100CD00081FFB0FBF4F0D5F82821002192B2D34374
:100CE00013F0FF0F09D10902120A41EA1061000254
:100CF000002302F58072FFF72AFB70BD002070BD53
:100D0000004007400649042804D3001FC0B2C1F8C0
:100D10008400704741F8800F002048607047000051
:100D20000040074070B50E460446FFF753FF0146EA
:100D3000B0FBF4F000B901200D4DC2B2C5F8D020CF
:100D400000227EB104FB101304FB00F2190E1802FE
:100D50000023FFF7FCFA0006000C40F0FF00C5F886
:100D6000280101E0C5F82821BDE87040FFF7AABFBF
:100D7000004007400549D1F8242100F0030022F487
:100D8000405242EA0030C1F8240170470040074059
:100D900010B50E20FFF70EFF0F20FFF70BFF1020FE
:100DA000FFF708FF0B20FFF705FF0B24204600F09C
:100DB000E9F82046BDE8104000F0F6B870B50D46E1
:100DC0000446FFF707FF0146606980B2401C684394
:100DD000B1FBF0F14808A1EB5101891E801E01F022
:100DE000070100F0070041EA0010606270BD8162F7
:100DF0007047FF228A81502242600A8942B1002254
:100E0000897B42EA4101C9B28162022101627047D5
:100E10000122F5E730B50D460446FFF7EAFF6068AA
:100E200010F0010FFBD02946204600F003F80028FF
:100E3000F5D030BDF0B54268D30603D505228A81CE
:100E4000102204E0530604D503228A814022426026
:100E500033E0D2074FF0010338D042680025C2F3D7
:100E6000420604220224052E30D2DFE806F02603D3
:100E7000102B2D00866A4C68671C4F6026704C89C9
:100E8000641E2404240C4C8115D0036215E00E89E5
:100E900046B10A68541C0C60127882620A89521E9C
:100EA0000A81F2E74E8936B18A7B03EB4202D2B265
:100EB0008262046201E08D8102628889FF2807D086
:100EC0000120F0BD8C81F7E78A81F5E78B81F7E798
:100ED0000020F0BD10B52D20FFF76CFE2D2420461C
:100EE00000F050F82046BDE8104000F05DB810B5A5
:100EF00000EBC11444F8223010BD000070B500238F
:100F00000BE000BF51F82340E6B2C4F3072500EB25
:100F1000C616240C46F825405B1C9342F2D370BDE4
:100F200000F01F01C009820004481044D0F8C0211D
:100F300001238B409A43C0F8C021704700800340D2
:100F40000207520E00098300054810B503441868D3
:100F5000FF249440A04391400143196010BD00005C
:100F60000080034070B506460C46154605EB44105C
:100F7000C1B23046FFF7E4FF70BD02EB4111C9B2C8
:100F8000FFF7DEBF074A0121202805D3936C2038E4
:100F900081400B4393647047536C81400B4353640F
:100FA0007047000000400740074A0121202805D370
:100FB000936C203881408B4393647047536C81401D
:100FC0008B435364704700000040074010B504464F
:100FD000FFF7D8FF2046BDE81040FFF7E5BF00004F
:100FE000044AD2F80812044B194018400843C2F8CA
:100FF000080270470040074078FFFF01044AD2F81A
:101000000812044B194018408143C2F80812704777
:101010000040074078FFFF0138B54FF40010FFF79C
:10102000EDFF00204FF400710090401C00908842BA
:10103000FBDB104C0120C4F8A00085052846FFF713
:10104000CFFF0521022060F39F11C4F898112846B4
:10105000FFF7D4FFD4F89C0110F0010FFAD0012063
:10106000C4F8C0000220FFF785FEBDE83840062026
:10107000FFF748BE0040074010B5044600F026F9CF
:10108000FFF798FD0748844201D1312005E006486A
:10109000844201D1322000E03320BDE81040FFF748
:1010A00095BF0000000004400040044010B5034616
:1010B000002003E011F8014BDC61401C904202DA91
:1010C0009C686407F6D410BDF0B5154607460026A7
:1010D0000C4607E02A4621463846FFF7E7FF2D1A5F
:1010E00006440444002DF5DC3046F0BD70B50D46D5
:1010F0000446FFF7E7FD2901B0FBF1F1491E21622B
:1011000070BD000010B58023162200210748FFF7AC
:10111000EEFE8023172200210448FFF7E8FE84201A
:10112000FFF7FEFE8320FFF7FBFE10BD00800F409F
:101130002DE9FE430024F427F6200190F4212948EC
:10114000FFF755FE2E212748FFF751FE00BF00E0B4
:10115000641CB4F57A7FFBDB022002AB012201A9FB
:101160000090772000F060F89DF809009DF80810C5
:1011700040EA01201C490880084601881BA0FFF7AF
:101180005DF9194800881D490988401A1C490988D9
:101190004843C0031B4908601B48B0F90000C00267
:1011A00009681A4AB2F90020114490FBF1F018497D
:1011B0000860144800680968084416490860084631
:1011C0000068083000F0A4FE8046134900F0C2FD1C
:1011D000064600F081FE0546294610A0FFF72EF9CD
:1011E000BDE8FE83000005401A00000220556E5441
:1011F0003A202564200D200A00000000180000029B
:10120000160000021C000002100000021200000282
:10121000200000022C0000020000204341543A202C
:101220002564200D0A0000002DE9F04104460D461A
:1012300017461E46DDF818800748847300200649CB
:10124000888108460781A0F80A8005604660034847
:10125000FFF7E0FDBDE8F0819000000200000540CE
:1012600010B5FEF7E5FF00F077FC18B14FF08050A5
:10127000024908600020FEF7E2FF10BD04ED00E027
:1012800010B5FFF7FDFC0149086010BD8C0000029D
:1012900010B5FFF779FC10BD0346B2F5C04F01D978
:1012A00000207047024808604FF4C040F9E7000092
:1012B000A401000230BFFDE74FF0FF30704710B5CA
:1012C000C0B2FFF76DFC002010BD00000549884248
:1012D00001D1312070470449884201D13220704742
:1012E000332070470000044000400440FFF7C8FF6F
:1012F000FFF7D0FB00F0A8F800F024FA0021084620
:10130000FFF7ECFBFFF7FEFE00F0F8F918200028CD
:1013100007DB00F01F0201219140194A430942F8FE
:10132000231000BF174800680A22B0FBF2F1481EE4
:10133000B0F1807F00D31BE0481E4FF0E0225061E7
:1013400050170722002804DB53071C0E0E4B1C54B9
:1013500006E053071D0E0D4B00F00F04241F1D5512
:1013600000BF00204FF0E02290610720106100BF15
:1013700004E0FFF7A5FAFFF7DBFE30BFF9E7000056
:1013800080E100E08C00000200E400E018ED00E0E5
:101390001FB500F089F900F057F800F0D3F90020EC
:1013A0000123CDE9003002900346802216A103906C
:1013B000184800F051FB00200123CDE900300290D5
:1013C0000346802214A10390164800F045FB00203C
:1013D0000123CDE9003002900346802212A1039040
:1013E000144800F039FB00200123CDE900300290C1
:1013F0000346802210A10390124800F02DFB00F05C
:101400009DFA012004B010BD765461736B4C656485
:1014100031000000BD170000765461736B4C6564A9
:1014200032000000D5170000765461736B5561726D
:1014300074000000011A0000766932635461736B16
:1014400000000000ED12000010B5802306220021EC
:101450000948FFF74CFD8023072200210648FFF7CB
:1014600046FD062200210120FFF77CFD0722002116
:101470000846FFF777FD10BD00800F4010B5044609
:101480000E48006844600E480068844207D20B484A
:101490000168091D0B48006800F0B8F90CE0074826
:1014A0000168091D0848006800F0B0F907480068A5
:1014B000844201D20548046010BD00004C000002C7
:1014C0006000000254000002500000027C00000294
:1014D0002DE9F04105460F461FB9A80000F0F2F8CB
:1014E00000E03846064656B1602000F0EBF80446AE
:1014F0000CB1266304E0304600F0CEF900E0002491
:1015000024B1A900A522206BFEF7EDFE2046BDE820
:10151000F081000070B523E000F03AFA134800684B
:1015200008B9012000E00020054600F0A5FBBDB988
:1015300000F092F90D48C068C468201D00F028F939
:101540000B480068401E0A4908600A480068401EAF
:101550000849086000F090F9204600F00DF800BF3F
:10156000044800680028D7D170BD00007C0100024B
:101570005C0000025800000210B50446206B00F029
:101580008BF9204600F088F910BD000000BFFFF77E
:10159000C1FF04480068012801D900F099F900F062
:1015A0000BF9F4E7A00000022DE9F04704460F46CE
:1015B00015469946DDF82080002607E0B95D04F164
:1015C00034008155B85D00B902E0761C142EF5D3C5
:1015D00000BF002147200155082D00D30725E562F3
:1015E000256500206065201D00F00DF904F118004C
:1015F00000F009F92461C5F10800A06164620020CF
:10160000A06584F85C00BDE8F087000010B50024F8
:1016100007E004EB84010F4A02EB810000F0E6F8DA
:10162000641C082CF5D30C4800F0E0F80B4800F0DF
:10163000DDF80B4800F0DAF80A4800F0D7F80A485D
:1016400000F0D4F8044809490860044808490860D3
:1016500010BD0000A0000002400100025401000281
:10166000680100027C0100029001000250000002AB
:10167000540000020A490968096809B9012100E01B
:10168000002121B14FF0FF31064A116006E0044904
:101690000968C968C868034A41681160704700005A
:1016A000500000027C00000210B5FFF7E9FDFFF7D3
:1016B000F1F900210846FFF711FA10BDFEF7B8FD59
:1016C00000BFFEE770B5044600F062F92046FEF761
:1016D000DBFD054600F0D0FA284670BD001F4FF034
:1016E00080730360001F0160001F034B0360143808
:1016F0000260203870470000BD16000010B50F488A
:10170000FFF7E8FBB42030B1B0F5803F03D8411EAD
:101710000A4A516102E00021084A516100BF0849AC
:101720000648FFF74BFB00BF0448006800F01F00AD
:1017300040F001000149086000BF10BD00000540F5
:10174000A086010010B51148FFF796FC04200F4A4F
:10175000126822F07C0141EA00020C4B1A6000BFC3
:101760004FF416511846FFF7C1FC00BF0748006848
:1017700040F001000549086000BF00BF084640680E
:1017800020F04000486000BF10BD00000000044091
:1017900001460A69D1E901309860D1E90103586036
:1017A0005068884201D18868506000200861106844
:1017B000401E10601068704730BF7047002408E07A
:1017C00021460020FFF78AF984F00104A62000F0EA
:1017D0008BF8F5E7002408E021460120FFF77EF9A9
:1017E00084F00104472000F07FF8F5E700F10801DC
:1017F00041604FF0FF31816000F10801C16001617B
:1018000000210160704700210161704710B5024658
:101810000B685C1C0CB9106907E002F1080000E0DD
:101820004068446824689C42FAD944684C604C681B
:10183000A160886041600A611468641C146010BD76
:1018400042684A6093688B60936859609160086150
:1018500003685B1C0360704710B5FEF7E9FC0548A0
:101860000068401C03490860BFF34F8FBFF36F8FC0
:1018700010BD00008400000210B506480068401E3C
:10188000044908600846006810B90020FEF7D7FC3C
:1018900010BD00008400000210B5044634B100F011
:1018A00077F82046FEF72CFD00F0E6F910BD0000A9
:1018B000064800684FF47A71B0FBF1F0401E4FF01B
:1018C000E021486107200861704700008C00000299
:1018D0004FF0805003490860BFF34F8FBFF36F8F05
:1018E0007047000004ED00E070B504460026DCB14E
:1018F00000F04EF80E48006805190E480068001DFB
:10190000FFF746FF50B90B48006890F82C100120F3
:101910008840094909688143074801602846FFF764
:10192000ADFD00F0A9F906460EB9FFF7D1FF70BD75
:10193000600000024C000002640000021FB500209D
:10194000009001900290034680220BA103900C4866
:1019500000F082F80446012C0CD1FEF769FCA01EB1
:10196000084908600120084908600020074908600C
:1019700000F058F81FBD000049444C45000000002D
:101980008D1500007C00000268000002600000026B
:1019900002480068401C014908607047800000024E
:1019A0001248006818B10120114908601DE00020AC
:1019B0000F4908600F480068B0FA80F0C0F11F01BD
:1019C00001EB81020C4B03EB8200426852684260DB
:1019D00000F108024368934202D1426852684260B3
:1019E0004268D268054B1A6000BF70478000000251
:1019F0007000000264000002A00000024C0000021F
:101A0000002408E0214604A0FEF718FD641C4FF4F2
:101A10007A70FFF769FFF5E75469636B3A20256434
:101A2000200D0A0010B50A48006840F07870084997
:101A300008600846006840F060400860FFF738FF23
:101A4000002004490860FEF7C1FB002010BD000023
:101A500020ED00E0840000022DE9FF4F81B08046B8
:101A600015469946DDE90E7A28461099FFF730FDB4
:101A70000446002C52D0681E216B01EB800B2BF02A
:101A8000070B00953A462046119B0299FFF78CFD03
:101A90004A4641465846FFF721FE2060BAF1000F42
:101AA00001D0CAF80040FFF7D7FE25480068401C67
:101AB000234908602348006840B92248046008466A
:101AC000006801280CD1FFF7A1FD09E01E4800685D
:101AD00030B91C480068C06AB84201D8194804608F
:101AE0001A480068401C1949086008460068A0644C
:101AF00094F82C10012088401549096808431449BE
:101B00000860E16A01EB8101124A02EB8100211DAC
:101B1000FFF796FE0126FFF7AFFE01E04FF0FF361C
:101B2000012E09D10848006830B106480068C06A33
:101B3000B84201D2FFF7CCFE304605B0BDE8F08FC9
:101B40005C0000024C000002680000027800000205
:101B500064000002A00000022DE9F04100273B488C
:101B60000068002865D13A480068401C3849086080
:101B7000084606688EB93748D0F8008036480068B5
:101B8000344908603448C0F8008034480068401C7C
:101B900032490860FFF76EFD00BF31480068864299
:101BA0003BD300BF2B480068006808B9012000E063
:101BB000002020B14FF0FF30294908602CE0254873
:101BC0000068C068C4686568AE4202D224480560F7
:101BD00022E0201DFFF7DCFDA06A18B104F1180017
:101BE000FFF7D6FD94F82C10012088401D490968A4
:101BF00008431C490860E16A01EB81011A4A02EBC3
:101C00008100211DFFF71CFE1849E06A0968C96AB6
:101C10008842C7D30127C5E700BF14480068C06ADF
:101C200000EB8000104951F82000012806D9012757
:101C300004E00F480068401C0D4908600D4800682A
:101C400000B101273846BDE8F081000080000002A5
:101C50006000000250000002540000027400000204
:101C60007C00000264000002A00000024C000002A0
:101C70006C0000027000000270B50025FFF7ECFD5B
:101C80002C480068401E2B49086008460068002860
:101C90004BD129480068002847D024E02748C06875
:101CA000C46804F11800FFF773FD201DFFF770FDF5
:101CB00094F82C10012088402149096808432049E4
:101CC0000860E16A01EB81011E4A02EB8100211DDF
:101CD000FFF7B6FD1C49E06A0968C96A884202D369
:101CE00001201A4908601548006808B9012000E081
:101CF00000200028D2D01648006878B10AE0FFF72B
:101D00002BFF10B101201149086011480068401EE6
:101D10000F4908600E4800680028F0D10B480068A1
:101D2000012802D10125FFF7D3FDFFF7A5FD2846C5
:101D300070BD0000800000025C000002680100022B
:101D400064000002A00000024C00000270000002CB
:101D50006C0000024FF47F0C1CEAD0121EBF1CEA7C
:101D6000D11392EA0C0F93EA0C0F00F0858090EAF1
:101D7000010F48BF42F4807240F4000C41F40000AF
:101D80002CF07F4120F07F4000B58142A2EB03029E
:101D90000FF2081CACEB504EC0F100009EF800E0C2
:101DA0004FEA4E0E00FB0EFC38BF49004FEA2C1CD8
:101DB00002F5FA020CFB0EF34FEACE1E4FEA112C8D
:101DC0004FEAC1210EEB635E42EB22420EFB0CFC9C
:101DD0004FEA1C5300FB03114FEA112C4FEA01316B
:101DE0000EFB0CFC4FEADC4C00FB0C11C14228BF7F
:101DF00009184CEB03335DF804EB10EB410143EBA6
:101E0000C250B2F57C0F38BF704729D512F0F00FE1
:101E10001CBF00F1C04000F0004070470081828389
:101E20008485868788898B8C8D8E8F9192939596E9
:101E300097999A9C9D9FA0A2A3A5A7A8AAACAEB073
:101E4000B2B3B5B7B9BCBEC0C2C5C7C9CCCED1D478
:101E5000D7D9DCDFE2E6E9ECF0F3F7FAFE000000A8
:101E60004FEA400C0CF1807CBCF17E4F28BF7047DC
:101E7000B0F1C04000F0AAB890EA010F0CEAD1130B
:101E800048BF42F48072624538BF634507D213F4FD
:101E90007F0F16D080EA010000F00040704710B5B7
:101EA00000F04EF8097EFC3E00F005B880EA010023
:101EB00000F00040704780EA010000F0004000F0B0
:101EC00085B812F47F0F04BF0248704780EA010012
:101ED00000F07CB80000C07F41000B0ED3F19E02E1
:101EE00008D950F400034FEA032323FA02F048BF55
:101EF0004042704710B500F023F800BF499224809B
:101F0000002070476FF0004282EA20007047000016
:101F100010F0004148BF4042B0FA80F310FA03F2DB
:101F2000C3F19D030BD051EAC35101EB12205306BC
:101F300038BF704700F1010008BF20F00100704772
:101F40000EF1020E2EF0030E5EF8044B244204D470
:101F50004FEA4102B2F17F4F11D84FEA4003B3F18B
:101F60007F4F0CD80ED14FEAD07CB2F17F4F0CEBF3
:101F70004C0C0CF1020C08BF4CEBD17C04E04FF090
:101F8000080C01E04FEAD17C0CEB4C0324FA03F47B
:101F900004F00704B4F1040C06D20EEB840CBDE887
:101FA00010404CF0010C6047DFE80CF0070802021B
:101FB0004FF00040A0F5800010BD0846420018BF59
:101FC000D2F1807288BF00F0004010BDFF2141EACD
:101FD000D050C00570470000001BB7000080000013
:101FE00019030100000101010101010406080705B0
:101FF0000102040810000000705A016800900000FF
:1020000000198000000380000101800000028000B0
:10201000001E800000118000001980000101800076
:102020000017800000168000000B8000001F800059
:10203000010300000004000000050000000700008C
:102040000008000000090000000A000001048000F0
:102050000105800001068000010780000108800062
:10206000000D800000128000000B8000001F800027
:10207000010B880094200000000000029000000086
:102080003801000024210000900000027864000064
:1020900054010000000000000000000000000000EB
:1020A0000000000000000000000000000000000030
:1020B0000000000000000000000000000000000020
:1020C0000000000000000000000000000000000010
:1020D0000000000000000000000000000000000000
:1020E00000000000000000000000000000000000F0
:1020F00000000000000000000000000000000000E0
:1021000000000000000000000000000000000000CF
:102110000000000000000000AAAAAAAA0000000017
:0421200000000000BB
:04000005000000FDFA
:00000001FF
