:020000040000FA
:10000000B06400024D0200005502000057020000DB
:1000100000000000000000000000000000000000E0
:10002000000000000000000000000000A901000026
:100030000000000000000000ED010000F90E0000CB
:100040006102000061020000610200006102000024
:100050006102000061020000610200006102000014
:100060006102000061020000610200006102000004
:1000700061020000610200006102000061020000F4
:1000800061020000610200006102000061020000E4
:1000900061020000610200006102000061020000D4
:1000A00061020000610200006102000061020000C4
:1000B00061020000610200006102000061020000B4
:1000C00061020000610200006102000061020000A4
:1000D000610200006102000061020000590E000090
:1000E0006102000061020000610200006102000084
:1000F00061020000610200006102000000F002F8ED
:1001000000F043F80AA090E8000C82448344AAF16E
:100110000107DA4501D100F038F8AFF2090EBAE86C
:100120000F0013F0010F18BFFB1A43F0010318472B
:100130008C160000AC160000103A24BF78C878C1B5
:10014000FAD8520724BF30C830C144BF04680C60DD
:10015000704700000023002400250026103A28BF25
:1001600078C1FBD8520728BF30C148BF0B60704729
:10017000752900F0A381002070471FB59DE803009A
:1001800000F0F4F91FBD10B510BD00F01DFB1146C5
:10019000FFF7F3FF00F0F4FE00F03BFB03B4FFF7C2
:1001A000F2FF03BC00F0D0FE204B19680868B0E8ED
:1001B000F00F80F30988BFF36F8F4FF0000080F3DA
:1001C00011884EF00D0E70470000000006480068D0
:1001D000006880F3088862B661B6BFF34F8FBFF343
:1001E0006F8F00DF00BF00BF08ED00E0EFF3098074
:1001F000BFF36F8F0D4B1A6820E9F00F106008B540
:100200004FF0A00080F3118801F0F0F84FF00000EB
:1002100080F31188BDE8084019680868B0E8F00F5D
:1002200080F30988BFF36F8F704700BF00000002A2
:10023000EFF311804FF0A00181F31188704780F334
:1002400011887047EFF30580704700000848804729
:1002500008480047FEE7FEE7FEE7FEE7FEE7FEE7A9
:10026000FEE7000004480549054A064B70470000B8
:100270002D0F0000FD000000B0610002B06400021C
:10028000B0620002B062000270B5064600F052F99A
:10029000056806F10B0020F00704B4429CBF002063
:1002A00070BD2B466A68BAB11068A04210D304F141
:1002B000080188423CBF5068586007D35168101944
:1002C00041601168091B016058601460101D70BD09
:1002D00013465268002AE7D12146284600F032F939
:1002E0000028DED170BD02F0FF0343EA032242EA98
:1002F000024200F0DFB9704770477047FFFFFFFF11
:1003000070B50446051F00F015F90068002C14BFF5
:10031000446870BD002C18BFAC423CBF20466468E6
:10032000F8D301680A18AA4218BF456003D12A68A9
:1003300005461144016028684119A1421CBF6C6048
:1003400070BD6168696021680844286070BD53EA27
:10035000020C00F069802DE9F04B4FF00006002BF5
:100360001FBFB3FA83F503FA05F424FA05F65E40DD
:1003700012BF1643B2FA82F502FA05F4C5F1200560
:100380001EBF22FA05FC44EA0C04203556EA044C50
:100390004FEA144418BF641C4FF000084FF00009E6
:1003A000904271EB030C39D3002919BFB1FA81F7E0
:1003B00001FA07F6B0FA80F700FA07F6C7F120074E
:1003C0001EBF20FA07FC46EA0C062037B6FBF4FCF9
:1003D000A7EB0507103F07F01F0BCBF120060CFA27
:1003E0000BFB2CFA06F644BFB3460026202FA4BF11
:1003F0005E464FF0000B5BEA060C08BF4FF0010BA6
:1004000019EB0B09ABFB027C48EB0608C01B06FB93
:1004100002CC0BFB03CC71EB0C01C1E70B4602468F
:1004200041464846BDE8F08B13B54FF000004FF051
:100430000001AFF30080BDE81C4070470FB40449D1
:1004400010B503AA029800F021F910BC5DF814FB66
:10045000400000022DE9F0410E46044600202062D3
:100460002046E168884730B3252805D0D4E901212A
:100470009047206A401CF2E7E16820460027884741
:10048000050018D0A5F14100192802D820354FF4F5
:1004900000673246294620462760FFF769FE40B1D3
:1004A000012804D0F61D26F007060836D8E7361DC9
:1004B000D6E72846DAE7206ABDE8F0812DE9F04169
:1004C0000646002410687529314616A510D0AFF3F2
:1004D0000080002802DA404213A507E031688A074D
:1004E00001D512A502E0490704D511A5012401E0B8
:1004F000AFF3008000210A2206F1240709E0B0FBD7
:10050000F2FCB0FBF2F302FB1C00303078541846CA
:10051000491C0028F3D123462A463046BDE8F04165
:1005200000F05AB8000000002D0000002B00000071
:100530002000000000487047546100027047704777
:100540007047704738B504460A460020694600F0F7
:1005500036F9002808BF38BD02460099204600F051
:10056000CDF8012038BD012000F0FAB8F8B5AFF39E
:100570000080054600200C46102000BF0646A81942
:10058000A0420DD932466946002000F018F9070054
:1005900008BF00F0E5F80098A04218BF0546C4194E
:1005A000FFF7C8FF05600746F01D20F00700461959
:1005B000284600F00AF8B44208BFF8BDA21B314635
:1005C0003868BDE8F84000F099B800210160C0E942
:1005D00001107047102070472DE9F0470D469946ED
:1005E0009246044600F124080168880604D5E069B3
:1005F00021F01001216000E00120A84201DD471B2D
:1006000000E00027A1697A1902EB0900081AA0612D
:100610002078C00602D42046AFF30080002608E010
:10062000D4E901211AF806009047206A401C761C84
:1006300020624E45F4DB2078C0060AD52046AFF391
:10064000008006E0D4E9012130209047206A401C58
:100650002062381EA7F10107F4DC07E0D4E901218C
:1006600018F805009047206A401C2062281EA5F15A
:100670000105F3DC2046AFF300802078000602D5A8
:100680000220BDE8F0870120FBE70000074B70B5B2
:100690000D467B4400F051F80446284600F056FC15
:1006A00010B14FF0FF3070BD204670BDBD08000096
:1006B0004FF000020429C0F0128010F0030C00F08B
:1006C0005880CCF1040CBCF1020F18BF00F8012BCC
:1006D000A8BF20F8022BA1EB0C0100F04AB85FEA9A
:1006E000C17C24BF00F8012B00F8012B48BF00F8A3
:1006F000012B7047004870474C6100020346406878
:100700008C46002818BF88423CBF03464068F8D397
:1007100018681844884207D00CF1030020F0070045
:10072000001D411A521A0146081D0A60FFF7E8BD74
:1007300001694A1C02610878704700B58FB0CDE9A5
:1007400001310021059105497944CDE90310114695
:100750006846FFF77FFE0FB000BD0000E5FFFFFF1A
:1007600010B500F065F8BDE8104000F05BB84FF040
:10077000000200B5134694469646203922BFA0E8F1
:100780000C50A0E80C50B1F12001BFF4F7AF0907FD
:1007900028BFA0E80C5048BF0CC05DF804EB8900EE
:1007A00028BF40F8042B08BF704748BF20F8022B31
:1007B00011F0804F18BF00F8012B7047704710B53B
:1007C00000F0B6FB10BD70477546FFF793FFAE46CD
:1007D00005006946534620F00700854618B020B54D
:1007E000FFF740FDBDE820404FF000064FF0000746
:1007F0004FF000084FF0000B21F00701AC46ACE8C9
:10080000C009ACE8C009ACE8C009ACE8C0098D4635
:10081000704710B50446AFF300802046BDE8104095
:10082000FFF7BCBC002801D000F08EBB7047000071
:1008300010B5012805D0002103A000F021F8012007
:1008400010BD09A1F8E7000053494752544D454DEA
:100850003A204F7574206F662068656170206D6561
:100860006D6F7279000000003A2048656170206D5C
:10087000656D6F727920636F727275707465640054
:1008800070B505460C460A2000E06D1C00F011F81A
:1008900035B128780028F8D102E0641C00F009F88E
:1008A00014B120780028F8D1BDE870400A20AFF3D9
:1008B000008008B569468DF800000320ABBE08BD76
:1008C000154810B58021416381640D22002101206B
:1008D00000F0FDF900211222084600F0F8F900F0BE
:1008E000BFF8002100F064F90C4C204600F06EFACD
:1008F000206820F07C0040F0040020604FF4E131DB
:10090000204600F09DFA206840F0010020606068F9
:1009100020F04000606010BD00800F4000000440E7
:100920002DE9F041FFF7CCFF4FF0E054204600F0F6
:100930007FF90C4B0021DD1E0122585C6E5C04EB3C
:10094000800000F50050076802FA06F6374307609A
:10095000585C6E5C04EB40108255491C0329ECDBAB
:10096000BDE8F0812B17000010B503280BD2064A12
:10097000054C4FF0E053E41E125C205C03EB421286
:1009800081F00101115410BD2B17000010B500F0CB
:10099000EDF90B4C0120C4F8A4000320012161F300
:1009A0009F10C4F8A001C80500F0D2F9D4F8A40142
:1009B00010F0010FFAD00120C4F8CC0010BD0000E7
:1009C0000040074070B50D2000F03AF80C2000F010
:1009D00037F80D24204600F07FF9204600F08EF90C
:1009E0001D220A490A4800F039F9084D0024083D43
:1009F00035F81410C8B2C1F34122C90A01EB421103
:100A000000F04EF9641C032CF2D370BD48170000AF
:100A100000800F4010B5FFF7D5FFFFF7B7FF024981
:100A20000120C1F8CC0010BD0040074001B50122F3
:100A30006946024800F0F2F908BD000000000440D9
:100A400006490122202803D351F8C83F203801E08D
:100A500051F8C43F824013430B6070470040074089
:100A60000448D0F8840010F0FF0F01D000F01EB849
:100A700000F002B80040074008490020D1F880107B
:100A800011F0FF0105D0012905D0022900D1044849
:100A900070470448704704480068704700400740AA
:100AA000D8AC0700001BB700201700000A4900203F
:100AB000D1F8841011F0FF0108D0012908D00229D3
:100AC00008D0032901D1054800687047FFF7D4BF5B
:100AD00000F028B800F02EB80040074024170000AE
:100AE00000F03F02521C01FB02F0704710F00300BF
:100AF00003D0012803D00020704702487047024805
:100B000000687047001BB7002017000010B5FFF702
:100B1000A7FF0349D1F8C010B0FBF1F010BD0000F1
:100B2000004007400248D0F8A000FFF7DFBF0000F8
:100B30000040074010B5FFF7F5FF01460348D0F825
:100B40009801BDE81040FFF7CBBF00000040074010
:100B500070B50E4DD5F8D040B4B1FFF781FFB0FBB2
:100B6000F4F0D5F82821002192B2D34313F0FF0FFF
:100B700009D10902120A41EA10610002002302F5BC
:100B80008072FFF7E4FB70BD002070BD004007409D
:100B90000649042804D3001FC0B2C1F8840070477E
:100BA00041F8800F00204860704700000040074077
:100BB00070B50E460446FFF753FF0146B0FBF4F054
:100BC00000B901200D4DC2B2C5F8D02000227EB17F
:100BD00004FB101304FB00F2190E18020023FFF7A8
:100BE000B6FB0006000C40F0FF00C5F8280101E04C
:100BF000C5F82821BDE87040FFF7AABF00400740B4
:100C000010B54FF4805000F0A3F8BDE810401D204F
:100C1000FFF716BF0549D1F8242100F0030022F4A4
:100C2000405242EA0030C1F82401704700400740BA
:100C300010B50E20FFF704FF0F20FFF701FF102073
:100C4000FFF7FEFE0B20FFF7FBFE0B24204600F013
:100C500043F82046BDE8104000F050B870B50023BE
:100C60000BE000BF51F82340E6B2C4F3072500EBC8
:100C7000C616240C46F825405B1C9342F2D370BD87
:100C800000F01F01C009820004481044D0F8C021C0
:100C900001238B409A43C0F8C02170470080034075
:100CA0000207520E00098300054810B50344186876
:100CB000FF249440A04391400143196010BD0000FF
:100CC0000080034002EB4111C9B2FFF7E9BF02EB1C
:100CD0004111C9B2FFF7E4BF074A0121202805D31B
:100CE000936C203881400B4393647047536C814070
:100CF0000B4353647047000000400740074A01213E
:100D0000202805D3936C203881408B43936470472F
:100D1000536C81408B435364704700000040074090
:100D200010B50446FFF7D8FF2046BDE81040FFF796
:100D3000E5BF0000044AD2F80812044B19401840DD
:100D40000843C2F8080270470040074078FFFF01DF
:100D5000044AD2F80812044B194018408143C2F8E3
:100D6000081270470040074078FFFF0138B54FF484
:100D70000010FFF7EDFF00204FF400710090401CC1
:100D800000908842FBDB104C0120C4F8A0008505D0
:100D90002846FFF7CFFF0521022060F39F11C4F81A
:100DA00098112846FFF7D4FFD4F89C0110F0010FEA
:100DB000FAD00120C4F8C0000220FFF72BFFBDE8E5
:100DC00038400620FFF7E4BE0040074010B5044657
:100DD00000F0C6F8FFF734FE0748844201D1312005
:100DE00005E00648844201D1322000E03320BDE80E
:100DF0001040FFF795BF0000000004400040044091
:100E000010B50346002003E011F8014BDC61401CE3
:100E1000904202DA9C686407F6D410BDF0B515461E
:100E2000074600260C4607E02A4621463846FFF7CB
:100E3000E7FF2D1A06440444002DF5DC3046F0BDD2
:100E400070B50D460446FFF783FE2901B0FBF1F1B2
:100E5000491E216270BD000070B54FF040256868E2
:100E600010F0010F11D0094C2068401C206021684F
:100E700007A0FFF7E3FA2068B0F5805F01D30020F8
:100E8000206020680005000C286070BD3C00000256
:100E90002575200A0D0000004FF040242046FFF782
:100EA000AFFE134D002028604FF4FA66FFF72EFEC8
:100EB000B0FBF6F0401E80B2A0606068C0F30C008A
:100EC00040F0400060606068C0F30C0040F08000BB
:100ED0006060606841F6FD71084060602868000548
:100EE000000C206003498020C1F8000130BFFDE7FD
:100EF0003C00000204E000E010B5FFF799F900F0B3
:100F000065FB18B104494FF080500860BDE81040FF
:100F10000020FFF794B9000004ED00E010B5FFF7E2
:100F2000F5FD0149086010BD44000002FFF772BDE5
:100F30004FF4C040824201D900207047014A0A6044
:100F4000704700004C01000230BFFDE74FF0FF305A
:100F5000704710B5C0B2FFF769FD002010BD00005A
:100F60000549884201D1312070470449884201D1A6
:100F70003220704733207047000004400040044096
:100F80007FB5FFF7CBFFFFF7CBFC00210846FFF74B
:100F9000EBFC00F03DF800F0EDF800240125CDE970
:100FA00000540294234680220EA11148039400F0BD
:100FB00057FACDE900540294002380220DA1104875
:100FC000039400F04DFACDE90054029400238022EE
:100FD0000CA10E48039400F043FA00F0DBF904B0D2
:100FE000012070BD765461736B4C65643100000064
:100FF00039120000765461736B4C65643200000056
:101000004F1200004441435465737400990E000070
:10101000164810B58021416381648165C165816195
:10102000C161002101631820FFF72AFE0D22002173
:101030001220FFF747FE122200211120FFF742FE87
:10104000162200210120FFF73DFE0021172208464D
:10105000FFF738FE062200212320FFF733FE072288
:101060000021BDE810402220FFF72CBE00800F4079
:1010700070B50B4C054620684560E06821688542E4
:1010800005D2606BBDE87040091D00F0F9B8206B17
:10109000091D00F0F5F8A06A854200D2A56270BD76
:1010A0000000000270B5124E124C1AE000F096F9E2
:1010B0003068D0B100F0E4FA00F006F9F068C568D5
:1010C000281D00F0A5F8A068401EA0606068401EC2
:1010D000606000F007F9286B00F00EF9284600F078
:1010E0000BF960680028E1D170BD00F0C9FAF8E79B
:1010F0002401000200000002054C00BFFFF7D2FFF0
:101100002068012801D900F015F900F093F8F5E7FF
:10111000480000020648016B096829B1016BC968E3
:10112000C9684968816270474FF0FF31FAE70000F3
:1011300000000002FFF77CF8FEE710B5044600F05F
:101140004DF92046FFF7A0F8044600F099FA204632
:1011500010BD000010B5031F4FF080741C601B1FF2
:101160001960191F024B0B60143940380A6010BD1A
:10117000351100002DE9F041224C2046FFF726FEF4
:10118000214D2846FFF722FE204E3046FFF71EFE77
:10119000286820F07C0040F0040028604FF41657C7
:1011A00039462846FFF74CFE286840F001002860C9
:1011B000686820F040006860206820F07C0040F003
:1011C0000400206039462046FFF73AFE206840F0D0
:1011D00001002060606820F040006060306820F00E
:1011E0007C0040F00400306039463046FFF728FEAE
:1011F000306840F001003060706820F0400070609E
:10120000BDE8F081000004400040044000000C40B4
:10121000D0E9013201699A60D0E901235A604A6835
:10122000824201D182684A60002202610868401E41
:101230000860704730BF7047002421460220FFF746
:1012400093FB84F00104A62000F080F8F5E7002469
:1012500021460120FFF788FB84F00104472000F0BD
:1012600075F8F5E700F108014FF0FF32C0E901120F
:10127000C160016100210160704700210161704778
:1012800030B50B685A1C02D000F1080202E0026976
:1012900004E02246546825689D42FAD953684B60A1
:1012A00099608A60516008610168491C016030BD25
:1012B00042684A6093688B609368596091600861E6
:1012C0000168491C0160704710B5FEF7B1FF044882
:1012D0000168491C0160BFF34F8FBFF36F8F10BDD2
:1012E0003800000203490868401E086001D1FEF77B
:1012F000A6BF70473800000210B5040008D000F007
:101300006DF82046FEF7FCFFBDE8104000F0B8B9CC
:1013100010BD000006484FF47A710068B0FBF1F18F
:101320004FF0E020491E4161072101617047000034
:101330004400000204494FF080500860BFF34F8F13
:10134000BFF36F8F7047000004ED00E070B502003E
:1013500018D000F043F80E4CE06885182068001D96
:10136000FFF756FF38B9206890F82C10012088400C
:101370002169814321612846FFF77AFE00F080F958
:10138000002803D1BDE87040FFF7D4BF70BD000056
:10139000000000021FB5002400940194029423462B
:1013A00080220AA10B48039400F05AF801280BD1BF
:1013B000FEF73EFF0848611E816201214161C46061
:1013C000BDE81F4000F034B81FBD000049444C4543
:1013D00000000000F9100000000000020248C16A8D
:1013E000491CC16270470000000000020E48C16A3B
:1013F00011B10121C16170470021C16101690B4A2E
:10140000B1FA81F1C1F11F0101EB810102EB810110
:1014100001F108034A6852684A609A4201D1526851
:101420004A60D16801607047000000024800000275
:10143000094810B5016841F078710160016841F018
:1014400060410160FFF766FF044900200860FEF775
:10145000BDFE002010BD000020ED00E038000002BD
:101460002DE9FF5F8A46DDE90F9091000E9F9B46B4
:101470001546884610B90846FFF75FFE060018D0EB
:101480006020FFF75AFE0400304610D0A5224146E6
:101490002063FEF728FF6FF0030101EB8501206B4D
:1014A0003D46084420F007085146002004E0FFF7BD
:1014B00023FF4FF0FF3481E022180B5C82F83430B8
:1014C0000A5C12B1401C1428F6D3002684F8476049
:1014D000082D00D30725E562C4E91456201DFFF747
:1014E000CCFE04F11800FFF7C8FE2461C5F1080125
:1014F0006462A161A66584F85C605A464046009922
:10150000FFF728FE2060B9F1000F01D0C9F80040B4
:10151000FFF7DAFE2B4DA868401CA8602868DFF8AA
:10152000A88010B1686940B32CE02C60A86801283D
:1015300028D1002606EB860108EB8100FFF792FE1A
:10154000761C082EF6D32048A030FFF78BFE1E48ED
:10155000B430FFF787FE1C48C830FFF783FE1A48F7
:10156000DC30FFF77FFE1848F030FFF77BFE1648AF
:10157000A03028631430686304E02868C06AB84269
:1015800000D82C60686A0121401C6862A064E06A8F
:101590002A6981401143296100EB800108EB810039
:1015A000211DFFF785FE0124FFF79CFE686928B125
:1015B0002868C06AB84201D2FFF7BCFE04B02046DA
:1015C000BDE8F09F00000002480000022DE9F04154
:1015D000294C0026E06A40B1A069401CA061E06986
:1015E00000B101263046BDE8F081E068401CE060B3
:1015F000E76847B9206B616B21636063206A401C18
:101600002062FFF787FDA06ADFF87080874209D368
:10161000206B006880B1206BC068C568686887422D
:101620000DD2A0622068C06A00EB800158F821004A
:101630000128D4D90126D2E74FF0FF30F1E7281D69
:10164000FFF7E6FDA86A18B105F11800FFF7E0FD05
:10165000E86A0121226981401143216100EB800188
:1016600008EB8100291DFFF723FEE86A2168C96A9B
:101670008842CDD30126CBE70000000248000002DB
:101680002DE9F0470027FFF71FFE234CE06A401EBC
:10169000E062E06A98BBA168204E012079B3A6F110
:1016A000C80980463068E8B1F068C56805F11800DF
:1016B000FFF7AEFD281DFFF7ABFDE96A226908FAC6
:1016C00001F01043206101EB810109EB8100291D2C
:1016D000FFF7EEFDE86A2168C96A8842E2D3C4F8E0
:1016E0001C80DFE7A06958B14546A06940B1FFF70B
:1016F0006DFF00B1E561A069401EA061F5E705E05E
:10170000E069012802D10127FFF714FEFFF7EAFD87
:101710003846BDE8F087000000000002100100021A
:10172000001BB70000800000190301000001010147
:101730000101010406080705010204081000000069
:10174000705A0168009000000019800000038000BA
:101750000101800000028000001E80000011800056
:101760000019800001018000001780000016800031
:10177000000B8000001F8000010300000004000037
:10178000000500000007000000080000000900003C
:10179000000A0000010480000105800001068000AD
:1017A0000107800001088000000D80000012800009
:1017B000000B8000001F8000010B8800DC17000078
:1017C000000000024800000038010000241800005A
:1017D000480000026864000054010000000000009E
:1017E00000000000000000000000000000000000F9
:1017F00000000000000000000000000000000000E9
:1018000000000000000000000000000000000000D8
:1018100000000000AAAAAAAA000000000000000020
:0418200000000000C4
:04000005000000FDFA
:00000001FF
