:020000040000FA
:10000000D0670002450200004D0200004F020000D0
:1000100000000000000000000000000000000000E0
:10002000000000000000000000000000A10100002E
:100030000000000000000000E5010000650E000067
:100040005902000059020000590200005902000044
:100050005902000059020000590200005902000034
:100060005902000059020000590200005902000024
:100070005902000059020000590200005902000014
:100080005902000059020000590200005902000004
:10009000590200009D0E00005902000059020000A4
:1000A00059020000590200005902000059020000E4
:1000B00059020000590200005902000059020000D4
:1000C00059020000590200005902000059020000C4
:1000D00059020000590200005902000059020000B4
:1000E00059020000590200005902000059020000A4
:1000F00059020000590200005902000000F002F805
:1001000000F03EF80AA090E8000C82448344AAF173
:100110000107DA4501D100F033F8AFF2090EBAE871
:100120000F0013F0010F18BFFB1A43F0010318472B
:1001300080170000A0170000103A24BF78C878C1CB
:10014000FAD8520724BF30C830C144BF04680C60DD
:10015000704700000023002400250026103A28BF25
:1001600078C1FBD8520728BF30C148BF0B60704729
:100170001FB59DE8030000F0BEF91FBD10B510BD0E
:1001800000F096FA1146FFF7F3FF00F00FFF00F0C2
:10019000B4FA03B4FFF7F2FF03BC00F0F5FE000071
:1001A000204B19680868B0E8F00F80F30988BFF3A6
:1001B0006F8F4FF0000080F311884EF00D0E7047E6
:1001C0000000000006480068006880F3088862B6F6
:1001D00061B6BFF34F8FBFF36F8F00DF00BF00BF6B
:1001E00008ED00E0EFF30980BFF36F8F0D4B1A6845
:1001F00020E9F00F106008B54FF0A00080F31188DF
:1002000001F028F94FF0000080F31188BDE80840A4
:1002100019680868B0E8F00F80F30988BFF36F8FA2
:10022000704700BF00000002EFF311804FF0A00103
:1002300081F31188704780F311887047EFF30580D0
:10024000704700000848804708480047FEE7FEE77F
:10025000FEE7FEE7FEE7FEE7FEE70000044805498B
:10026000054A064B70470000990E0000FD00000093
:10027000D0640002D0670002D0650002D0650002A1
:1002800070B5064600F036F8056806F10B0020F060
:100290000704B4429CBF002070BD2B466A68BAB107
:1002A0001068A04210D304F1080188423CBF506896
:1002B000586007D35168101941601168091B01602B
:1002C00058601460101D70BD13465268002AE7D1B3
:1002D0002146284600F0FBF80028DED170BD02F070
:1002E000FF0343EA032242EA024200F06EB970477C
:1002F000704770470048704774640002FFFFFFFFBB
:1003000070B50446051FFFF7F5FF0068002C14BF09
:10031000446870BD002C18BFAC423CBF20466468E6
:10032000F8D301680A18AA4218BF456003D12A68A9
:1003300005461144016028684119A1421CBF6C6048
:1003400070BD6168696021680844286070BD53EA27
:10035000020C00F069802DE9F04B4FF00006002BF5
:100360001FBFB3FA83F503FA05F424FA05F65E40DD
:1003700012BF1643B2FA82F502FA05F4C5F1200560
:100380001EBF22FA05FC44EA0C04203556EA044C50
:100390004FEA144418BF641C4FF000084FF00009E6
:1003A000904271EB030C39D3002919BFB1FA81F7E0
:1003B00001FA07F6B0FA80F700FA07F6C7F120074E
:1003C0001EBF20FA07FC46EA0C062037B6FBF4FCF9
:1003D000A7EB0507103F07F01F0BCBF120060CFA27
:1003E0000BFB2CFA06F644BFB3460026202FA4BF11
:1003F0005E464FF0000B5BEA060C08BF4FF0010BA6
:1004000019EB0B09ABFB027C48EB0608C01B06FB93
:1004100002CC0BFB03CC71EB0C01C1E70B4602468F
:1004200041464846BDE8F08B13B54FF000004FF051
:100430000001AFF30080BDE81C407047032A40F282
:10044000308010F0030C00F0158011F8013BBCF176
:10045000020F624498BF11F801CB00F8013B38BF8E
:1004600011F8013BA2F1040298BF00F801CB38BF9C
:1004700000F8013B11F0030300F07380083AC0F06C
:10048000088051F8043B083A51F804CBA0E8081062
:10049000F5E7121D5CBF51F8043B40F8043BAFF395
:1004A0000080D20724BF11F8013B11F801CB48BFEF
:1004B00011F8012B24BF00F8013B00F801CB48BF25
:1004C00000F8012B7047704770477047704738B588
:1004D00004460A460020694600F0E5F8002808BFF7
:1004E00038BD02460099204600F094F8012038BD3E
:1004F000012000F0A9B8F8B5AFF300800546002050
:100500000C46102000BF0646A819A0420DD932465D
:100510006946002000F0C7F8070008BF00F094F813
:100520000098A04218BF0546C419FFF7E3FE056016
:100530000746F01D20F007004619284600F00AF88B
:10054000B44208BFF8BDA21B31463868BDE8F84088
:1005500000F060B800210160C0E901107047102070
:10056000704710B5203AC0F00B80B1E81850203A1F
:10057000A0E81850B1E81850A0E81850BFF4F5AF43
:100580005FEA027C24BFB1E81850A0E8185044BFCD
:1005900018C918C0BDE810405FEA827C24BF51F83A
:1005A000043B40F8043B08BF7047D20728BF31F82E
:1005B000023B48BF11F8012B28BF20F8023B48BF7F
:1005C00000F8012B70474FF000020429C0F01280A0
:1005D00010F0030C00F04180CCF1040CBCF1020FD0
:1005E00018BF00F8012BA8BF20F8022BA1EB0C01CB
:1005F00000F033B85FEAC17C24BF00F8012B00F89B
:10060000012B48BF00F8012B7047000000487047DD
:100610006C640002034640688C46002818BF88427C
:100620003CBF03464068F8D318681844884207D096
:100630000CF1030020F00700001D411A521A014678
:10064000081D0A60FFF75CBE10B500F065F8BDE854
:10065000104000F05BB84FF0000200B5134694461E
:100660009646203922BFA0E80C50A0E80C50B1F10A
:100670002001BFF4F7AF090728BFA0E80C5048BF1E
:100680000CC05DF804EB890028BF40F8042B08BFBC
:10069000704748BF20F8022B11F0804F18BF00F8B8
:1006A000012B7047704710B500F062FC10BD704719
:1006B0007546FFF7ABFFAE4605006946534620F08E
:1006C0000700854618B020B5FFF7C8FDBDE82040FB
:1006D0004FF000064FF000074FF000084FF0000BFE
:1006E00021F00701AC46ACE8C009ACE8C009ACE8B1
:1006F000C009ACE8C0098D46704710B50446AFF399
:1007000000802046BDE81040FFF743BD002801D01F
:1007100000F03ABC7047000010B5012805D0002158
:1007200003A000F021F8012010BD09A1F8E70000A6
:1007300053494752544D454D3A204F7574206F66CA
:100740002068656170206D656D6F72790000000032
:100750003A2048656170206D656D6F727920636F16
:10076000727275707465640070B505460C460A2097
:1007700000E06D1C00F011F835B128780028F8D1A0
:1007800002E0641C00F009F814B120780028F8D1C8
:10079000BDE870400A20AFF3008008B569468DF8C7
:1007A00000000320ABBE08BD154810B58021416391
:1007B00081640D220021012000F0D9F900211222CC
:1007C000084600F0D4F900F0B5F8002100F05AF91D
:1007D0000C4C204600F062FA206820F07C0040F0CB
:1007E000040020604FF4E131204600F0A0FA2068B8
:1007F00040F001002060606820F04000606010BDA3
:1008000000800F40000004402DE9F041FFF7CCFFCD
:100810004FF0E054204600F06BF90C4B0021DD1E38
:100820000122585C6E5C04EB800000F50050076804
:1008300002FA06F637430760585C6E5C04EB401022
:100840008255491C0329ECDBBDE8F0811F1800002C
:1008500010B503280BD2064A054C4FF0E053E41EB6
:10086000125C205C03EB421281F00101115410BDB7
:100870001F18000010B500F0C9F90B4C0120C4F896
:10088000A4000320012161F39F10C4F8A001C80552
:1008900000F0AEF9D4F8A40110F0010FFAD0012055
:1008A000C4F8CC0010BD00000040074070B50D201A
:1008B00000F030F80C2000F02DF80D24204600F058
:1008C0005BF9204600F06AF91D220A490A4800F047
:1008D00025F9084D0024083D35F81410C8B2C1F3BD
:1008E0004122C90A01EB421100F02AF9641C032CD1
:1008F000F2D370BD3C18000000800F4010B5FFF728
:10090000D5FFFFF7B7FF02490120C1F8CC0010BDA9
:100910000040074006490122202803D351F8C83F70
:10092000203801E051F8C43F824013430B60704708
:10093000004007400448D0F8840010F0FF0F01D0B9
:1009400000F01EB800F002B800400740084900203F
:10095000D1F8801011F0FF0105D0012905D002293E
:1009600000D1044870470448704704480068704745
:1009700000400740D8AC0700001BB7001418000067
:100980000A490020D1F8841011F0FF0108D0012994
:1009900008D0022908D0032901D105480068704712
:1009A000FFF7D4BF00F028B800F02EB80040074091
:1009B0001818000000F03F02521C01FB02F07047C3
:1009C00010F0030003D0012803D000207047024834
:1009D0007047024800687047001BB70014180000F9
:1009E00010B5FFF7A7FF0349D1F8C010B0FBF1F035
:1009F00010BD0000004007400248D0F8A000FFF7FB
:100A0000DFBF00000040074010B5FFF7F5FF0146CB
:100A10000348D0F89801BDE81040FFF7CBBF0000B5
:100A20000040074070B50E4DD5F8D040B4B1FFF787
:100A300081FFB0FBF4F0D5F82821002192B2D34316
:100A400013F0FF0F09D10902120A41EA10610002F6
:100A5000002302F58072FFF77AFC70BD002070BDA4
:100A6000004007400649042804D3001FC0B2C1F863
:100A70008400704741F8800F0020486070470000F4
:100A80000040074070B50E460446FFF753FF01468D
:100A9000B0FBF4F000B901200D4DC2B2C5F8D02072
:100AA00000227EB104FB101304FB00F2190E1802A1
:100AB0000023FFF74CFC0006000C40F0FF00C5F8D7
:100AC000280101E0C5F82821BDE87040FFF7AABF62
:100AD000004007400549D1F8242100F0030022F42A
:100AE000405242EA0030C1F82401704700400740FC
:100AF00010B50E20FFF70EFF0F20FFF70BFF1020A1
:100B0000FFF708FF0B20FFF705FF0B24204600F03E
:100B100033F82046BDE8104000F040B870B500231F
:100B20000BE000BF51F82340E6B2C4F3072500EB09
:100B3000C616240C46F825405B1C9342F2D370BDC8
:100B40000207520E00098300054810B503441868D7
:100B5000FF249440A04391400143196010BD000060
:100B60000080034002EB4111C9B2FFF7E9BF02EB7D
:100B70004111C9B2FFF7E4BF074A0121202805D37C
:100B8000936C203881400B4393647047536C8140D1
:100B90000B4353647047000000400740074A01219F
:100BA000202805D3936C203881408B439364704791
:100BB000536C81408B4353647047000000400740F2
:100BC00010B50446FFF7D8FF2046BDE81040FFF7F8
:100BD000E5BF0000044AD2F80812044B194018403F
:100BE0000843C2F8080270470040074078FFFF0141
:100BF000044AD2F80812044B194018408143C2F845
:100C0000081270470040074078FFFF0138B54FF4E5
:100C10000010FFF7EDFF00204FF400710090401C22
:100C200000908842FBDB104C0120C4F8A000850531
:100C30002846FFF7CFFF0521022060F39F11C4F87B
:100C400098112846FFF7D4FFD4F89C0110F0010F4B
:100C5000FAD00120C4F8C0000220FFF73BFFBDE836
:100C600038400620FFF7FEBE0040074070B505463D
:100C700080680E461446400709D51146284600F004
:100C800061F8E0682169884201D104202861314679
:100C90002846BDE8704000F01BB8000010B50446BF
:100CA00000F074F9FFF736FE0748844201D1312085
:100CB00005E00648844201D1322000E03320BDE83F
:100CC0001040FFF77DBF00000000044000400440DA
:100CD00038B50D46044606E060698DF800006946A7
:100CE000284600F07DF8A068C007F5D138BD10B5E2
:100CF0000346002003E011F8014BDC61401C9042E8
:100D000002DA9C686407F6D410BDF0B515460746B4
:100D100000260C4607E02A4621463846FFF7E7FF43
:100D20002D1A06440444002DF5DC3046F0BD70B5A4
:100D30000D460446FFF776FE2901B0FBF1F1491E8E
:100D4000216270BD38B50D46044602E09DF80000F2
:100D5000E061A068400705D56946284600F06AF8BA
:100D60000028F3D138BD002809DB00F01F02012163
:100D700091404009800000F1E020C0F80011704768
:100D80004907090E002804DB00F1E02080F8001478
:100D9000704700F00F0000F1E02080F8141D70474C
:100DA00010B51520FFF7DFFF1620FFF7DCFF172037
:100DB000FFF7D9FF00211520FFF7E2FF07211620DA
:100DC000FFF7DEFF0221BDE810401720FFF7D8BF74
:100DD000C0E9001300210161C0E902210120704730
:100DE00070B50E460446056800F01AF808B10020F8
:100DF00070BD6168E068491E0840A268314600FB8A
:100E00000250FFF71BFBE068401CE060012070BD52
:100E1000C1680069814201D10120704700207047FC
:100E2000C16802694068891A814201DB012070476C
:100E30000020704770B50E4604460568FFF7E8FFCE
:100E400008B1002070BD61682069491EA268084091
:100E500000FB02513046FFF7F1FA2069401C206187
:100E6000012070BD10B5FFF7DFF900F0E3FB18B10A
:100E700004494FF080500860BDE810400020FFF7A3
:100E8000DAB9000004ED00E010B5FFF7A9FD014953
:100E9000086010BD3C000002FFF730BD024A034865
:100EA00002F11401FFF7E2BE4461000200000440B9
:100EB0000D4980230122A1F11400FFF789FF0A499F
:100EC000802380310122A1F1A800FFF781FF0649AC
:100ED000064C28392046FFF735FF64220449204696
:100EE000FFF713FFF9E700006C6100020000044007
:100EF000E01700000D4980230122A1F58A70FFF759
:100F000067FF0A49802380310122A1F5D470FFF7E1
:100F10005FFF074C2A2207492046FFF7F6FE0549E6
:100F20002C222B312046FFF7F0FEF3E76C62000223
:100F300000400440881700000A4980230122A1F5DF
:100F40000570FFF745FF0749802380310122A1F595
:100F50002A70FFF73DFF044C182204492046FFF792
:100F6000D4FEF9E76C63000200000C40F9170000A2
:100F70004FF4C040824201D900207047014A0A6004
:100F8000704700004401000230BFFDE70549884278
:100F900001D1312070470449884201D13220704785
:100FA0003320704700000440004004407FB5FFF745
:100FB0006BFFFFF729FC00210846FFF749FC00F012
:100FC0005FF800F00BF9FFF7EBFE00240125CDE9F7
:100FD000005402942346802218A11B48039400F079
:100FE00073FACDE9005402940023802217A11A4815
:100FF000039400F069FACDE90054029400238022A2
:1010000016A11948039400F05FFACDE90054029448
:101010000023802215A11848039400F055FACDE969
:10102000005402940023802210A11448039400F07D
:101030004BFA00F0E3F904B0012070BD76546173FF
:101040006B4C656431000000A1120000765461739E
:101050006B4C656432000000B712000055415254D9
:101060003154657374000000F50E00005541525470
:101070005465737400000000B10E0000390F0000C9
:10108000144810B58021416381648165C165816127
:10109000C1610D2200211220FFF764FD1222002100
:1010A0001120FFF75FFD162200210120FFF75AFDF6
:1010B000002117220846FFF755FD062200212320B4
:1010C000FFF750FD07220021BDE810402220FFF766
:1010D00049BD000000800F4070B50B4C05462068EC
:1010E0004560E0682168854205D2606BBDE87040CC
:1010F000091D00F0F9B8206B091D00F0F5F8A06A91
:10110000854200D2A56270BD0000000270B5124E8B
:10111000124C1AE000F096F93068D0B100F0E4FA11
:1011200000F006F9F068C568281D00F0A5F8A06871
:10113000401EA0606068401E606000F007F9286BE8
:1011400000F00EF9284600F00BF960680028E1D1A4
:1011500070BD00F0C9FAF8E71C01000200000002AF
:10116000054C00BFFFF7D2FF2068012801D900F02D
:1011700015F900F093F8F5E7400000020648016B0E
:10118000096829B1016BC968C968496881627047FB
:101190004FF0FF31FAE7000000000002FFF744F8CB
:1011A000FEE710B5044600F04DF92046FFF768F859
:1011B000044600F099FA204610BD000010B5031F48
:1011C0004FF080741C601B1F1960191F024B0B60CD
:1011D000143940380A6010BD9D1100002DE9F0411E
:1011E000224C2046FFF75AFD214D2846FFF756FDB9
:1011F000204E3046FFF752FD286820F07C0040F07A
:10120000040028604FF4165739462846FFF78FFD33
:10121000286840F001002860686820F0400068609D
:10122000206820F07C0040F0040020603946204611
:10123000FFF77DFD206840F001002060606820F02D
:1012400040006060306820F07C0040F004003060B6
:1012500039463046FFF76BFD306840F001003060E2
:10126000706820F040007060BDE8F081000004402C
:101270000040044000000C40D0E9013201699A604E
:10128000D0E901235A604A68824201D182684A60EB
:10129000002202610868401E0860704730BF704736
:1012A000002421460220FFF7D3FA84F00104A6208F
:1012B00000F080F8F5E7002421460120FFF7C8FA86
:1012C00084F00104472000F075F8F5E700F108010B
:1012D0004FF0FF32C0E90112C160016100210160DD
:1012E000704700210161704730B50B685A1C02D06D
:1012F00000F1080202E0026904E022465468256811
:101300009D42FAD953684B6099608A6051600861C8
:101310000168491C016030BD42684A6093688B6077
:1013200093685960916008610168491C01607047C9
:1013300010B5FEF779FF04480168491C0160BFF34E
:101340004F8FBFF36F8F10BD38000002034908684C
:10135000401E086001D1FEF76EBF704738000002E2
:1013600010B5040008D000F06DF82046FEF7C8FF65
:10137000BDE8104000F0B8B910BD000006484FF4B9
:101380007A710068B0FBF1F14FF0E020491E416135
:1013900007210161704700003C00000204494FF042
:1013A00080500860BFF34F8FBFF36F8F704700000E
:1013B00004ED00E070B5020018D000F043F80E4CC8
:1013C000E06885182068001DFFF756FF38B92068CF
:1013D00090F82C1001208840216981432161284622
:1013E000FFF77AFE00F080F9002803D1BDE87040D5
:1013F000FFF7D4BF70BD0000000000021FB500243D
:10140000009401940294234680220AA10B4803947D
:1014100000F05AF801280BD1FEF706FF0848611EBC
:10142000816201214161C460BDE81F4000F034B811
:101430001FBD000049444C45000000006111000040
:10144000000000020248C16A491CC16270470000E6
:10145000000000020E48C16A11B10121C16170474C
:101460000021C16101690B4AB1FA81F1C1F11F018B
:1014700001EB810102EB810101F108034A68526826
:101480004A609A4201D152684A60D168016070474F
:101490000000000240000002094810B5016841F058
:1014A00078710160016841F060410160FFF766FFFB
:1014B000044900200860FEF785FE002010BD0000F2
:1014C00020ED00E0380000022DE9FF5F8A46DDE9EB
:1014D0000F9091000E9F9B461546884610B908460E
:1014E000FFF75FFE060018D06020FFF75AFE0400E9
:1014F000304610D0A52241462063FEF7F0FE6FF083
:10150000030101EB8501206B3D46084420F00708EC
:101510005146002004E0FFF723FF4FF0FF3481E045
:1015200022180B5C82F834300A5C12B1401C14287B
:10153000F6D3002684F84760082D00D30725E5621E
:10154000C4E91456201DFFF7CCFE04F11800FFF784
:10155000C8FE2461C5F108016462A161A66584F832
:101560005C605A4640460099FFF728FE2060B9F1BA
:10157000000F01D0C9F80040FFF7DAFE2B4DA86834
:10158000401CA8602868DFF8A88010B1686940B3E3
:101590002CE02C60A868012828D1002606EB8601E3
:1015A00008EB8100FFF792FE761C082EF6D3204848
:1015B000A030FFF78BFE1E48B430FFF787FE1C48B3
:1015C000C830FFF783FE1A48DC30FFF77FFE18486B
:1015D000F030FFF77BFE1648A030286314306863B4
:1015E00004E02868C06AB84200D82C60686A01210B
:1015F000401C6862A064E06A2A6981401143296145
:1016000000EB800108EB8100211DFFF785FE01241E
:10161000FFF79CFE686928B12868C06AB84201D209
:10162000FFF7BCFE04B02046BDE8F09F00000002BA
:10163000400000022DE9F041294C0026E06A40B14B
:10164000A069401CA061E06900B101263046BDE8F8
:10165000F081E068401CE060E76847B9206B616B8F
:1016600021636063206A401C2062FFF787FDA06A47
:10167000DFF87080874209D3206B006880B1206B4F
:10168000C068C568686887420DD2A0622068C06AD9
:1016900000EB800158F821000128D4D90126D2E7B7
:1016A0004FF0FF30F1E7281DFFF7E6FDA86A18B1FB
:1016B00005F11800FFF7E0FDE86A01212269814089
:1016C0001143216100EB800108EB8100291DFFF728
:1016D00023FEE86A2168C96A8842CDD30126CBE798
:1016E00000000002400000022DE9F0470027FFF74C
:1016F0001FFE234CE06A401EE062E06A98BBA168CE
:10170000204E012079B3A6F1C80980463068E8B1BF
:10171000F068C56805F11800FFF7AEFD281DFFF75A
:10172000ABFDE96A226908FA01F01043206101EB80
:10173000810109EB8100291DFFF7EEFDE86A2168B0
:10174000C96A8842E2D3C4F81C80DFE7A06958B1B7
:101750004546A06940B1FFF76DFF00B1E561A069A2
:10176000401EA061F5E705E0E069012802D10127EC
:10177000FFF714FEFFF7EAFD3846BDE8F0870000EA
:1017800000000002080100024C50433135787820F7
:101790005541525431206578616D706C65207573C8
:1017A000696E672072696E6720627566666572731E
:1017B0000D0A0050726573732061206B6579207487
:1017C0006F206563686F206974206261636B206FAE
:1017D000722045534320746F20717569740D0A009F
:1017E00055415254302074657374696E67205441BA
:1017F000534B2D3420200D0A005541525432207491
:10180000657374696E67205441534B2D3520200D4C
:101810000A000000001BB70000800000190301004F
:101820000001010101010104060807050102040885
:1018300010000000705A016800900000001980003C
:10184000000380000101800000028000001E800073
:101850000011800000198000010180000017800045
:1018600000168000000B8000001F800001030000B4
:101870000004000000050000000700000008000050
:1018800000090000000A000001048000010580003A
:10189000010680000107800001088000000D800023
:1018A00000128000000B8000001F8000010B8800E8
:1018B000D0180000000000024000000038010000C5
:1018C0001019000040000002906700005401000061
:1018D0000000000000000000000000000000000008
:1018E00000000000000000000000000000000000F8
:1018F00000000000000000000000000000000000E8
:101900000000000000000000AAAAAAAA000000002F
:04000005000000FDFA
:00000001FF
