:020000040000FA
:10000000E86400024D0200005502000057020000A3
:1000100000000000000000000000000000000000E0
:10002000000000000000000000000000A901000026
:100030000000000000000000ED010000AD10000015
:100040006102000061020000610200006102000024
:100050006102000061020000610200006102000014
:100060006102000061020000610200006102000004
:1000700061020000610200006102000061020000F4
:1000800061020000610200006102000061020000E4
:1000900061020000E5100000610200006102000042
:1000A00061020000610200006102000061020000C4
:1000B00061020000610200006102000061020000B4
:1000C00061020000610200006102000061020000A4
:1000D0006102000061020000610200006102000094
:1000E0006102000061020000610200006102000084
:1000F00061020000610200006102000000F002F8ED
:1001000000F043F80AA090E8000C82448344AAF16E
:100110000107DA4501D100F038F8AFF2090EBAE86C
:100120000F0013F0010F18BFFB1A43F0010318472B
:10013000B0190000D0190000103A24BF78C878C167
:10014000FAD8520724BF30C830C144BF04680C60DD
:10015000704700000023002400250026103A28BF25
:1001600078C1FBD8520728BF30C148BF0B60704729
:10017000642900F0A381002070471FB59DE80300AB
:1001800000F03AFA1FBD10B510BD00F095FB114606
:10019000FFF7F3FF00F0D8FF00F0B3FB03B4FFF765
:1001A000F2FF03BC00F0B4FF204B19680868B0E808
:1001B000F00F80F30988BFF36F8F4FF0000080F3DA
:1001C00011884EF00D0E70470000000006480068D0
:1001D000006880F3088862B661B6BFF34F8FBFF343
:1001E0006F8F00DF00BF00BF08ED00E0EFF3098074
:1001F000BFF36F8F0D4B1A6820E9F00F106008B540
:100200004FF0A00080F3118801F082FA4FF0000057
:1002100080F31188BDE8084019680868B0E8F00F5D
:1002200080F30988BFF36F8F704700BF00000002A2
:10023000EFF311804FF0A00181F31188704780F334
:1002400011887047EFF30580704700000848804729
:1002500008480047FEE7FEE7FEE7FEE7FEE7FEE7A9
:10026000FEE7000004480549054A064B70470000B8
:10027000E1100000FD000000E8610002E8640002F7
:10028000E8620002E862000270B5064600F098F9E4
:10029000056806F10B0020F00704B4429CBF002063
:1002A00070BD2B466A68BAB11068A04210D304F141
:1002B000080188423CBF5068586007D35168101944
:1002C00041601168091B016058601460101D70BD09
:1002D00013465268002AE7D12146284600F078F9F3
:1002E0000028DED170BD02F0FF0343EA032242EA98
:1002F000024200F057BA704770477047FFFFFFFF98
:1003000070B50446051F00F05BF90068002C14BFAF
:10031000446870BD002C18BFAC423CBF20466468E6
:10032000F8D301680A18AA4218BF456003D12A68A9
:1003300005461144016028684119A1421CBF6C6048
:1003400070BD6168696021680844286070BD53EA27
:10035000020C00F069802DE9F04B4FF00006002BF5
:100360001FBFB3FA83F503FA05F424FA05F65E40DD
:1003700012BF1643B2FA82F502FA05F4C5F1200560
:100380001EBF22FA05FC44EA0C04203556EA044C50
:100390004FEA144418BF641C4FF000084FF00009E6
:1003A000904271EB030C39D3002919BFB1FA81F7E0
:1003B00001FA07F6B0FA80F700FA07F6C7F120074E
:1003C0001EBF20FA07FC46EA0C062037B6FBF4FCF9
:1003D000A7EB0507103F07F01F0BCBF120060CFA27
:1003E0000BFB2CFA06F644BFB3460026202FA4BF11
:1003F0005E464FF0000B5BEA060C08BF4FF0010BA6
:1004000019EB0B09ABFB027C48EB0608C01B06FB93
:1004100002CC0BFB03CC71EB0C01C1E70B4602468F
:1004200041464846BDE8F08B13B54FF000004FF051
:100430000001AFF30080BDE81C4070470FB40449D1
:1004400010B503AA029800F067F910BC5DF814FB20
:10045000500000022DE9F0410E46044600202062C3
:100460002046E168884730B3252805D0D4E901212A
:100470009047206A401CF2E7E16820460027884741
:10048000050018D0A5F14100192802D820354FF4F5
:1004900000673246294620462760FFF769FE40B1D3
:1004A000012804D0F61D26F007060836D8E7361DC9
:1004B000D6E72846DAE7206ABDE8F0812DE9F04169
:1004C0000646002410687529314616A510D0AFF3F2
:1004D0000080002802DA404213A507E031688A074D
:1004E00001D512A502E0490704D511A5012401E0B8
:1004F000AFF3008000210A2206F1240709E0B0FBD7
:10050000F2FCB0FBF2F302FB1C00303078541846CA
:10051000491C0028F3D123462A463046BDE8F04165
:1005200000F0A0B8000000002D0000002B0000002B
:1005300020000000032A40F2308010F0030C00F08D
:10054000158011F8013BBCF1020F624498BF11F80D
:1005500001CB00F8013B38BF11F8013BA2F10402C6
:1005600098BF00F801CB38BF00F8013B11F003033E
:1005700000F0E480083AC0F0088051F8043B083AE3
:1005800051F804CBA0E80810F5E7121D5CBF51F844
:10059000043B40F8043BAFF30080D20724BF11F8BE
:1005A000013B11F801CB48BF11F8012B24BF00F823
:1005B000013B00F801CB48BF00F8012B7047000059
:1005C000004870478C610002704770477047704761
:1005D00038B504460A460020694600F068F900284C
:1005E00008BF38BD02460099204600F0FFF8012000
:1005F00038BD012000F02CB9F8B5AFF300800546F6
:1006000000200C46102000BF0646A819A0420DD9B4
:1006100032466946002000F04AF9070008BF00F0A2
:1006200017F90098A04218BF0546C419FFF7C8FF84
:1006300005600746F01D20F007004619284600F027
:100640000AF8B44208BFF8BDA21B31463868BDE8BD
:10065000F84000F0CBB800210160C0E901107047FC
:10066000102070472DE9F0470D4699469246044602
:1006700000F124080168880604D5E06921F0100122
:10068000216000E00120A84201DD471B00E00027B7
:10069000A1697A1902EB0900081AA0612078C00646
:1006A00002D42046AFF30080002608E0D4E90121FF
:1006B0001AF806009047206A401C761C20624E45BE
:1006C000F4DB2078C0060AD52046AFF3008006E0B0
:1006D000D4E9012130209047206A401C2062381E56
:1006E000A7F10107F4DC07E0D4E9012118F80500BF
:1006F0009047206A401C2062281EA5F10105F3DC0A
:100700002046AFF300802078000602D50220BDE825
:10071000F0870120FBE70000074B70B50D467B44D6
:1007200000F083F80446284600F0F4FC10B14FF0C6
:10073000FF3070BD204670BDF909000010B5203AA9
:10074000C0F00B80B1E81850203AA0E81850B1E88A
:100750001850A0E81850BFF4F5AF5FEA027C24BF40
:10076000B1E81850A0E8185044BF18C918C0BDE837
:1007700010405FEA827C24BF51F8043B40F8043B00
:1007800008BF7047D20728BF31F8023B48BF11F8B5
:10079000012B28BF20F8023B48BF00F8012B70470F
:1007A0004FF000020429C0F0128010F0030C00F09A
:1007B0005880CCF1040CBCF1020F18BF00F8012BDB
:1007C000A8BF20F8022BA1EB0C0100F04AB85FEAA9
:1007D000C17C24BF00F8012B00F8012B48BF00F8B2
:1007E000012B70470048704784610002034640684F
:1007F0008C46002818BF88423CBF03464068F8D3A7
:1008000018681844884207D00CF1030020F0070054
:10081000001D411A521A0146081D0A60FFF770BDFB
:1008200001694A1C02610878704700B58FB0CDE9B4
:1008300001310021059105497944CDE903101146A4
:100840006846FFF707FE0FB000BD0000E5FFFFFFA1
:1008500010B500F065F8BDE8104000F05BB84FF04F
:10086000000200B5134694469646203922BFA0E800
:100870000C50A0E80C50B1F12001BFF4F7AF09070C
:1008800028BFA0E80C5048BF0CC05DF804EB8900FD
:1008900028BF40F8042B08BF704748BF20F8022B40
:1008A00011F0804F18BF00F8012B7047704710B54A
:1008B00000F022FC10BD70477546FFF793FFAE466F
:1008C00005006946534620F00700854618B020B55C
:1008D000FFF7C8FCBDE820404FF000064FF00007CE
:1008E0004FF000084FF0000B21F00701AC46ACE8D8
:1008F000C009ACE8C009ACE8C009ACE8C0098D4645
:10090000704710B50446AFF300802046BDE81040A4
:10091000FFF744BC002801D000F0FABB704700008C
:1009200010B5012805D0002103A000F021F8012016
:1009300010BD09A1F8E7000053494752544D454DF9
:100940003A204F7574206F662068656170206D6570
:100950006D6F7279000000003A2048656170206D6B
:10096000656D6F727920636F727275707465640063
:1009700070B505460C460A2000E06D1C00F011F829
:1009800035B128780028F8D102E0641C00F009F89D
:1009900014B120780028F8D1BDE870400A20AFF3E8
:1009A000008008B569468DF800000320ABBE08BD85
:1009B000154810B58021416381640D22002101207A
:1009C00000F001FA00211222084600F0FCF900F0C4
:1009D000BFF8002100F072F90C4C204600F08AFAB2
:1009E000206820F07C0040F0040020604FF4E131EA
:1009F000204600F0C8FA206840F0010020606068DE
:100A000020F04000606010BD00800F4000000440F6
:100A10002DE9F041FFF7CCFF4FF0E054204600F005
:100A200083F90C4B0021DD1E0122585C6E5C04EB47
:100A3000800000F50050076802FA06F637430760A9
:100A4000585C6E5C04EB40108255491C0329ECDBBA
:100A5000BDE8F0814F1A000010B503280BD2064AFA
:100A6000054C4FF0E053E41E125C205C03EB421295
:100A700081F00101115410BD4F1A000010B500F0B3
:100A8000F1F90B4C0120C4F8A4000320012161F30B
:100A90009F10C4F8A001C80500F0D6F9D4F8A4014D
:100AA00010F0010FFAD00120C4F8CC0010BD0000F6
:100AB0000040074070B50D2000F03AF80C2000F01F
:100AC00037F80D24204600F083F9204600F092F913
:100AD0001D220A490A4800F03DF9084D0024083D4E
:100AE00035F81410C8B2C1F34122C90A01EB421112
:100AF00000F052F9641C032CF2D370BD6C1A000094
:100B000000800F4010B5FFF7D5FFFFF7B7FF024990
:100B10000120C1F8CC0010BD0040074001B5012202
:100B20006946024800F01DFA08BD000000000440BC
:100B300006490122202803D351F8C83F203801E09C
:100B400051F8C43F824013430B6070470040074098
:100B50000448D0F8840010F0FF0F01D000F01EB858
:100B600000F002B80040074008490020D1F880108A
:100B700011F0FF0105D0012905D0022900D1044858
:100B800070470448704704480068704700400740B9
:100B9000D8AC0700001BB700441A00000A49002027
:100BA000D1F8841011F0FF0108D0012908D00229E2
:100BB00008D0032901D1054800687047FFF7D4BF6A
:100BC00000F036B800F03CB800400740481A00007A
:100BD00000F03F02521C01FB02F0704710F00300CE
:100BE00003D0012803D00020704702487047024814
:100BF00000687047001BB700441A0000054810B594
:100C0000D0F8CC4024B1FFF7A3FFB0FBF4F010BD47
:100C1000002010BD0040074010B5FFF799FF0349C1
:100C2000D1F8C010B0FBF1F010BD0000004007404B
:100C30000248D0F8A000FFF7D1BF000000400740F5
:100C400010B5FFF7F5FF01460348D0F89801BDE85D
:100C50001040FFF7BDBF00000040074070B50E4DCB
:100C6000D5F8D040B4B1FFF773FFB0FBF4F0D5F87E
:100C70002821002192B2D34313F0FF0F09D10902BA
:100C8000120A41EA10610002002302F58072FFF7A8
:100C90005EFB70BD002070BD00400740064904287F
:100CA00004D3001FC0B2C1F88400704741F8800F20
:100CB00000204860704700000040074070B50E46B5
:100CC0000446FFF745FF0146B0FBF4F000B90120F0
:100CD0000D4DC2B2C5F8D02000227EB104FB101326
:100CE00004FB00F2190E18020023FFF730FB000688
:100CF000000C40F0FF00C5F8280101E0C5F82821EC
:100D0000BDE87040FFF7AABF004007400549D1F891
:100D1000242100F0030022F4405242EA0030C1F8DE
:100D2000240170470040074010B50E20FFF700FF78
:100D30000F20FFF7FDFE1020FFF7FAFE0B20FFF754
:100D4000F7FE0B24204600F043F82046BDE8104093
:100D500000F050B870B500230BE000BF51F82340FD
:100D6000E6B2C4F3072500EBC616240C46F825406E
:100D70005B1C9342F2D370BD10B5C0F383301C30BE
:100D80000446FFF7D5FE204600F022F82046BDE8D5
:100D9000104000F02FB800000207520E0009830037
:100DA000054810B503441868FF249440A0439140BF
:100DB0000143196010BD00000080034002EB4111A7
:100DC000C9B2FFF7E9BF02EB4111C9B2FFF7E4BFB7
:100DD000074A0121202805D3936C203881400B431A
:100DE00093647047536C81400B4353647047000019
:100DF00000400740074A0121202805D3936C203882
:100E000081408B4393647047536C81408B435364A0
:100E1000704700000040074010B50446FFF7D8FFB8
:100E20002046BDE81040FFF7E5BF0000044AD2F8B5
:100E30000812044B194018400843C2F808027047D2
:100E40000040074078FFFF01044AD2F80812044B23
:100E5000194018408143C2F808127047004007400B
:100E600078FFFF0138B54FF40010FFF7EDFF0020C9
:100E70004FF400710090401C00908842FBDB104C46
:100E80000120C4F8A00085052846FFF7CFFF052103
:100E9000022060F39F11C4F898112846FFF7D4FF91
:100EA000D4F89C0110F0010FFAD00120C4F8C00062
:100EB0000220FFF72BFFBDE838400620FFF7EEBE0B
:100EC0000040074070B5054680680E46144640074E
:100ED00009D51146284600F061F8E068216988428A
:100EE00001D10420286131462846BDE8704000F059
:100EF0001BB8000010B5044600F016F9FFF718FE05
:100F00000748844201D1312005E00648844201D1DE
:100F1000322000E03320BDE81040FFF77DBF000025
:100F2000000004400040044038B50D46044606E089
:100F300060698DF800006946284600F075F8A068E1
:100F4000C007F5D138BD10B50346002003E011F805
:100F5000014BDC61401C904202DA9C686407F6D4C5
:100F600010BDF0B51546074600260C4607E02A4698
:100F700021463846FFF7E7FF2D1A06440444002DAA
:100F8000F5DC3046F0BD70B50D460446FFF766FE51
:100F90002901B0FBF1F1491E216270BD38B50D4643
:100FA000044602E09DF80000E061A068400705D516
:100FB0006946284600F062F80028F3D138BD0028C1
:100FC00009DB00F01F02012191404009800000F17F
:100FD000E020C0F8001170474907090E002804DB23
:100FE00000F1E02080F80014704700F00F0000F1DD
:100FF000E02080F8141D704710B51520FFF7DFFFC3
:101000001620FFF7DCFF1720FFF7D9FF002115207E
:10101000FFF7E2FF07211620FFF7DEFF0221BDE800
:1010200010401720FFF7D8BF70B50E46044605687C
:1010300000F01AF808B1002070BD6168E068491E30
:101040000840A268314600FB0250FFF773FAE068DF
:10105000401CE060012070BDC1680069814201D17F
:101060000120704700207047C16802694068891AF2
:10107000814201DB012070470020704770B50E46A9
:1010800004460568FFF7E8FF08B1002070BD6168FD
:101090002069491EA268084000FB02513046FFF754
:1010A00049FA2069401C2061012070BD10B5FFF78E
:1010B000BFF800F01DFC18B104494FF080500860E3
:1010C000BDE810400020FFF7BAB8000004ED00E0D2
:1010D00010B5FFF7A1FD0149086010BD54000002E2
:1010E000FFF710BD024A034802F11401FFF7EABE00
:1010F0005C610002000004404FF4C040824201D90C
:1011000000207047014A0A60704700005C0100023D
:1011100030BFFDE74FF0FF30704710B5C0B2FFF7AA
:10112000FDFC002010BD00000549884201D131209E
:1011300070470449884201D13220704733207047FC
:1011400000000440004004407FB5FFF7C1FFFFF7F7
:101150005FFC00210846FFF77FFC00F041F800F03B
:101160007FF9FFF749FF002400940194029423467D
:1011700080220FA11148039400F004FB0125CDE962
:1011800000540294002380220DA11048039400F023
:10119000F9FACDE900540294002380220CA10F48F3
:1011A000039400F0EFFA00F087FA04B0012070BD5C
:1011B000765461736B4C65643100000025150000A6
:1011C000765461736B4C6564320000003915000081
:1011D00054696D6572546573740000002114000039
:1011E000144810B58021416381648165C1658161C6
:1011F000C1610D2200211220FFF7E0FD1222002123
:101200001120FFF7DBFD162200210120FFF7D6FD9C
:10121000002117220846FFF7D1FD062200212320D6
:10122000FFF7CCFD07220021BDE810402220FFF788
:10123000C5BD000000800F4070B50B4C054620680E
:101240004560E0682168854205D2606BBDE870406A
:10125000091D00F0A7B9206B091D00F0A3F9A06AD1
:10126000854200D2A56270BD0000000270B5124E2A
:10127000124C1AE000F044FA3068D0B100F092FB52
:1012800000F0B4F9F068C568281D00F037F9A068CF
:10129000401EA0606068401E606000F0B5F9286BD9
:1012A00000F0BCF9284600F0B9F960680028E1D1E7
:1012B00070BD00F077FBF8E7340100020000000287
:1012C000054C00BFFFF7D2FF2068012801D900F0CC
:1012D000C3F900F025F9F5E7580000020648016B54
:1012E000096829B1016BC968C9684968816270479A
:1012F0004FF0FF31FAE7000000000002FEF798FF10
:10130000FEE710B5044600F0FBF92046FEF7BCFFEF
:10131000044600F047FB204610BD000010B5031F37
:101320004FF080741C601B1F1960191F024B0B606B
:10133000143940380A6010BDFD12000010B5324C5F
:101340002046FFF719FD20683049084320603048E7
:10135000C4F800024010211DC1F80002091D2D48EB
:10136000C1F80002091D2C48C1F8000226482B498B
:101370001030C0F800120121C4F800134FF470417E
:10138000C4F80413204A01210832C2F8001341F2C4
:101390000301C2F804130121C0F8001341F2040153
:1013A000C0F80413184902201831C1F800034FF4A3
:1013B000F840C1F80403144902202031C1F80003A9
:1013C00041F20200C1F804030F4902202831C1F89C
:1013D000000341F20100C1F804032920C4F800050C
:1013E0001020C4F8040511460B20C1F800050420A4
:1013F000C1F80405206D40F00F002065606820F002
:101400000400606010BD00000080011C01000200AB
:101410008096980000093D004054890040420F002A
:10142000FFF756FEFFF7F4FA0B490620C1F8C0009B
:101430000F20FFF77DFB032200217120FFF7BEFC88
:10144000192200217220FFF7B9FC0449022008602C
:10145000FFF774FF30BFFDE7004007400040014048
:101460002DE9F041224C2046FFF744FD214D28464E
:10147000FFF740FD204E3046FFF73CFD286820F086
:101480007C0040F0040028604FF416573946284687
:10149000FFF779FD286840F001002860686820F0B7
:1014A00040006860206820F07C0040F0040020606C
:1014B00039462046FFF767FD206840F001002060B4
:1014C000606820F040006060306820F07C0040F0F0
:1014D0000400306039463046FFF755FD306840F073
:1014E00001003060706820F040007060BDE8F0815D
:1014F000000004400040044000000C40D0E90132EC
:1015000001699A60D0E901235A604A68824201D198
:1015100082684A60002202610868401E08607047C5
:1015200030BF7047002421460220FFF795FAA6201D
:1015300000F09EF8F7E7000000250F4C2946012037
:10154000FFF78AFA85F00105FFF702FB2060FFF73D
:1015500063FB6060FFF76CFBA060FFF771FBE0606E
:10156000FFF74CFB2061D4E9021204A0FEF766FFEE
:10157000472000F07DF8E1E73C00000225642009E7
:10158000202564200A00000000F108014FF0FF321E
:10159000C0E90112C16001610021016070470021B2
:1015A0000161704730B50B685A1C02D000F1080287
:1015B00002E0026904E02246546825689D42FAD997
:1015C00053684B6099608A60516008610168491CEA
:1015D000016030BD42684A6093688B6093685960CF
:1015E000916008610168491C0160704710B5FEF701
:1015F0001FFE04480168491C0160BFF34F8FBFF311
:101600006F8F10BD3800000203490868401E086053
:1016100001D1FEF714BE70473800000210B5040077
:1016200008D000F06DF82046FEF76AFEBDE81040D5
:1016300000F0B8B910BD000006484FF47A71006898
:10164000B0FBF1F14FF0E020491E4161072101613B
:10165000704700005400000204494FF080500860B9
:10166000BFF34F8FBFF36F8F7047000004ED00E0B2
:1016700070B5020018D000F043F80E4CE0688518F1
:101680002068001DFFF73AFF38B9206890F82C1049
:10169000012088402169814321612846FFF7CCFD64
:1016A00000F080F9002803D1BDE87040FFF7D4BFF7
:1016B00070BD0000000000021FB5002400940194DA
:1016C0000294234680220AA10B48039400F05AF8A2
:1016D00001280BD1FEF7ACFD0848611E8162012193
:1016E0004161C460BDE81F4000F034B81FBD000078
:1016F00049444C4500000000C112000000000002F7
:101700000248C16A491CC162704700000000000223
:101710000E48C16A11B10121C16170470021C16148
:1017200001690B4AB1FA81F1C1F11F0101EB81019D
:1017300002EB810101F108034A6852684A609A424B
:1017400001D152684A60D168016070470000000210
:1017500058000002094810B5016841F07871016035
:10176000016841F060410160FFF766FF0449002015
:101770000860FEF72BFD002010BD000020ED00E00A
:10178000380000022DE9FF5F8A46DDE90F909100E5
:101790000E9F9B461546884610B90846FFF7B1FDD7
:1017A000060018D06020FFF7ACFD0400304610D0D2
:1017B000A52241462063FEF796FD6FF0030101EB81
:1017C0008501206B3D46084420F007085146002063
:1017D00004E0FFF723FF4FF0FF3481E022180B5C99
:1017E00082F834300A5C12B1401C1428F6D300266B
:1017F00084F84760082D00D30725E562C4E9145634
:10180000201DFFF7CCFE04F11800FFF7C8FE24618D
:10181000C5F108016462A161A66584F85C605A465E
:1018200040460099FFF77AFD2060B9F1000F01D022
:10183000C9F80040FFF7DAFE2B4DA868401CA860ED
:101840002868DFF8A88010B1686940B32CE02C60EC
:10185000A868012828D1002606EB860108EB810044
:10186000FFF792FE761C082EF6D32048A030FFF733
:101870008BFE1E48B430FFF787FE1C48C830FFF7C8
:1018800083FE1A48DC30FFF77FFE1848F030FFF780
:101890007BFE1648A03028631430686304E0286893
:1018A000C06AB84200D82C60686A0121401C686296
:1018B000A064E06A2A6981401143296100EB80013C
:1018C00008EB8100211DFFF785FE0124FFF79CFE38
:1018D000686928B12868C06AB84201D2FFF7BCFE27
:1018E00004B02046BDE8F09F00000002580000024E
:1018F0002DE9F041294C0026E06A40B1A069401C66
:10190000A061E06900B101263046BDE8F081E068E1
:10191000401CE060E76847B9206B616B216360633E
:10192000206A401C2062FFF7D9FCA06ADFF87080B3
:10193000874209D3206B006880B1206BC068C568FE
:10194000686887420DD2A0622068C06A00EB8001FF
:1019500058F821000128D4D90126D2E74FF0FF30F2
:10196000F1E7281DFFF7CAFDA86A18B105F11800B4
:10197000FFF7C4FDE86A012122698140114321611A
:1019800000EB800108EB8100291DFFF723FEE86AC8
:101990002168C96A8842CDD30126CBE70000000246
:1019A000580000022DE9F0470027FFF71FFE234CE7
:1019B000E06A401EE062E06A98BBA168204E012008
:1019C00079B3A6F1C80980463068E8B1F068C56807
:1019D00005F11800FFF792FD281DFFF78FFDE96A5A
:1019E000226908FA01F01043206101EB810109EB43
:1019F0008100291DFFF7EEFDE86A2168C96A884267
:101A0000E2D3C4F81C80DFE7A06958B14546A0695D
:101A100040B1FFF76DFF00B1E561A069401EA06114
:101A2000F5E705E0E069012802D10127FFF714FE80
:101A3000FFF7EAFD3846BDE8F0870000000000022D
:101A400020010002001BB700008000001903010004
:101A50000001010101010104060807050102040853
:101A600010000000705A016800900000001980000A
:101A7000000380000101800000028000001E800041
:101A80000011800000198000010180000017800013
:101A900000168000000B8000001F80000103000082
:101AA000000400000005000000070000000800001E
:101AB00000090000000A0000010480000105800008
:101AC000010680000107800001088000000D8000F1
:101AD00000128000000B8000001F8000010B8800B6
:101AE000001B000000000002580000003801000048
:101AF000581B0000580000029064000054010000D0
:101B000000000000000000000000000000000000D5
:101B100000000000000000000000000000000000C5
:101B200000000000000000000000000000000000B5
:101B30000000000000000000AAAAAAAA00000000FD
:101B40000000000000000000000000000000000095
:081B500000000000000000008D
:04000005000000FDFA
:00000001FF
