:020000040000FA
:10000000D86800026902000071020000730200005B
:1000100000000000000000000000000000000000E0
:10002000000000000000000000000000C50100000A
:10003000000000000000000009020000B1250000DF
:100040007D0200007D0200007D0200007D020000B4
:100050007D0200007D0200007D0200007D020000A4
:100060007D0200007D0200007D0200007D02000094
:100070007D0200007D0200007D0200007D02000084
:100080007D0200007D0200007D0200007D02000074
:100090007D020000E92500007D0200007D020000D5
:1000A0007D0200007D0200007D0200007D02000054
:1000B0007D0200007D0200007D0200007D02000044
:1000C0007D0200007D0200007D0200007D02000034
:1000D0007D0200007D0200007D0200007D02000024
:1000E0007D0200007D0200007D0200007D02000014
:1000F0007D0200007D0200007D02000000F002F899
:1001000000F051F80AA090E8000C82448344AAF160
:100110000107DA4501D100F046F8AFF2090EBAE85E
:100120000F0013F0010F18BFFB1A43F0010318472B
:10013000DC3A0000FC3A0000103A24BF78C878C1CD
:10014000FAD8520724BF30C830C144BF04680C60DD
:10015000704700000023002400250026103A28BF25
:1001600078C1FBD8520728BF30C148BF0B60704729
:1001700003681B0A28BF41F08001642900F0CA818E
:10018000782900F04182E42900F00082632900F020
:100190006884002070471FB59DE8030000F066FBEF
:1001A0001FBD10B510BD00F0DDFC1146FFF7F3FFD9
:1001B00002F0F8FB00F0FBFC03B4FFF7F2FF03BC16
:1001C00002F035FA204B19680868B0E8F00F80F3A8
:1001D0000988BFF36F8F4FF0000080F311884EF055
:1001E0000D0E70470000000006480068006880F3AC
:1001F000088862B661B6BFF34F8FBFF36F8F00DF21
:1002000000BF00BF08ED00E0EFF30980BFF36F8F80
:100210000D4B1A6820E9F00F106008B54FF0A000F0
:1002200080F3118803F0F0FA4FF0000080F311889A
:10023000BDE8084019680868B0E8F00F80F3098845
:10024000BFF36F8F704700BF0C000002EFF3118007
:100250004FF0A00181F31188704780F31188704737
:10026000EFF30580704700000848804708480047C2
:10027000FEE7FEE7FEE7FEE7FEE7FEE7FEE700003B
:1002800004480549054A064B70470000E125000077
:10029000FD000000D8650002D8680002D8660002A0
:1002A000D866000270B50446051F00F0C5FA006864
:1002B000002C14BF446870BD002C18BFAC423CBF7A
:1002C00020466468F8D301680A18AA4218BF45603E
:1002D00003D12A6805461144016028684119A142EA
:1002E0001CBF6C6070BD616869602168084428604B
:1002F00070BD70477047704770477047FFFFFFFF42
:1003000070B5064600F098FA056806F10B0020F07B
:100310000704B4429CBF002070BD2B466A68BAB186
:100320001068A04210D304F1080188423CBF506815
:10033000586007D35168101941601168091B0160AA
:1003400058601460101D70BD13465268002AE7D132
:100350002146284600F076FA0028DED170BD53EA27
:10036000020C00F069802DE9F04B4FF00006002BE5
:100370001FBFB3FA83F503FA05F424FA05F65E40CD
:1003800012BF1643B2FA82F502FA05F4C5F1200550
:100390001EBF22FA05FC44EA0C04203556EA044C40
:1003A0004FEA144418BF641C4FF000084FF00009D6
:1003B000904271EB030C39D3002919BFB1FA81F7D0
:1003C00001FA07F6B0FA80F700FA07F6C7F120073E
:1003D0001EBF20FA07FC46EA0C062037B6FBF4FCE9
:1003E000A7EB0507103F07F01F0BCBF120060CFA17
:1003F0000BFB2CFA06F644BFB3460026202FA4BF01
:100400005E464FF0000B5BEA060C08BF4FF0010B95
:1004100019EB0B09ABFB027C48EB0608C01B06FB83
:1004200002CC0BFB03CC71EB0C01C1E70B4602467F
:1004300041464846BDE8F08B13B54FF000004FF041
:100440000001AFF30080BDE81C4070470FB41CB53D
:10045000074B06AA7B4469460090059800F0DFFA36
:100460000020694600F0EEFA1CBC5DF814FB0000A9
:10047000ED05000070B5044685690068C10601D528
:10048000302600E02026C00707D070BDD4E9012146
:1004900030469047206A401C20626D1EF6D570BD24
:1004A00070B5044685690078C00707D170BDD4E9EE
:1004B000012120209047206A401C20626D1EF6D545
:1004C00070BD70B50C460546012A05D02878800617
:1004D00000D5EA69002302E0012305E05B1C93429A
:1004E00002D2E05C0028F9D1A869E618C01AA86118
:1004F000286A184428622846FFF7BCFF04E0D5E9C3
:10050000012114F8010B9047B442F8D32846FFF7B5
:10051000C7FF70BD2DE9F04106460024106875291B
:10052000314616A510D0AFF30080002802DA404211
:1005300013A507E031688A0701D512A502E0490733
:1005400004D511A5012401E0AFF3008000210A22A7
:1005500006F1240709E0B0FBF2FCB0FBF2F302FB6A
:100560001C00303078541846491C0028F3D123462B
:100570002A463046BDE8F04100F0F3B90000000023
:100580002D0000002B000000200000002DE9F041AC
:100590008046D21D22F007020025D2E90002F5298B
:1005A00015A614D0011E72F1000106DA0023D0EB6B
:1005B000030063EB020211A608E0D8F800108B07D5
:1005C00001D50FA602E0490701D50EA60125114667
:1005D000002408F1240704E000F07EF930323A5597
:1005E000641C50EA0102F7D12B46324621464046B0
:1005F000BDE8F04100F0B5B9000000002D0000009A
:100600002B0000002000000070B504460D46214676
:100610001068AFF300802188090502D50F4A7A449B
:1006200002E00E4A7A440E32002104F1240305E070
:1006300000F00F060009965D5E54491C0028F7D1B2
:1006400020780023000704D5702D02D009B10223C1
:1006500011322046BDE8704000F083B9AF3500008C
:100660002DE9F05F894604464FF0000ADFF874B1C7
:10067000FB44C0F820A02046E1688847002874D0D9
:10068000252806D0D4E901219047206A401C206229
:10069000F1E700265F462046E168884720280546A6
:1006A00007DB312D05D2781910F8200C08B106436C
:1006B000F1E7B00701D526F00406C4F81CA0002716
:1006C000C4F818A02A2D09D0284601F0A9FF38B394
:1006D00004EB8708303DC8F8185019E059F8041B9E
:1006E000204604EB87029161E1688847012F0546A7
:1006F00018D1E069002820DA26F020061DE0D8F89D
:10070000180000EB800005EB40003038C8F81800F6
:100710002046E1688847054601F082FF0028EED1B7
:10072000012F0AD02E2D08D12046E16888477F1C72
:100730000546022F46F02006C4DBA069002803DA34
:10074000404246F00106A061F00701D026F01006F5
:100750006C2D0BD0682D09D04C2D39D06A2D35D099
:10076000742D35D07A2D33D016E038E0E1682F466D
:1007700020468847B842054609D16C2F26D04FF451
:100780008060E168064320468847054604E06C2FF8
:100790001AD04FF4807006430DB3A5F1410019281B
:1007A00002D8203546F400664A462946204626608F
:1007B0004E46FFF7DDFC80B101280BD0F61D26F078
:1007C000070000F1080956E74020E4E78020D8E759
:1007D0000020D6E706F104094DE7284652E7206AD3
:1007E000BDE8F09F8535000010B5431C02E010F80D
:1007F000011B71B18107FAD14FF0013202C88C1A86
:100800008C4314EAC211F9D0C01A0A0603D0C01EE4
:1008100010BDC01A10BD0A0401D0801E10BD09020F
:10082000FCD0401E10BD02F0FF0343EA032242EA5F
:10083000024200F024B90000004870477C650002C5
:100840007047704738B504460A460020694600F0F4
:1008500084F9002808BF38BD02460099204600F000
:1008600033F9012038BD012000F048B9F8B5AFF3E5
:100870000080054600200C46102000BF0646A8193F
:10088000A0420DD932466946002000F066F9070003
:1008900008BF00F033F90098A04218BF0546C419FC
:1008A000FFF7CAFF05600746F01D20F00700461954
:1008B000284600F00AF8B44208BFF8BDA21B314632
:1008C0003868BDE8F84000F0FFB800210160C0E9D9
:1008D000011070471020704730B5B0F10A024FEA9E
:1008E000900E71F100034EEA817EB0EB0E0061EBD9
:1008F00091014FEA101E4EEA017E10EB0E0041EB13
:1009000011114FEA102E4EEA016E10EB0E0041EB72
:1009100011214FEA104E4EEA014E10EB0E0041EB52
:100920001141401841F100014FEAD00040EA417006
:100930004FEAD10110EB80054FEA810444EA90743C
:1009400044EB01046D1944EB0404521BA3414FF026
:10095000000348BF0A3200D530BD401C41F1000100
:1009600030BD2DE9F0470D4699469246044600F108
:1009700024080168880604D5E06921F0100121608F
:1009800000E00120A84201DD471B00E00027A1692B
:100990007A1902EB0900081AA0612078C00602D477
:1009A0002046FFF767FD002608E0D4E901211AF888
:1009B00006009047206A401C761C20624E45F4DBFE
:1009C0002078C0060AD52046FFF754FD06E0D4E99A
:1009D000012130209047206A401C2062381EA7F178
:1009E0000107F4DC07E0D4E9012118F8050090477D
:1009F000206A401C2062281EA5F10105F3DC204678
:100A0000FFF74EFD2078000602D50220BDE8F087F2
:100A10000120FBE701694A1C02610878704700B5B4
:100A20008FB0CDE901310021059105497944CDE927
:100A3000031011466846FFF713FE0FB000BD00001B
:100A4000E5FFFFFF0A6802F8010B0A60704710B566
:100A5000436913B1AFF3008001E0FFF732FD0120DD
:100A600010BD127800F124010A7000224A700122A0
:100A7000EDE711684FF0FF32E9E74FF0000204297B
:100A8000C0F0128010F0030C00F04180CCF1040C97
:100A9000BCF1020F18BF00F8012BA8BF20F8022BF1
:100AA000A1EB0C0100F033B85FEAC17C24BF00F871
:100AB000012B00F8012B48BF00F8012B7047000004
:100AC0000048704774650002034640688C46002861
:100AD00018BF88423CBF03464068F8D318681844E2
:100AE000884207D00CF1030020F00700001D411AD6
:100AF000521A0146081D0A60FFF7D4BB10B500F07A
:100B000065F8BDE8104000F05BB84FF0000200B59A
:100B1000134694469646203922BFA0E80C50A0E820
:100B20000C50B1F12001BFF4F7AF090728BFA0E8CE
:100B30000C5048BF0CC05DF804EB890028BF40F89A
:100B4000042B08BF704748BF20F8022B11F0804FDC
:100B500018BF00F8012B7047704710B501F052FD27
:100B600010BD70477546FFF7ABFFAE4605006946FE
:100B7000534620F00700854618B020B5FFF780FBEC
:100B8000BDE820404FF000064FF000074FF000088E
:100B90004FF0000B21F00701AC46ACE8C009ACE80F
:100BA000C009ACE8C009ACE8C0098D46704710B573
:100BB0000446AFF300802046BDE81040FFF7FCBAC2
:100BC000002801D001F033BD7047000010B50128A6
:100BD00005D0002103A000F021F8012010BD09A1DB
:100BE000F8E7000053494752544D454D3A204F75A0
:100BF00074206F662068656170206D656D6F727915
:100C0000000000003A2048656170206D656D6F72CC
:100C10007920636F727275707465640070B50546F3
:100C20000C460A2000E06D1C00F011F835B1287860
:100C30000028F8D102E0641C00F009F814B1207813
:100C40000028F8D1BDE870400A20AFF3008008B555
:100C500069468DF800000320ABBE08BD154810B5ED
:100C60008021416381640D220021012000F00EFAF1
:100C700000211222084600F009FA00F07DF8002158
:100C800000F022F90C4C204600F086FA206820F093
:100C90007C0040F0040020604FF4E131204600F079
:100CA00095FA206840F001002060606820F0400064
:100CB000606010BD00800F40000004402DE9F0414D
:100CC000FFF7CCFF4FF0E054204600F033F90C4B17
:100CD0000021DD1E0122585C6E5C04EB800000F5F3
:100CE0000050076802FA06F637430760585C6E5CEE
:100CF00004EB40108255491C0329ECDBBDE8F08170
:100D0000BF3B000010B503280BD2064A054C4FF03C
:100D1000E053E41E125C205C03EB421281F00101FF
:100D2000115410BDBF3B0000024681EA4200014B56
:100D3000185C70473003000206490122202803D3C3
:100D400051F8C83F203801E051F8C43F8240934336
:100D50000B6070470040074006490122202803D35A
:100D600051F8C83F203801E051F8C43F8240134396
:100D70000B607047004007400448D0F8840010F032
:100D8000FF0F01D000F01EB800F002B8004007408D
:100D900008490020D1F8801011F0FF0105D0012989
:100DA00005D0022900D10448704704487047044820
:100DB0000068704700400740D8AC0700001BB70030
:100DC000B43B00000A490020D1F8841011F0FF0163
:100DD00008D0012908D0022908D0032901D10548EB
:100DE00000687047FFF7D4BF00F028B800F02EB8B5
:100DF00000400740B83B000000F03F02521C01FBDE
:100E000002F0704710F0030003D0012803D0002047
:100E1000704702487047024800687047001BB700DF
:100E2000B43B000010B5FFF7A7FF0349D1F8C0108D
:100E3000B0FBF1F010BD0000004007400248D0F8C0
:100E4000A000FFF7DFBF00000040074010B5FFF72C
:100E5000F5FF01460348D0F89801BDE81040FFF7C0
:100E6000CBBF00000040074070B50E4DD5F8D04014
:100E7000B4B1FFF781FFB0FBF4F0D5F828210021D1
:100E800092B2D34313F0FF0F09D10902120A41EACB
:100E900010610002002302F58072FFF760FA70BD56
:100EA000002070BD004007400649042804D3001FFD
:100EB000C0B2C1F88400704741F8800F002048603C
:100EC000704700000040074070B50E460446FFF72B
:100ED00053FF0146B0FBF4F000B901200D4DC2B242
:100EE000C5F8D02000227EB104FB101304FB00F2F1
:100EF000190E18020023FFF732FA0006000C40F02A
:100F0000FF00C5F8280101E0C5F82821BDE87040C0
:100F1000FFF7AABF004007400549D1F8242100F09F
:100F2000030022F4405242EA0030C1F82401704725
:100F30000040074010B50E20FFF70EFF0F20FFF70F
:100F40000BFF1020FFF708FF0B20FFF705FF0B2416
:100F5000204600F0A1F82046BDE8104000F0AEB8F1
:100F600010B500EBC11444F8223010BD10B500EBF1
:100F7000C11444F8223010BD10B500EBC11444F880
:100F8000223010BD10B50C46FFF74CFFB0FBF4F05B
:100F9000401E10BD0A7802F00F02426042684B7892
:100FA00003F00F0342EA0312426042688B7803F0B9
:100FB0000F0342EA03224260C978002906D0426842
:100FC000491E01F00F0142EA013141607047000003
:100FD000084910B5884204D12A20FFF7BDFE2A2017
:100FE00003E02920FFF7B8FE2920BDE8104000F0FB
:100FF00080B8000000C0044010B5026802F0010291
:10100000002A05D0026840F6BC7302EA03020260BF
:101010004A788B784C6842EA03020B7843EA04036F
:1010200042EA03020260098941624FF0BC0181601B
:1010300003D0016841F00101016010BD0207520EAA
:1010400000098300054810B503441868FF24944044
:10105000A04391400143196010BD0000008003408F
:1010600070B506460C46154605EB4410C1B2304635
:10107000FFF7E4FF70BD70B506460C46154605EB5C
:101080004410C1B23046FFF7D9FF70BD02EB4111E9
:10109000C9B2FFF7D3BF0000074A0121202805D3BA
:1010A000936C203881400B4393647047536C8140AC
:1010B0000B4353647047000000400740074A01217A
:1010C000202805D3936C203881408B43936470476C
:1010D000536C81408B4353647047000000400740CD
:1010E00010B50446FFF7D8FF2046BDE81040FFF7D3
:1010F000E5BF10B50446FFF7CFFF2046BDE810401E
:10110000FFF7DCBF044AD2F80812044B194018401C
:101110000843C2F8080270470040074078FFFF010B
:10112000044AD2F80812044B194018408143C2F80F
:10113000081270470040074078FFFF0170B510208B
:10114000FFF7EEFF0820FFF7EBFF114C0020C4F87B
:10115000A0004FF480052846FFF7D4FF04210220A9
:1011600060F39F11C4F898112846FFF7D9FF00BF1C
:10117000D4F89C0110F0010FFAD00120C4F8C0008F
:101180000220FFF7C9FEBDE870400620FFF78CBEC5
:1011900000400740FFF7D2BF10B5044601F07EFAC9
:1011A000FFF7DAFD0748844201D1312005E0064807
:1011B000844201D1322000E03320BDE81040FFF727
:1011C0008FBF0000000004400040044070B50D4691
:1011D0000446FFF749FE2901B0FBF1F1491E2162E7
:1011E00070BD00000148406870470000001000E03A
:1011F0000848016811F0807F18BF7047016841F00E
:1012000080710160044800214160016841F00101E2
:1012100001607047FCED00E0001000E010B589228D
:1012200000201DE000F0800313B180EA020300E01B
:1012300003460D4C235401210FE00B4B1B5C5B0656
:101240001B0E094C235423461B5C03F080031BB187
:1012500023461B5C53402354491C0829EDDB401CEA
:10126000FF28DFDD10BD00003003000210B50C20A8
:10127000FFF772FD8023102200211448FFF776FE4D
:101280008023002211461148FFF770FE80231C22A4
:1012900000210E48FFF76AFE80231B2200210B4825
:1012A000FFF764FE10213120FFF7C8FE0021322035
:1012B000FFF7C4FE1C213320FFF7C0FE1B21402096
:1012C000FFF7BCFE0C20FFF737FD10BD00800F407C
:1012D00010B580230D2200210948FFF74DFE802321
:1012E000122200210648FFF747FE0D2200210120AF
:1012F000FFF7C1FE122200210846FFF7BCFE10BD19
:1013000000800F400EB500BFFFF7D8FC01F060F978
:10131000FFF76EFF00210846FFF7F4FC00210120D3
:10132000FFF7F0FC00210220FFF7ECFC4FF4E13066
:1013300001F02CFB00F0CBBF9F4801F0BFF9044641
:101340000F2C62D2DFE804F008610D12191E2E3353
:101350003E43484D52575C0098A1A148FFF776F8EC
:1013600053E0A0A19E48FFF771F84EE0A74802782D
:10137000A7A19B48FFF76AF847E0B0A19848FFF79C
:1013800065F842E0A1480179C078A04A9278CDE999
:10139000002002919D4843780278B1A19048FFF760
:1013A00055F832E0BDA18E48FFF750F82DE0974880
:1013B00080780090954843780278C0A18848FFF76C
:1013C00045F822E0C9A18648FFF740F81DE0CFA10B
:1013D0008348FFF73BF818E0D6A18148FFF736F8BD
:1013E00013E0DBA17E48FFF731F80EE0E0A17C4876
:1013F000FFF72CF809E0E8A17948FFF727F804E0A7
:10140000EDA17748FFF722F800BF00BF744801F054
:10141000B9FC2CB101210220FFF774FC00BFFEE7EC
:10142000EFA001F0AFFC644890F8540030B10128FF
:1014300009D002280CD0032814D10EE0F1A168488D
:10144000FFF704F80EE0F6A16548FEF7FFFF09E09C
:10145000FAA16348FEF7FAFF04E0FEA16048FEF738
:10146000F5FF00BF00BF5E4801F08CFC524890F8C9
:101470002C20FEA15A48FEF7E9FF594801F082FCF2
:101480004D4890F82E30C08D0212FDA15448FEF751
:10149000DDFF534801F076FC474890F8341090F88F
:1014A0003000454A128EC2F30722CDE90020029196
:1014B0004148006BC0F307433F48006B020EF5A1A3
:1014C0004748FEF7C3FF464801F05CFC3A4890F8F5
:1014D0005400032809D1384890F83C20ECA140483A
:1014E000FEF7B4FF3E4801F04DFC334890F835005C
:1014F00000F00F03304890F835000211EBA1384896
:10150000FEF7A4FF364801F03DFC2B48EBA1826BAF
:101510003348FEF79BFF324801F034FC264890F830
:10152000540003280FD1244890F83E0000F00F0328
:101530002148C08F40F2CD7101EB2012E3A1284871
:10154000FEF784FF0EE01C4890F83E0000F00F0309
:101550001948C08F4FF4FA6101EB2012DBA120483B
:10156000FEF774FF1E4801F00DFC13484FF4801283
:101570000023D0E912713846FEF7F1FE05462A46EF
:101580000B46D9A11648FEF761FF154801F0FAFB9A
:101590000948DAA1026D1248FEF758FF104801F021
:1015A000F1FB05480278DBA10D48FEF74FFF0C4820
:1015B00001F0E8FB0048B5E1580000020D0A2D2DAE
:1015C0002D2D2D3E4361726420696E697469616CD2
:1015D000697A6174696F6E204F4B0D0A000000003C
:1015E000B00000024572726F723A204552524F525B
:1015F0005F474F5F49444C455F53544154455F54E6
:10160000494D454F55540D0A0000000000000002EE
:101610004572726F723A204552524F525F474F5F88
:1016200049444C455F53544154455F524553504FD4
:101630004E53453A25640D0A000000004572726F52
:10164000723A204552524F525F53454E445F4946CD
:101650005F434F4E445F54494D454F55540D0A006A
:101660004572726F723A204552524F525F53454E47
:10167000445F49465F434F4E445F524553504F4E7F
:1016800053453A2530327825303278253032782566
:10169000303278253032780D0A0000004572726FC2
:1016A000723A204552524F525F524541445F4F4378
:1016B000525F54494D454F55540D0A004572726FA3
:1016C000723A204552524F525F524541445F4F4358
:1016D000525F524553504F4E53453A25303278258C
:1016E000303278253032780D0A0000004572726F72
:1016F000723A204552524F525F4150505F434D4421
:101700005F54494D454F55540D0A00004572726FA4
:10171000723A204552524F525F53445F53454E44F4
:101720005F4F505F434F4E445F54494D454F5554B2
:101730000D0A00004572726F723A204552524F52A4
:101740005F494E49545F54494D454F55540D0A0069
:101750004572726F723A204552524F525F53454E56
:10176000445F4349445F54494D454F55540D0A0069
:101770004572726F723A204552524F525F53454E36
:10178000445F4349445F544F4B454E5F54494D4578
:101790004F55540D0A0000004572726F723A204591
:1017A00052524F525F53454E445F4353445F544936
:1017B0004D454F55540D0A004572726F723A2045DF
:1017C00052524F525F53454E445F4353445F544F10
:1017D0004B454E5F54494D454F55540D0A0000008E
:1017E0000D0A2D2D2D2D2D2D2D2D2D2D4341524406
:1017F00020494E464F2D2D2D2D2D2D2D2D2D2D2DAE
:101800002D0D0A004361726420547970653A2053AB
:101810004420436172642076312E310D0A000000AD
:101820004361726420547970653A205344204361C7
:1018300072642076322E300D0A000000436172641B
:1018400020547970653A20534448432043617264C0
:101850000D0A00004361726420547970653A204D8E
:101860004D4320436172640D0A0000004D616E75A6
:10187000666163747572657249443A2564000000BC
:101880000D0A4F454D5F4170706C6949443A2563BC
:10189000256300000D0A50726F644E616D653A2534
:1018A0006325632563256325630000000D0A5072DC
:1018B0006F645265763A25642E2564000D0A5072D5
:1018C0006F64534E3A307825303858000D0A4D6118
:1018D0006E7566616374446174653A253034642DB5
:1018E00025303264000000000D0A436170616369B5
:1018F00074793A256C6C64204D4200000D0A426CEC
:101900006F636B2053697A653A2564206279746548
:10191000730000000D0A4353445374727563743AA4
:10192000256400004278F3A1F748FEF78FFDF648E2
:1019300001F028FAF548C278F5A1F348FEF786FDD4
:10194000F14801F01FFAF148C078C010102859D2B0
:10195000DFE800F0080D12171C21262B30353A3F26
:1019600044494E53EEA1E848FEF770FD4AE0EFA16E
:10197000E548FEF76BFD45E0EDA1E348FEF766FDA7
:1019800040E0ECA1E048FEF761FD3BE0EAA1DE4863
:10199000FEF75CFD36E0E9A1DB48FEF757FD31E0DC
:1019A000E7A1D948FEF752FD2CE0E6A1D648FEF7A4
:1019B0004DFD27E0E4A1D448FEF748FD22E0E3A175
:1019C000D148FEF743FD1DE0E1A1CF48FEF73EFD03
:1019D00018E0E0A1CC48FEF739FD13E0DEA1CA48CB
:1019E000FEF734FD0EE0DDA1C748FEF72FFD09E04C
:1019F000DBA1C548FEF72AFD04E0DAA1C248FEF7E4
:101A000025FD00BF00BFC04801F0BCF9BF48C07849
:101A100000F0070008282DD2DFE800F004090E13BB
:101A2000181D2227D0A1B848FEF710FD22E0D0A152
:101A3000B548FEF70BFD1DE0D0A1B348FEF706FD4B
:101A400018E0D1A1B048FEF701FD13E0D0A1AE48E7
:101A5000FEF7FCFC0EE0D1A1AB48FEF7F7FC09E075
:101A6000D1A1A948FEF7F2FC04E0D1A1A648FEF7F7
:101A7000EDFC00BF00BFA44801F084F9A34802793F
:101A8000CEA1A148FEF7E2FC9F4801F07BF99F48F8
:101A90004279CDA19C48FEF7D9FC9B4801F072F930
:101AA0009A484079C0F3C300102859D2DFE800F00B
:101AB000080D12171C21262B30353A3F44494E534E
:101AC00097A19148FEF7C2FC4AE098A18E48FEF724
:101AD000BDFC45E096A18C48FEF7B8FC40E095A11E
:101AE0008948FEF7B3FC3BE093A18748FEF7AEFCC4
:101AF00036E092A18448FEF7A9FC31E090A182482B
:101B0000FEF7A4FC2CE08FA17F48FEF79FFC27E0A6
:101B10008DA17D48FEF79AFC22E08CA17A48FEF761
:101B200095FC1DE08AA17848FEF790FC18E089A199
:101B30007548FEF78BFC13E087A17348FEF786FC1F
:101B40000EE086A17048FEF781FC09E084A16E4892
:101B5000FEF77CFC04E083A16B48FEF777FC00BF36
:101B600000BF694801F00EF96848407900F00300B1
:101B700030B1012809D002280CD0032814D10EE07E
:101B800097A16148FEF762FC13E099A15E48FEF759
:101B90005DFC0EE099A15C48FEF758FC09E09BA1B2
:101BA0005948FEF753FC04E09CA15748FEF74EFC51
:101BB00000BF00BF544801F0E5F85448C2889AA11C
:101BC0005148FEF743FC504801F0DCF84F48017AD9
:101BD000012000FA01F34D48027A99A14A48FEF724
:101BE00035FC494801F0CEF84848427A9AA1464867
:101BF000FEF72CFC444801F0C5F84448407A20B96F
:101C00009AA14148FEF722FC03E099A13E48FEF765
:101C10001DFC3D4801F0B6F83C48827A96A13A484E
:101C2000FEF714FC384801F0ADF83848807A20B946
:101C30008EA13548FEF70AFC03E08DA13248FEF77D
:101C400005FC314801F09EF83048C27A90A12E4838
:101C5000FEF7FCFB2C4801F095F82C48C07A20B91F
:101C600082A12948FEF7F2FB03E081A12648FEF796
:101C7000EDFB254801F086F82448027B8AA1224822
:101C8000FEF7E4FB204801F07DF82048007B20B9F6
:101C900076A11D48FEF7DAFB03E075A11A48FEF7AE
:101CA000D5FB194801F06EF8184890F85400022846
:101CB00017D01648027D80A11348FEF7C7FB1248D3
:101CC00001F060F81148007D082809D2DFE800F033
:101CD00004100F0E0D0C0B0A7EA10B48FEF7B6FB8D
:101CE0001FE1E0E118E112E10CE106E100E1FAE0B8
:101CF000F4E000000D0A5379735370656356657202
:101D000073696F6E3A256400B0000002580000024B
:101D10000D0A544141433A307825782800000000EC
:101D2000726573657276656400000000312E3000C4
:101D3000312E3200312E3300312E3500322E30005C
:101D4000322E3500332E3000332E3500342E300045
:101D5000342E3500352E3000352E3500362E30002D
:101D6000372E3000382E3000207820316E73290055
:101D700020782031306E7329000000002078203157
:101D800030306E73290000002078203175732900EF
:101D90002078203130757329000000002078203130
:101DA0003030757329000000207820316D732900D0
:101DB00020782031306D7329000000000D0A4E5349
:101DC00041433A25640000000D0A4D617842757365
:101DD000436C6B467265633A3078257828000000C2
:101DE0002078203130306B6269742F732900000035
:101DF000207820314D6269742F73000020782031E3
:101E0000304D6269742F7329000000002078203162
:101E100030304D6269742F732900000020726573A1
:101E200065727665642900000D0A43617264436F30
:101E30006D64436C61737365733A30782578000084
:101E40000D0A5264426C6F636B4C656E3A256428D0
:101E500025646229000000000D0A50617274426C12
:101E60006F636B526561643A256428006E6F2900C8
:101E700079657329000000000D0A5772426C6F6388
:101E80006B4D6973616C69676E3A256428000000C8
:101E90000D0A5264426C6F636B4D6973616C6967C4
:101EA0006E3A2564280000000D0A445352496D70B3
:101EB0006C3A2564280000000D0A4D617852644395
:101EC000757272656E745644444D696E3A25642885
:101ED00000000000302E356D41290000FCA1FE48B5
:101EE000FEF7B4FA1DE0FDA1FB48FEF7AFFA18E0DB
:101EF000FCA1F948FEF7AAFA13E0FCA1F648FEF7A8
:101F0000A5FA0EE0FBA1F448FEF7A0FA09E0FBA158
:101F1000F148FEF79BFA04E0FAA1EF48FEF796FAC3
:101F200000BF00BFEC4800F02DFFF848427DF8A14B
:101F3000E948FEF78BFAE84800F024FFF348407DBB
:101F400008282DD2DFE800F004090E13181D2227FF
:101F5000DFA1E148FEF77AFA22E0E0A1DE48FEF7D1
:101F600075FA1DE0DFA1DC48FEF770FA18E0DFA18A
:101F7000D948FEF76BFA13E0DEA1D748FEF766FA00
:101F80000EE0EAA1D448FEF761FA09E0E9A1D248DF
:101F9000FEF75CFA04E0E9A1CF48FEF757FA00BF6C
:101FA00000BFCD4800F0EEFED848827DE5A1CA48CA
:101FB000FEF74CFAC84800F0E5FED448807D0828BA
:101FC0002ED2DFE800F0040A0F14191E2328AFF206
:101FD000FC01C148FEF73AFA22E0BDA1BE48FEF777
:101FE00035FA1DE0BDA1BC48FEF730FA18E0BDA1EE
:101FF000B948FEF72BFA13E0BCA1B748FEF726FA62
:102000000EE0BCA1B448FEF721FA09E0BBA1B2483A
:10201000FEF71CFA04E0BBA1AF48FEF717FA00BFB9
:1020200000BFAD4800F0AEFEB848C27DCCA1AA48C2
:10203000FEF70CFAA84800F0A5FEB448C07D0828B9
:102040002DD2DFE800F004090E13181D2227A0A1ED
:10205000A148FEF7FBF922E0A0A19F48FEF7F6F9A0
:102060001DE0A0A19C48FEF7F1F918E09FA19A4855
:10207000FEF7ECF913E09FA19748FEF7E7F90EE0B1
:10208000AAA19548FEF7E2F909E0AAA19248FEF755
:10209000DDF904E0A9A19048FEF7D8F900BF00BF20
:1020A0008D4800F06FFE9948427EB4A18A48FEF741
:1020B000CDF9894800F066FE9448827EB4A1864836
:1020C000FEF7C4F9844800F05DFE9048C27EB4A1DA
:1020D0008148FEF7BBF9804800F054FE8B48027F30
:1020E000B5A17D48FEF7B2F97B4800F04BFE87486A
:1020F000007F28B9AFF28C217748FEF7A7F904E0FA
:10210000AFF294217448FEF7A1F9734800F03AFE4B
:102110007E48817F012000FA01F37C48827FACA1D8
:102120006D48FEF793F96C4800F02CFE7748C17FAC
:10213000012000FA01F37548C27FABA16648FEF7A3
:1021400085F9654800F01EFE704890F82020ACA18B
:102150006148FEF77BF9604800F014FE6B4890F888
:10216000200028B9AFF2FC215B48FEF76FF904E0CC
:10217000AFF204315848FEF769F9574800F002FE03
:10218000624890F82220A5A15348FEF75FF9524813
:1021900000F0F8FD5D4890F82320A7A14E48FEF717
:1021A00055F94D4800F0EEFD584890F82420A8A1BC
:1021B0004948FEF74BF9484800F0E4FD534890F8D1
:1021C000240020B9A6A14448FEF740F903E0A7A1E6
:1021D0004148FEF73BF9404800F0D4FD4B4890F8E9
:1021E0002520A4A13C48FEF731F93B4800F0CAFD88
:1021F000464890F8250028B9AFF290313648FEF7EE
:1022000025F904E0AFF298313348FEF71FF9324860
:1022100000F0B8FD3D4890F826209BA12E48FEF71F
:1022200015F92D4800F0AEFD384890F8260028B981
:10223000AFF2C8312848FEF709F904E0AFF2D03117
:102240002548FEF703F9244800F09CFD2F4890F83C
:10225000272092A12048FEF7F9F81F4800F092FDD0
:1022600092A000F08FFDFEF7BDFF81464FF0000BFE
:1022700005E09849584600F0C1FD0BF1010BBBF594
:102280007A7FF6D3FEF7AEFF8246934800684FF49C
:102290007A71B0FBF1F0AAEB0901B1FBF0F04FF459
:1022A000FA21B1FBF0F58C4800684912B0FBF1F05F
:1022B000AAEB0901B1FBF0F633464FF4FA2287A1ED
:1022C00005480095FEF7C2F8034800F05BFD25E1E4
:1022D000316D412900000000B0000002356D412938
:1022E0000000000031306D412900000032356D41A1
:1022F0002900000033356D412900000036306D4162
:10230000290000003130306D4129000058000002E2
:102310000D0A4D6178526443757272656E7456444D
:10232000444D61783A2564280000000034356D4141
:102330002900000038306D41290000003230306D36
:10234000412900000D0A4D6178577243757272651C
:102350006E745644444D696E3A25642800000000AE
:102360000D0A4D6178577243757272656E745644EA
:10237000444D61783A256428000000000D0A45723A
:10238000617365477253697A653A256400000000FD
:102390000D0A457261736547724D756C3A2564008C
:1023A0000D0A577250726F74656374477253697A7D
:1023B000653A2564000000000D0A577250726F7470
:1023C0006563744772456E61626C653A25642800E6
:1023D0000D0A57725370656564466163743A2564EB
:1023E00028782564290000000D0A4D617857724253
:1023F0006C6F636B4C656E3A256428256462290016
:102400000D0A5772697465426C6F636B506150615D
:10241000727469616C3A2564280000000D0A436FEC
:102420006E74656E7450726F746563744170706C15
:10243000693A2564000000000D0A46696C65466F24
:10244000726D617447726F75703A25640000000008
:102450000D0A436F7079466C61673A256428000065
:102460006F726967696E616C29000000636F706943
:10247000656429000D0A5065726D577250726F7451
:102480006563743A256428000D0A54656D705772AF
:1024900050726F746563743A256428000D0A4669AA
:1024A0006C65466F726D61743A2564000D0A0D0A01
:1024B0002D2D2D2D2D2D5350492052454144205373
:1024C0005045454420544553542D2D2D2D2D2D2D53
:1024D0002D2D2D0030010002540000020D0A52651E
:1024E0006164207370656564202D20546F74616C85
:1024F0003A25642062797465732C2054696D653ABD
:102500002564206D732C204176673A2564206B6228
:10251000797465732F7365630D0A0000FEF70CBFB5
:1025200000BF0A488168022088430028F9D1084882
:102530000649886100BF054881680120884300285A
:10254000F9D102484069C0B27047000000800440E1
:10255000FF00100700BF05498A6802219143002946
:10256000F9D140F0EA61014A91617047008004406E
:1025700000BF05488168022088430028F9D103483C
:10258000014988617047000000800440FF00500747
:1025900000BF05488168022088430028F9D103481C
:1025A000014988617047000000800440FF00510726
:1025B00010B5FDF74BFE01F0F9F918B14FF080505E
:1025C000024908600020FDF748FE10BD04ED00E060
:1025D00010B5FEF727FC0149086010BD5400000249
:1025E00010B5FEF7D7FD10BD10B54FF04070D0F814
:1025F0000002406AC16902480068884710BD0000B7
:10260000080000020346B2F5C04F01D90020704710
:10261000024808604FF4C040F9E70000740500026A
:1026200030380A2801D2012070470020704730BF9F
:10263000FDE7000001210120094A12680AB10020CB
:102640000CE0084A12680AB1002007E0064A136845
:10265000064A1268521E934200D1022070470000C1
:102660003805000230000002600500021C00000274
:1026700001210020FEF746FB00BFFEE770B50546CE
:102680000026002405E0295D3046FEF74DFB064696
:10269000641C052CF7D3304670BD00000549884204
:1026A00001D1312070470449884201D1322070475E
:1026B0003320704700000440004004402DE9F047FB
:1026C0000446FEF7ABFDFEF7D1FDAC480068AC490F
:1026D000B0FBF1F0401E00F0FF09484600F04AFE52
:1026E0004FF0000803E0FFF753FF08F10108B8F1CD
:1026F0000A0FF8D300214FF4807000F0D3FD10B121
:102700000220BDE8F0879F480078012801D003200F
:10271000F7E74FF4D5714FF4A16000F0C3FD08B1A5
:102720000420EEE79748007800F00400042865D103
:10273000002140F2371000F0B5FD00285CD10021E7
:1027400040F2291000F0AEFD002853D18D480078EA
:1027500000F00400042823D1032084F85400FEF77D
:1027600041FD064600BF002140F2011000F09AFD35
:1027700008B10F20C5E7FEF735FD05468148007812
:10278000012805D1A81B7D490968B0EB510FEAD398
:10279000A81B7A490968B0EB510F6BD30A20B0E748
:1027A000002084F8540000BF002140F2371000F0F0
:1027B00079FD38B9002140F2291000F073FD18B1FD
:1027C00009209EE708209CE7FEF70CFD05466D48B2
:1027D000007800F0010028B1A81B68490968B0EB37
:1027E000510FE1D3A81B65490968B0EB510F41D3E4
:1027F0000A2086E7092084E7082082E761480078FC
:10280000012835D15F48C078012831D15D48007971
:10281000AA282DD1012084F85400FEF7E3FC0646D7
:1028200000BF002140F2371000F03CFD40B94FF0EE
:10283000804140F2291000F035FD18B1092060E711
:1028400008205EE7FEF7CEFC05464E48007800F013
:10285000010028B1A81B49490968B0EB510FE0D32A
:10286000A81B46490968B0EB510F03D30A2048E77B
:10287000052046E7002140F23A5000F013FD08B170
:1028800006203EE73F48807800F00300032801D08F
:10289000072036E794F85400012808D139484078D9
:1028A00000F04000402802D1022084F85400334850
:1028B00000683549B0FBF1F0401E00F0FF094846C2
:1028C00000F058FD94F8541004F12C0000F0EAFADE
:1028D00007460FB1384614E794F85410204600F02C
:1028E000A9FB07460FB138460BE794F8540038B1FE
:1028F00094F85400012803D094F85400032825D1FB
:102900002069401C0021C4E91201207E801C0121A5
:1029100001FA00F0C117D4E91223A2FB00C903FB9E
:10292000009002FB0100C4E912C0217A0120884016
:1029300020650021D4E91223206DA2FB00C903FB0E
:10294000009002FB0100C4E912C015E094F85400A5
:10295000022811D12069401C4FF40071A0FB010234
:102960004B000021A0FB03C902FB039200FB0120E6
:10297000C4E912C0581020650020C2E654000002CD
:10298000801A06000000000200366E0110B50446F1
:10299000FEF79EFCE0010121FEF796FA00F016FD1D
:1029A00010BD00001FB500F0DFF900F055F8002061
:1029B0000123CDE9003002900346802216A1039046
:1029C000184800F073FF00200123CDE90030029089
:1029D0000346802214A10390164800F067FF0020F0
:1029E0000123CDE9003002900346802212A103901A
:1029F000144800F05BFF00200123CDE90030029075
:102A00000346802210A10390124800F04FFF00F00F
:102A1000C1FE012004B010BD765461736B4C656437
:102A20003100000085340000765461736B4C65649E
:102A300032000000AD340000765461736B55617252
:102A400074000000693800007653444341524454F6
:102A500061736B000513000010B580230D22002167
:102A60001F48FEF77DFA8023122200211C48FEF742
:102A700077FA8023162200211948FEF771FA802385
:102A8000172200211648FEF76BFA80230622002148
:102A90001348FEF765FA8023072200211048FEF74D
:102AA0005FFA0D2200211220FEF7DAFA122200212D
:102AB0001120FEF7D5FA062200210120FEF7D0FAF8
:102AC000072200210846FEF7CBFA16220021232018
:102AD000FEF7C6FA172200212220FEF7C1FA10BD28
:102AE00000800F4010B504460E48006844600E4850
:102AF0000068844207D20B480168091D0B48006832
:102B000000F0F0FC0CE007480168091D0848006867
:102B100000F0E8FC07480068844201D205480460E0
:102B200010BD00000C000002200000021400000292
:102B3000100000023C0000022DE9F04105460F465E
:102B40001FB9A80000F03EF900E03846064656B12D
:102B5000602000F037F904460CB1266304E03046EB
:102B600000F006FD00E0002424B1A900A522206B9E
:102B7000FDF759FE2046BDE8F081000070B523E066
:102B800000F03AFE1348006808B9012000E0002078
:102B9000054600F09BFFBDB900F0CAFC0D48C068B7
:102BA000C468201D00F058FC0B480068401E0A490C
:102BB00008600A480068401E0849086000F0C8FC28
:102BC000204600F00DF800BF044800680028D7D167
:102BD00070BD00004C0500021C000002180000023D
:102BE00010B50446206B00F0C3FC204600F0C0FC8A
:102BF00010BD000008490968C96A09B100200AE04F
:102C000006490968012901D9002004E0044909683E
:102C1000044A1268881A70470C000002700400020F
:102C20003C0000022000000200BFFFF7A7FF0D4894
:102C30000068012801D900F077FD00F021FCFFF7C2
:102C4000D9FF0446022C0BD300F0D6FDFFF7D2FFCC
:102C50000446022C02D3204600F0C4FC00F036FFEC
:102C6000E3E70000700400022DE9F04704460F4638
:102C700015469946DDF82080002607E0B95D04F18D
:102C800034008155B85D00B902E0761C142EF5D3EE
:102C900000BF002147200155082D00D30725E5621C
:102CA000256500206065201D00F019FC04F1180066
:102CB00000F015FC2461C5F10800A06164620020E9
:102CC000A06584F85C00BDE8F087000010B5002422
:102CD00007E004EB84010F4A02EB810000F0F2FBF5
:102CE000641C082CF5D30C4800F0ECFB0B4800F0FA
:102CF000E9FB0B4800F0E6FB0A4800F0E3FB0A485A
:102D000000F0E0FB044809490860044808490860ED
:102D100010BD00007004000210050002240500022E
:102D2000380500024C050002600500021000000298
:102D3000140000020A490968096809B9012100E084
:102D4000002121B14FF0FF31064A116006E004492D
:102D50000968C968C868034A416811607047000083
:102D6000100000023C00000210B5FFF731FCFDF737
:102D7000A5FF00210846FDF7C5FF10BDFDF766FA67
:102D800000BFFEE710B586B0044601942046FDF76B
:102D90002BFD02900320ADF80C0000208DF80E00F2
:102DA0004FF04070D0F80002406A01A982690448DF
:102DB0000068904708B1FFF75BFC06B010BD00004B
:102DC0000800000270B5044600F016FD2046FDF72D
:102DD00097FA054600F07AFE284670BD001F4FF0B6
:102DE00080730360001F0160001F034B03601438F1
:102DF00002602038704700007D2D00002DE9F0476B
:102E000006460F46244890F85400022800D0760267
:102E1000314640F2111000F045FA10B10120BDE832
:102E2000F0871E48007808B10120F8E7FEF7DAF9CC
:102E3000044600BFFFF774FB8146FEF7D3F9054651
:102E4000B9F1FF0F05D1281B15490968B0EB510FE7
:102E5000F0D3281B12490968B0EB510F01D30120B0
:102E6000DDE7B9F1FE0F03D0FFF782FB0120D6E7C3
:102E70004FF0000805E0FFF753FB07F8010B08F1DE
:102E80000108B8F5007FF6D3FFF772FBFFF770FB80
:102E9000FFF76EFB0020C2E75800000200000002AE
:102EA000540000022DE9FF470446894600214FF4F3
:102EB000857000F0F7F918B10B2004B0BDE8F08779
:102EC000FEF790F9804600BFFFF72AFB0646FEF7A3
:102ED00089F90746FF2E06D1A7EB08005449096877
:102EE000B0EB510FF0D3A7EB080051490968B0EBE4
:102EF000510F01D30C20E0E7FE2E0BD08DF80060BF
:102F0000012504E0FFF70CFB0DF805006D1C102DEA
:102F1000F8D308E0002504E0FFF702FB0DF80500F8
:102F20006D1C102DF8D39DF8000020709DF8010055
:102F30000002608060889DF80210084360809DF860
:102F40000300000660609DF80410606840EA0140DC
:102F500060609DF80510606840EA012060609DF89F
:102F600006106068084360609DF807002072B9F1A0
:102F7000030F26D19DF8080020749DF809006072A7
:102F80009DF80A000006E0609DF80B10E06840EA3A
:102F90000140E0609DF80C10E06840EA0120E0602C
:102FA0009DF80D10E0680843E0609DF80E000007F2
:102FB000000E6082608A9DF80E1040EA1110608257
:102FC00027E09DF8080060729DF809000006E060A7
:102FD0009DF80A10E06840EA0140E0609DF80B109F
:102FE000E06840EA0120E0609DF80C10E0680843CA
:102FF000E060207C9DF80D1040EA111020749DF8CF
:103000000D000007000D6082608A9DF80E100843D5
:1030100060829DF80F004008207501206075FFF761
:10302000A7FAFFF7A5FAFFF7A3FA002045E700008B
:10303000540000022DE9FF4704460D46002140F2EE
:10304000091000F02FF918B10D2004B0BDE8F08789
:10305000FEF7C8F8074600BFFFF762FA8146FEF7A1
:10306000C1F88046B9F1FF0F06D1A8EB07008C49E3
:103070000968B0EB510FEFD3A8EB07008849096846
:10308000B0EB510F01D30E20DFE7B9F1FE0F0BD0EB
:103090008DF80090012604E0FFF742FA0DF80600D3
:1030A000761C102EF8D308E0002604E0FFF738FA6B
:1030B0000DF80600761C102EF8D39DF8000080094C
:1030C00020709DF80000C0F3830060709DF8000040
:1030D00000F00300A0709DF80100E0709DF8020070
:1030E00020719DF8030060719DF8040000019DF8B7
:1030F000051040EA1110E0809DF8050000F00F0077
:1031000020729DF80600C00960729DF80600C0F3A9
:103110008010A0729DF80600C0F34010E0729DF888
:103120000600C0F300102073002060731DB1012D54
:1031300001D0032D29D19DF806008007000D9DF8D0
:10314000071040EA81009DF8081040EA91102061C4
:103150009DF80800C0F3C20020759DF8080000F03B
:10316000070060759DF809004009A0759DF80900E9
:10317000C0F38200E0759DF809008007400F9DF8BC
:103180000A1040EAD11020760DE0022D0BD19DF8F7
:1031900007008006800A9DF8081040EA01209DF88B
:1031A0000910084320611DB1012D01D0022D13D15A
:1031B0009DF80A00C0F3801060769DF80A00800632
:1031C000400E9DF80B1040EAD110A0769DF80B0040
:1031D00000F07F00E07613E0032D11D19DF80A0086
:1031E000C00860769DF80A008007C00E9DF80B109D
:1031F00040EA5110A0769DF80B0000F01F00E07629
:103200009DF80C00C00904F81C0F9DF80C00C0F3D9
:10321000411060709DF80C00C0F38200A0709DF812
:103220000C008007000F9DF80D1040EA9110E0702F
:103230009DF80D00C0F340102071002060719DF8D2
:103240000D0000F00100A0719DF80E00C009E071B2
:103250009DF80E00C0F3801020729DF80E00C0F3A0
:10326000401060729DF80E00C0F30010A0729DF82F
:103270000E00C0F38100E0729DF80E0000F0030024
:1032800020739DF80F00400860730120A0731C3C60
:10329000FFF76EF9FFF76CF9FFF76AF90020D4E643
:1032A000540000022DE9FC4706460D4606F03F009B
:1032B00040F040008DF80000280E8DF80100280C29
:1032C0008DF80200280A8DF80300E8B28DF804009A
:1032D0006846FFF7D3F9012101EB4000C0B28DF839
:1032E0000500002404E01DF80400FFF733F9641C16
:1032F000062CF8D3FDF776FF814600BFFFF710F9E3
:103300008046FDF76FFF074608F0800030B1A7EB5D
:10331000090016490968B0EB510FEFD3A7EB09007C
:1033200012490968B0EB510F02D30120BDE8FC87B8
:10333000002406E00E4800F80480FFF7F1F880460C
:10334000641CC6F303208442F4D306F47F40B0F536
:10335000885F08D100BFFFF7E3F88046B8F1FF0FA0
:10336000F9D1FFF705F90020E0E700005400000262
:10337000000000021FB504461348FDF729FEADF812
:103380000C4004208DF8040000208DF805008DF815
:103390000600029001A90C48FDF72EFE00208DF8D2
:1033A00000008DF801008DF802008DF803006946D9
:1033B0000548FDF7EFFD00BF0348006840F001003D
:1033C0000149086000BF1FBD008004403EB51D4A92
:1033D00007CA8DE807001C48FDF7DEFE01201B49E7
:1033E000086000BF4FF04071D1F80012496A0868C8
:1033F0008047402801D900203EBD4FF04070D0F8F2
:103400000002406A124942680F489047114908601B
:103410000846006808B90020EEE7FDF703FD0090BC
:103420004FF04070D0F80002406A6946826809484F
:103430000068904704460548D038C0F8284101206C
:10344000DAE70000A83B000000000440D04007403D
:10345000300400020800000201460A69D1E9013087
:103460009860D1E9010358605068884201D18868AA
:103470005060002008611068401E1060106870479E
:1034800030BF704700240CE021460020FDF73AFCD5
:1034900084F0010403490448FDF774FDA62000F000
:1034A0004FF9F1E7801A060000800440002408E08C
:1034B00021460120FDF726FC84F00104472000F09E
:1034C0003FF9F5E700F1080141604FF0FF318160FD
:1034D00000F10801C1600161002101607047002115
:1034E0000161704710B502460B685C1C0CB910698D
:1034F00007E002F1080000E04068446824689C424C
:10350000FAD944684C604C68A160886041600A61E7
:103510001468641C146010BD42684A6093688B6034
:10352000936859609160086103685B1C0360704791
:1035300010B5FCF78BFE05480068401C0349086085
:10354000BFF34F8FBFF36F8F10BD00004400000228
:1035500010B506480068401E044908600846006827
:1035600010B90020FCF779FE10BD000044000002F5
:1035700010B5044634B100F03FF92046FCF792FE46
:1035800000F0A4FA10BD0000124800684FF47A71F0
:10359000B0FBF1F010490860084600686FF07F4109
:1035A000B1FBF0F00D4908600A480068B0FBF0F08C
:1035B0002D21B1FBF0F00A490860064800684FF47D
:1035C0007A71B0FBF1F0401E4FF0E0214861072016
:1035D0000861704754000002480000024C000002DD
:1035E000500000022DE9F04704464C480068844230
:1035F00001D94A4804684FF0E020006920F001003A
:103600004FF0E021086108468169601E444A126853
:1036100002FB001543480068854202D94148006812
:103620002D1A72B6FFF706F880B94FF0E0208069D6
:103630004FF0E02148610846006940F00100086150
:1036400037480068401E486162B665E04FF0E020F0
:10365000456100204FF0E02188610846006940F094
:1036600001000861A146B9F1000404D0BFF34F8FF7
:1036700030BFBFF36F8F4FF0E020D0F8108028F0FC
:1036800001004FF0E021086162B608F48030B8B163
:1036900023490968491E4FF0E0229269AA1A881A44
:1036A00020490968884203D31D490968884202D924
:1036B0001B490968481E4FF0E0214861661E12E070
:1036C0001748006860434FF0E0218969471A1448A1
:1036D0000068B7FBF0F6701C114909684843C01B2D
:1036E0004FF0E021486100204FF0E0218861FFF7B2
:1036F0001FFF4FF0E020006940F001004FF0E02193
:103700000861304600F070F805480068401E4FF030
:10371000E0214861FFF71CFFBDE8F0874C00000284
:1037200048000002500000024FF08050034908603A
:10373000BFF34F8FBFF36F8F7047000004ED00E0C1
:1037400070B504460026DCB100F056F80E4800685B
:1037500005190E480068001DFFF77EFE50B90B48A2
:10376000006890F82C1001208840094909688143BD
:10377000074801602846FFF7B5F900F0A7F90646AB
:103780000EB9FFF7D1FF70BD200000020C0000024F
:10379000240000021FB50020009001900290034613
:1037A00080220BA103900C4800F080F80446012C05
:1037B0000CD1FCF74BFDA01E084908600120084908
:1037C000086000200749086000F056F81FBD00009F
:1037D00049444C4500000000292C00003C00000238
:1037E0002800000220000002024909680144014A41
:1037F000116070472000000202480068401C014927
:1038000008607047400000021248006818B10120AB
:10381000114908601DE000200F4908600F4800684A
:10382000B0FA80F0C0F11F0101EB81020C4B03EBF9
:10383000820042685268426000F108024368934285
:1038400002D14268526842604268D268054B1A60F1
:1038500000BF704740000002300000022400000258
:10386000700400020C000002002404E0641C4FF409
:103870007A70FFF765FFF9E710B50A48006840F075
:103880007870084908600846006840F060400860A9
:10389000FFF77AFE002004490860FCF7A5FC002031
:1038A00010BD000020ED00E0440000022DE9FF4FB4
:1038B00081B0804615469946DDE90E7A2846109972
:1038C000FFF73AF90446002C52D0681E216B01EB39
:1038D000800B2BF0070B00953A462046119B02996E
:1038E000FFF7C2F94A4641465846FFF777FA20608B
:1038F000BAF1000F01D0CAF80040FFF719FE2548C1
:103900000068401C234908602348006840B92248E9
:1039100004600846006801280CD1FFF7D7F909E0D8
:103920001E48006830B91C480068C06AB84201D817
:10393000194804601A480068401C19490860084684
:103940000068A06494F82C1001208840154909688B
:10395000084314490860E16A01EB8101124A02EB55
:103960008100211DFFF7D8FD0126FFF7F1FD01E0E1
:103970004FF0FF36012E09D10848006830B10648E3
:103980000068C06AB84201D2FFF7CEFE304605B0EB
:10399000BDE8F08F1C0000020C00000228000002AD
:1039A0003800000224000002700400022DE9F041FA
:1039B00000273B480068002865D13A480068401C51
:1039C00038490860084606688EB93748D0F8008044
:1039D00036480068344908603448C0F800803448EC
:1039E0000068401C32490860FFF7A4F900BF314865
:1039F000006886423BD300BF2B480068006808B9C6
:103A0000012000E0002020B14FF0FF30294908607C
:103A10002CE025480068C068C4686568AE4202D2E0
:103A20002448056022E0201DFFF716FDA06A18B1AA
:103A300004F11800FFF710FD94F82C1001208840C5
:103A40001D49096808431C490860E16A01EB8101CE
:103A50001A4A02EB8100211DFFF75EFD1849E06A5A
:103A60000968C96A8842C7D30127C5E700BF14485F
:103A70000068C06A00EB8000104951F8200001285E
:103A800006D9012704E00F480068401C0D49086072
:103A90000D48006800B101273846BDE8F0810000FC
:103AA000400000022000000210000002140000028A
:103AB000340000023C0000022400000270040002F6
:103AC0000C0000022C0000023000000270B500253E
:103AD000FFF72EFD2C480068401E2B490860084661
:103AE000006800284BD129480068002847D024E00E
:103AF0002748C068C46804F11800FFF7ADFC201D1A
:103B0000FFF7AAFC94F82C1001208840214909688D
:103B1000084320490860E16A01EB81011E4A02EB7B
:103B20008100211DFFF7F8FC1C49E06A0968C96A99
:103B3000884202D301201A4908601548006808B974
:103B4000012000E000200028D2D01648006878B19B
:103B50000AE0FFF72BFF10B101201149086011485E
:103B60000068401E0F4908600E4800680028F0D128
:103B70000B480068012802D10125FFF7D5FDFFF7AA
:103B8000E7FC284670BD0000400000021C00000257
:103B90003805000224000002700400020C0000023C
:103BA000300000022C0000020000000000C20100F2
:103BB00001000000001BB700008000001903010095
:103BC00000010101010101040608070501020408C2
:103BD0001030313233343536373839414243444579
:103BE0004640305800303132333435363738396159
:103BF00062636465664030780004000008000000DD
:103C00000000000002000100001000002C3C000039
:103C1000000000025800000038010000843C000051
:103C200058000002806800005401000000000000FD
:103C30000000000000000000000000000000000084
:103C40000000000000000000000000000000000074
:103C50000000000000000000000000000000000064
:103C60000000000000000000000000000000000054
:103C7000AAAAAAAA0000000000000000000000009C
:043C80000000000040
:04000005000000FDFA
:00000001FF
